{
	"contracts/ProposalContract.sol": {
		"ProposalContract": {
			"abi": [
				{
					"inputs": [],
					"stateMutability": "nonpayable",
					"type": "constructor"
				},
				{
					"inputs": [
						{
							"internalType": "string",
							"name": "_description",
							"type": "string"
						},
						{
							"internalType": "uint256",
							"name": "_total_vote_to_end",
							"type": "uint256"
						}
					],
					"name": "create",
					"outputs": [],
					"stateMutability": "nonpayable",
					"type": "function"
				},
				{
					"inputs": [],
					"name": "getCurrentProposal",
					"outputs": [
						{
							"components": [
								{
									"internalType": "string",
									"name": "description",
									"type": "string"
								},
								{
									"internalType": "uint256",
									"name": "approve",
									"type": "uint256"
								},
								{
									"internalType": "uint256",
									"name": "reject",
									"type": "uint256"
								},
								{
									"internalType": "uint256",
									"name": "pass",
									"type": "uint256"
								},
								{
									"internalType": "uint256",
									"name": "total_vote_to_end",
									"type": "uint256"
								},
								{
									"internalType": "bool",
									"name": "current_state",
									"type": "bool"
								},
								{
									"internalType": "bool",
									"name": "is_active",
									"type": "bool"
								}
							],
							"internalType": "struct ProposalContract.Proposal",
							"name": "",
							"type": "tuple"
						}
					],
					"stateMutability": "view",
					"type": "function"
				},
				{
					"inputs": [
						{
							"internalType": "uint256",
							"name": "number",
							"type": "uint256"
						}
					],
					"name": "getProposal",
					"outputs": [
						{
							"components": [
								{
									"internalType": "string",
									"name": "description",
									"type": "string"
								},
								{
									"internalType": "uint256",
									"name": "approve",
									"type": "uint256"
								},
								{
									"internalType": "uint256",
									"name": "reject",
									"type": "uint256"
								},
								{
									"internalType": "uint256",
									"name": "pass",
									"type": "uint256"
								},
								{
									"internalType": "uint256",
									"name": "total_vote_to_end",
									"type": "uint256"
								},
								{
									"internalType": "bool",
									"name": "current_state",
									"type": "bool"
								},
								{
									"internalType": "bool",
									"name": "is_active",
									"type": "bool"
								}
							],
							"internalType": "struct ProposalContract.Proposal",
							"name": "",
							"type": "tuple"
						}
					],
					"stateMutability": "view",
					"type": "function"
				},
				{
					"inputs": [
						{
							"internalType": "address",
							"name": "_address",
							"type": "address"
						}
					],
					"name": "isVoted",
					"outputs": [
						{
							"internalType": "bool",
							"name": "",
							"type": "bool"
						}
					],
					"stateMutability": "view",
					"type": "function"
				},
				{
					"inputs": [
						{
							"internalType": "address",
							"name": "new_owner",
							"type": "address"
						}
					],
					"name": "setOwner",
					"outputs": [],
					"stateMutability": "nonpayable",
					"type": "function"
				},
				{
					"inputs": [],
					"name": "terminateProposal",
					"outputs": [],
					"stateMutability": "nonpayable",
					"type": "function"
				},
				{
					"inputs": [
						{
							"internalType": "uint8",
							"name": "choice",
							"type": "uint8"
						}
					],
					"name": "vote",
					"outputs": [],
					"stateMutability": "nonpayable",
					"type": "function"
				}
			],
			"devdoc": {
				"kind": "dev",
				"methods": {},
				"version": 1
			},
			"evm": {
				"assembly": "    /* \"contracts/ProposalContract.sol\":58:3614  contract ProposalContract {... */\n  mstore(0x40, 0x80)\n    /* \"contracts/ProposalContract.sol\":644:734  constructor(){... */\n  callvalue\n  dup1\n  iszero\n  tag_1\n  jumpi\n  0x00\n  dup1\n  revert\ntag_1:\n  pop\n    /* \"contracts/ProposalContract.sol\":675:685  msg.sender */\n  caller\n    /* \"contracts/ProposalContract.sol\":667:672  owner */\n  0x00\n  dup1\n    /* \"contracts/ProposalContract.sol\":667:685  owner = msg.sender */\n  0x0100\n  exp\n  dup2\n  sload\n  dup2\n  0xffffffffffffffffffffffffffffffffffffffff\n  mul\n  not\n  and\n  swap1\n  dup4\n  0xffffffffffffffffffffffffffffffffffffffff\n  and\n  mul\n  or\n  swap1\n  sstore\n  pop\n    /* \"contracts/ProposalContract.sol\":695:710  voted_addresses */\n  0x02\n    /* \"contracts/ProposalContract.sol\":716:726  msg.sender */\n  caller\n    /* \"contracts/ProposalContract.sol\":695:727  voted_addresses.push(msg.sender) */\n  swap1\n  dup1\n  0x01\n  dup2\n  sload\n  add\n  dup1\n  dup3\n  sstore\n  dup1\n  swap2\n  pop\n  pop\n  0x01\n  swap1\n  sub\n  swap1\n  0x00\n  mstore\n  keccak256(0x00, 0x20)\n  add\n  0x00\n  swap1\n  swap2\n  swap1\n  swap2\n  swap1\n  swap2\n  0x0100\n  exp\n  dup2\n  sload\n  dup2\n  0xffffffffffffffffffffffffffffffffffffffff\n  mul\n  not\n  and\n  swap1\n  dup4\n  0xffffffffffffffffffffffffffffffffffffffff\n  and\n  mul\n  or\n  swap1\n  sstore\n  pop\n    /* \"contracts/ProposalContract.sol\":58:3614  contract ProposalContract {... */\n  dataSize(sub_0)\n  dup1\n  dataOffset(sub_0)\n  0x00\n  codecopy\n  0x00\n  return\nstop\n\nsub_0: assembly {\n        /* \"contracts/ProposalContract.sol\":58:3614  contract ProposalContract {... */\n      mstore(0x40, 0x80)\n      callvalue\n      dup1\n      iszero\n      tag_1\n      jumpi\n      0x00\n      dup1\n      revert\n    tag_1:\n      pop\n      jumpi(tag_2, lt(calldatasize, 0x04))\n      shr(0xe0, calldataload(0x00))\n      dup1\n      0xb3f98adc\n      gt\n      tag_10\n      jumpi\n      dup1\n      0xb3f98adc\n      eq\n      tag_6\n      jumpi\n      dup1\n      0xc7f758a8\n      eq\n      tag_7\n      jumpi\n      dup1\n      0xcbff75cb\n      eq\n      tag_8\n      jumpi\n      dup1\n      0xdbddc7aa\n      eq\n      tag_9\n      jumpi\n      jump(tag_2)\n    tag_10:\n      dup1\n      0x13af4035\n      eq\n      tag_3\n      jumpi\n      dup1\n      0x41ec6870\n      eq\n      tag_4\n      jumpi\n      dup1\n      0x46f81a87\n      eq\n      tag_5\n      jumpi\n    tag_2:\n      0x00\n      dup1\n      revert\n        /* \"contracts/ProposalContract.sol\":2494:2619  function setOwner(address new_owner) external onlyOwner {... */\n    tag_3:\n      tag_11\n      0x04\n      dup1\n      calldatasize\n      sub\n      dup2\n      add\n      swap1\n      tag_12\n      swap2\n      swap1\n      tag_13\n      jump\t// in\n    tag_12:\n      tag_14\n      jump\t// in\n    tag_11:\n      stop\n        /* \"contracts/ProposalContract.sol\":3365:3482  function getCurrentProposal() external view returns(Proposal memory){... */\n    tag_4:\n      tag_15\n      tag_16\n      jump\t// in\n    tag_15:\n      mload(0x40)\n      tag_17\n      swap2\n      swap1\n      tag_18\n      jump\t// in\n    tag_17:\n      mload(0x40)\n      dup1\n      swap2\n      sub\n      swap1\n      return\n        /* \"contracts/ProposalContract.sol\":1413:1638  function create(string calldata _description, uint256 _total_vote_to_end) external onlyOwner {... */\n    tag_5:\n      tag_19\n      0x04\n      dup1\n      calldatasize\n      sub\n      dup2\n      add\n      swap1\n      tag_20\n      swap2\n      swap1\n      tag_21\n      jump\t// in\n    tag_20:\n      tag_22\n      jump\t// in\n    tag_19:\n      stop\n        /* \"contracts/ProposalContract.sol\":1644:2487  function vote(uint8 choice) external active newVoter(msg.sender){... */\n    tag_6:\n      tag_23\n      0x04\n      dup1\n      calldatasize\n      sub\n      dup2\n      add\n      swap1\n      tag_24\n      swap2\n      swap1\n      tag_25\n      jump\t// in\n    tag_24:\n      tag_26\n      jump\t// in\n    tag_23:\n      stop\n        /* \"contracts/ProposalContract.sol\":3488:3612  function getProposal(uint256 number) external view returns(Proposal memory) {... */\n    tag_7:\n      tag_27\n      0x04\n      dup1\n      calldatasize\n      sub\n      dup2\n      add\n      swap1\n      tag_28\n      swap2\n      swap1\n      tag_29\n      jump\t// in\n    tag_28:\n      tag_30\n      jump\t// in\n    tag_27:\n      mload(0x40)\n      tag_31\n      swap2\n      swap1\n      tag_18\n      jump\t// in\n    tag_31:\n      mload(0x40)\n      dup1\n      swap2\n      sub\n      swap1\n      return\n        /* \"contracts/ProposalContract.sol\":3105:3359  function isVoted(address _address) public view returns (bool) {... */\n    tag_8:\n      tag_32\n      0x04\n      dup1\n      calldatasize\n      sub\n      dup2\n      add\n      swap1\n      tag_33\n      swap2\n      swap1\n      tag_13\n      jump\t// in\n    tag_33:\n      tag_34\n      jump\t// in\n    tag_32:\n      mload(0x40)\n      tag_35\n      swap2\n      swap1\n      tag_36\n      jump\t// in\n    tag_35:\n      mload(0x40)\n      dup1\n      swap2\n      sub\n      swap1\n      return\n        /* \"contracts/ProposalContract.sol\":397:512  function terminateProposal() external onlyOwner active {... */\n    tag_9:\n      tag_37\n      tag_38\n      jump\t// in\n    tag_37:\n      stop\n        /* \"contracts/ProposalContract.sol\":2494:2619  function setOwner(address new_owner) external onlyOwner {... */\n    tag_14:\n        /* \"contracts/ProposalContract.sol\":232:237  owner */\n      0x00\n      dup1\n      sload\n      swap1\n      0x0100\n      exp\n      swap1\n      div\n      0xffffffffffffffffffffffffffffffffffffffff\n      and\n        /* \"contracts/ProposalContract.sol\":218:237  msg.sender == owner */\n      0xffffffffffffffffffffffffffffffffffffffff\n      and\n        /* \"contracts/ProposalContract.sol\":218:228  msg.sender */\n      caller\n        /* \"contracts/ProposalContract.sol\":218:237  msg.sender == owner */\n      0xffffffffffffffffffffffffffffffffffffffff\n      and\n      eq\n        /* \"contracts/ProposalContract.sol\":210:238  require(msg.sender == owner) */\n      tag_40\n      jumpi\n      0x00\n      dup1\n      revert\n    tag_40:\n        /* \"contracts/ProposalContract.sol\":2568:2577  new_owner */\n      dup1\n        /* \"contracts/ProposalContract.sol\":2560:2565  owner */\n      0x00\n      dup1\n        /* \"contracts/ProposalContract.sol\":2560:2577  owner = new_owner */\n      0x0100\n      exp\n      dup2\n      sload\n      dup2\n      0xffffffffffffffffffffffffffffffffffffffff\n      mul\n      not\n      and\n      swap1\n      dup4\n      0xffffffffffffffffffffffffffffffffffffffff\n      and\n      mul\n      or\n      swap1\n      sstore\n      pop\n        /* \"contracts/ProposalContract.sol\":2587:2612  voted_addresses = [owner] */\n      mload(0x40)\n      dup1\n      0x20\n      add\n      0x40\n      mstore\n      dup1\n        /* \"contracts/ProposalContract.sol\":2606:2611  owner */\n      0x00\n      dup1\n      sload\n      swap1\n      0x0100\n      exp\n      swap1\n      div\n      0xffffffffffffffffffffffffffffffffffffffff\n      and\n        /* \"contracts/ProposalContract.sol\":2587:2612  voted_addresses = [owner] */\n      0xffffffffffffffffffffffffffffffffffffffff\n      and\n      0xffffffffffffffffffffffffffffffffffffffff\n      and\n      dup2\n      mstore\n      pop\n        /* \"contracts/ProposalContract.sol\":2587:2602  voted_addresses */\n      0x02\n        /* \"contracts/ProposalContract.sol\":2587:2612  voted_addresses = [owner] */\n      swap1\n      0x01\n      tag_42\n      swap3\n      swap2\n      swap1\n      tag_43\n      jump\t// in\n    tag_42:\n      pop\n        /* \"contracts/ProposalContract.sol\":2494:2619  function setOwner(address new_owner) external onlyOwner {... */\n      pop\n      jump\t// out\n        /* \"contracts/ProposalContract.sol\":3365:3482  function getCurrentProposal() external view returns(Proposal memory){... */\n    tag_16:\n        /* \"contracts/ProposalContract.sol\":3417:3432  Proposal memory */\n      tag_44\n      tag_45\n      jump\t// in\n    tag_44:\n        /* \"contracts/ProposalContract.sol\":3450:3466  proposal_history */\n      0x03\n        /* \"contracts/ProposalContract.sol\":3450:3475  proposal_history[counter] */\n      0x00\n        /* \"contracts/ProposalContract.sol\":3467:3474  counter */\n      sload(0x01)\n        /* \"contracts/ProposalContract.sol\":3450:3475  proposal_history[counter] */\n      dup2\n      mstore\n      0x20\n      add\n      swap1\n      dup2\n      mstore\n      0x20\n      add\n      0x00\n      keccak256\n        /* \"contracts/ProposalContract.sol\":3443:3475  return proposal_history[counter] */\n      mload(0x40)\n      dup1\n      0xe0\n      add\n      0x40\n      mstore\n      swap1\n      dup2\n      0x00\n      dup3\n      add\n      dup1\n      sload\n      tag_47\n      swap1\n      tag_48\n      jump\t// in\n    tag_47:\n      dup1\n      0x1f\n      add\n      0x20\n      dup1\n      swap2\n      div\n      mul\n      0x20\n      add\n      mload(0x40)\n      swap1\n      dup2\n      add\n      0x40\n      mstore\n      dup1\n      swap3\n      swap2\n      swap1\n      dup2\n      dup2\n      mstore\n      0x20\n      add\n      dup3\n      dup1\n      sload\n      tag_49\n      swap1\n      tag_48\n      jump\t// in\n    tag_49:\n      dup1\n      iszero\n      tag_50\n      jumpi\n      dup1\n      0x1f\n      lt\n      tag_51\n      jumpi\n      0x0100\n      dup1\n      dup4\n      sload\n      div\n      mul\n      dup4\n      mstore\n      swap2\n      0x20\n      add\n      swap2\n      jump(tag_50)\n    tag_51:\n      dup3\n      add\n      swap2\n      swap1\n      0x00\n      mstore\n      keccak256(0x00, 0x20)\n      swap1\n    tag_52:\n      dup2\n      sload\n      dup2\n      mstore\n      swap1\n      0x01\n      add\n      swap1\n      0x20\n      add\n      dup1\n      dup4\n      gt\n      tag_52\n      jumpi\n      dup3\n      swap1\n      sub\n      0x1f\n      and\n      dup3\n      add\n      swap2\n    tag_50:\n      pop\n      pop\n      pop\n      pop\n      pop\n      dup2\n      mstore\n      0x20\n      add\n      0x01\n      dup3\n      add\n      sload\n      dup2\n      mstore\n      0x20\n      add\n      0x02\n      dup3\n      add\n      sload\n      dup2\n      mstore\n      0x20\n      add\n      0x03\n      dup3\n      add\n      sload\n      dup2\n      mstore\n      0x20\n      add\n      0x04\n      dup3\n      add\n      sload\n      dup2\n      mstore\n      0x20\n      add\n      0x05\n      dup3\n      add\n      0x00\n      swap1\n      sload\n      swap1\n      0x0100\n      exp\n      swap1\n      div\n      0xff\n      and\n      iszero\n      iszero\n      iszero\n      iszero\n      dup2\n      mstore\n      0x20\n      add\n      0x05\n      dup3\n      add\n      0x01\n      swap1\n      sload\n      swap1\n      0x0100\n      exp\n      swap1\n      div\n      0xff\n      and\n      iszero\n      iszero\n      iszero\n      iszero\n      dup2\n      mstore\n      pop\n      pop\n      swap1\n      pop\n        /* \"contracts/ProposalContract.sol\":3365:3482  function getCurrentProposal() external view returns(Proposal memory){... */\n      swap1\n      jump\t// out\n        /* \"contracts/ProposalContract.sol\":1413:1638  function create(string calldata _description, uint256 _total_vote_to_end) external onlyOwner {... */\n    tag_22:\n        /* \"contracts/ProposalContract.sol\":232:237  owner */\n      0x00\n      dup1\n      sload\n      swap1\n      0x0100\n      exp\n      swap1\n      div\n      0xffffffffffffffffffffffffffffffffffffffff\n      and\n        /* \"contracts/ProposalContract.sol\":218:237  msg.sender == owner */\n      0xffffffffffffffffffffffffffffffffffffffff\n      and\n        /* \"contracts/ProposalContract.sol\":218:228  msg.sender */\n      caller\n        /* \"contracts/ProposalContract.sol\":218:237  msg.sender == owner */\n      0xffffffffffffffffffffffffffffffffffffffff\n      and\n      eq\n        /* \"contracts/ProposalContract.sol\":210:238  require(msg.sender == owner) */\n      tag_54\n      jumpi\n      0x00\n      dup1\n      revert\n    tag_54:\n        /* \"contracts/ProposalContract.sol\":1527:1528  1 */\n      0x01\n        /* \"contracts/ProposalContract.sol\":1516:1523  counter */\n      dup1\n      0x00\n        /* \"contracts/ProposalContract.sol\":1516:1528  counter += 1 */\n      dup3\n      dup3\n      sload\n      tag_56\n      swap2\n      swap1\n      tag_57\n      jump\t// in\n    tag_56:\n      swap3\n      pop\n      pop\n      dup2\n      swap1\n      sstore\n      pop\n        /* \"contracts/ProposalContract.sol\":1566:1631  Proposal( _description, 0, 0, 0, _total_vote_to_end, false, true) */\n      mload(0x40)\n      dup1\n      0xe0\n      add\n      0x40\n      mstore\n      dup1\n        /* \"contracts/ProposalContract.sol\":1576:1588  _description */\n      dup5\n      dup5\n        /* \"contracts/ProposalContract.sol\":1566:1631  Proposal( _description, 0, 0, 0, _total_vote_to_end, false, true) */\n      dup1\n      dup1\n      0x1f\n      add\n      0x20\n      dup1\n      swap2\n      div\n      mul\n      0x20\n      add\n      mload(0x40)\n      swap1\n      dup2\n      add\n      0x40\n      mstore\n      dup1\n      swap4\n      swap3\n      swap2\n      swap1\n      dup2\n      dup2\n      mstore\n      0x20\n      add\n      dup4\n      dup4\n      dup1\n      dup3\n      dup5\n      calldatacopy\n      0x00\n      dup2\n      dup5\n      add\n      mstore\n      not(0x1f)\n      0x1f\n      dup3\n      add\n      and\n      swap1\n      pop\n      dup1\n      dup4\n      add\n      swap3\n      pop\n      pop\n      pop\n      pop\n      pop\n      pop\n      pop\n      dup2\n      mstore\n      0x20\n      add\n        /* \"contracts/ProposalContract.sol\":1590:1591  0 */\n      0x00\n        /* \"contracts/ProposalContract.sol\":1566:1631  Proposal( _description, 0, 0, 0, _total_vote_to_end, false, true) */\n      dup2\n      mstore\n      0x20\n      add\n        /* \"contracts/ProposalContract.sol\":1593:1594  0 */\n      0x00\n        /* \"contracts/ProposalContract.sol\":1566:1631  Proposal( _description, 0, 0, 0, _total_vote_to_end, false, true) */\n      dup2\n      mstore\n      0x20\n      add\n        /* \"contracts/ProposalContract.sol\":1596:1597  0 */\n      0x00\n        /* \"contracts/ProposalContract.sol\":1566:1631  Proposal( _description, 0, 0, 0, _total_vote_to_end, false, true) */\n      dup2\n      mstore\n      0x20\n      add\n        /* \"contracts/ProposalContract.sol\":1599:1617  _total_vote_to_end */\n      dup3\n        /* \"contracts/ProposalContract.sol\":1566:1631  Proposal( _description, 0, 0, 0, _total_vote_to_end, false, true) */\n      dup2\n      mstore\n      0x20\n      add\n        /* \"contracts/ProposalContract.sol\":1619:1624  false */\n      0x00\n        /* \"contracts/ProposalContract.sol\":1566:1631  Proposal( _description, 0, 0, 0, _total_vote_to_end, false, true) */\n      iszero\n      iszero\n      dup2\n      mstore\n      0x20\n      add\n        /* \"contracts/ProposalContract.sol\":1626:1630  true */\n      0x01\n        /* \"contracts/ProposalContract.sol\":1566:1631  Proposal( _description, 0, 0, 0, _total_vote_to_end, false, true) */\n      iszero\n      iszero\n      dup2\n      mstore\n      pop\n        /* \"contracts/ProposalContract.sol\":1538:1554  proposal_history */\n      0x03\n        /* \"contracts/ProposalContract.sol\":1538:1563  proposal_history[counter] */\n      0x00\n        /* \"contracts/ProposalContract.sol\":1555:1562  counter */\n      sload(0x01)\n        /* \"contracts/ProposalContract.sol\":1538:1563  proposal_history[counter] */\n      dup2\n      mstore\n      0x20\n      add\n      swap1\n      dup2\n      mstore\n      0x20\n      add\n      0x00\n      keccak256\n        /* \"contracts/ProposalContract.sol\":1538:1631  proposal_history[counter] = Proposal( _description, 0, 0, 0, _total_vote_to_end, false, true) */\n      0x00\n      dup3\n      add\n      mload\n      dup2\n      0x00\n      add\n      swap1\n      dup2\n      tag_58\n      swap2\n      swap1\n      tag_59\n      jump\t// in\n    tag_58:\n      pop\n      0x20\n      dup3\n      add\n      mload\n      dup2\n      0x01\n      add\n      sstore\n      0x40\n      dup3\n      add\n      mload\n      dup2\n      0x02\n      add\n      sstore\n      0x60\n      dup3\n      add\n      mload\n      dup2\n      0x03\n      add\n      sstore\n      0x80\n      dup3\n      add\n      mload\n      dup2\n      0x04\n      add\n      sstore\n      0xa0\n      dup3\n      add\n      mload\n      dup2\n      0x05\n      add\n      exp(0x0100, 0x00)\n      dup2\n      sload\n      dup2\n      0xff\n      mul\n      not\n      and\n      swap1\n      dup4\n      iszero\n      iszero\n      mul\n      or\n      swap1\n      sstore\n      pop\n      0xc0\n      dup3\n      add\n      mload\n      dup2\n      0x05\n      add\n      exp(0x0100, 0x01)\n      dup2\n      sload\n      dup2\n      0xff\n      mul\n      not\n      and\n      swap1\n      dup4\n      iszero\n      iszero\n      mul\n      or\n      swap1\n      sstore\n      pop\n      swap1\n      pop\n      pop\n        /* \"contracts/ProposalContract.sol\":1413:1638  function create(string calldata _description, uint256 _total_vote_to_end) external onlyOwner {... */\n      pop\n      pop\n      pop\n      jump\t// out\n        /* \"contracts/ProposalContract.sol\":1644:2487  function vote(uint8 choice) external active newVoter(msg.sender){... */\n    tag_26:\n        /* \"contracts/ProposalContract.sol\":338:342  true */\n      0x01\n        /* \"contracts/ProposalContract.sol\":299:342  proposal_history[counter].is_active == true */\n      iszero\n      iszero\n        /* \"contracts/ProposalContract.sol\":299:315  proposal_history */\n      0x03\n        /* \"contracts/ProposalContract.sol\":299:324  proposal_history[counter] */\n      0x00\n        /* \"contracts/ProposalContract.sol\":316:323  counter */\n      sload(0x01)\n        /* \"contracts/ProposalContract.sol\":299:324  proposal_history[counter] */\n      dup2\n      mstore\n      0x20\n      add\n      swap1\n      dup2\n      mstore\n      0x20\n      add\n      0x00\n      keccak256\n        /* \"contracts/ProposalContract.sol\":299:334  proposal_history[counter].is_active */\n      0x05\n      add\n      0x01\n      swap1\n      sload\n      swap1\n      0x0100\n      exp\n      swap1\n      div\n      0xff\n      and\n        /* \"contracts/ProposalContract.sol\":299:342  proposal_history[counter].is_active == true */\n      iszero\n      iszero\n      eq\n        /* \"contracts/ProposalContract.sol\":291:373  require(proposal_history[counter].is_active == true, \"The proposal is not active\") */\n      tag_61\n      jumpi\n      mload(0x40)\n      0x08c379a000000000000000000000000000000000000000000000000000000000\n      dup2\n      mstore\n      0x04\n      add\n      tag_62\n      swap1\n      tag_63\n      jump\t// in\n    tag_62:\n      mload(0x40)\n      dup1\n      swap2\n      sub\n      swap1\n      revert\n    tag_61:\n        /* \"contracts/ProposalContract.sol\":1697:1707  msg.sender */\n      caller\n        /* \"contracts/ProposalContract.sol\":573:590  isVoted(_address) */\n      tag_65\n        /* \"contracts/ProposalContract.sol\":581:589  _address */\n      dup2\n        /* \"contracts/ProposalContract.sol\":573:580  isVoted */\n      tag_34\n        /* \"contracts/ProposalContract.sol\":573:590  isVoted(_address) */\n      jump\t// in\n    tag_65:\n        /* \"contracts/ProposalContract.sol\":572:590  !isVoted(_address) */\n      iszero\n        /* \"contracts/ProposalContract.sol\":564:620  require(!isVoted(_address), \"Address has already voted\") */\n      tag_66\n      jumpi\n      mload(0x40)\n      0x08c379a000000000000000000000000000000000000000000000000000000000\n      dup2\n      mstore\n      0x04\n      add\n      tag_67\n      swap1\n      tag_68\n      jump\t// in\n    tag_67:\n      mload(0x40)\n      dup1\n      swap2\n      sub\n      swap1\n      revert\n    tag_66:\n        /* \"contracts/ProposalContract.sol\":1741:1766  Proposal storage proposal */\n      0x00\n        /* \"contracts/ProposalContract.sol\":1769:1785  proposal_history */\n      0x03\n        /* \"contracts/ProposalContract.sol\":1769:1794  proposal_history[counter] */\n      0x00\n        /* \"contracts/ProposalContract.sol\":1786:1793  counter */\n      sload(0x01)\n        /* \"contracts/ProposalContract.sol\":1769:1794  proposal_history[counter] */\n      dup2\n      mstore\n      0x20\n      add\n      swap1\n      dup2\n      mstore\n      0x20\n      add\n      0x00\n      keccak256\n        /* \"contracts/ProposalContract.sol\":1741:1794  Proposal storage proposal = proposal_history[counter] */\n      swap1\n      pop\n        /* \"contracts/ProposalContract.sol\":1804:1822  uint256 total_vote */\n      0x00\n        /* \"contracts/ProposalContract.sol\":1862:1870  proposal */\n      dup2\n        /* \"contracts/ProposalContract.sol\":1862:1875  proposal.pass */\n      0x03\n      add\n      sload\n        /* \"contracts/ProposalContract.sol\":1844:1852  proposal */\n      dup3\n        /* \"contracts/ProposalContract.sol\":1844:1859  proposal.reject */\n      0x02\n      add\n      sload\n        /* \"contracts/ProposalContract.sol\":1825:1833  proposal */\n      dup4\n        /* \"contracts/ProposalContract.sol\":1825:1841  proposal.approve */\n      0x01\n      add\n      sload\n        /* \"contracts/ProposalContract.sol\":1825:1859  proposal.approve + proposal.reject */\n      tag_70\n      swap2\n      swap1\n      tag_57\n      jump\t// in\n    tag_70:\n        /* \"contracts/ProposalContract.sol\":1825:1875  proposal.approve + proposal.reject + proposal.pass */\n      tag_71\n      swap2\n      swap1\n      tag_57\n      jump\t// in\n    tag_71:\n        /* \"contracts/ProposalContract.sol\":1804:1875  uint256 total_vote = proposal.approve + proposal.reject + proposal.pass */\n      swap1\n      pop\n        /* \"contracts/ProposalContract.sol\":1886:1901  voted_addresses */\n      0x02\n        /* \"contracts/ProposalContract.sol\":1907:1917  msg.sender */\n      caller\n        /* \"contracts/ProposalContract.sol\":1886:1918  voted_addresses.push(msg.sender) */\n      swap1\n      dup1\n      0x01\n      dup2\n      sload\n      add\n      dup1\n      dup3\n      sstore\n      dup1\n      swap2\n      pop\n      pop\n      0x01\n      swap1\n      sub\n      swap1\n      0x00\n      mstore\n      keccak256(0x00, 0x20)\n      add\n      0x00\n      swap1\n      swap2\n      swap1\n      swap2\n      swap1\n      swap2\n      0x0100\n      exp\n      dup2\n      sload\n      dup2\n      0xffffffffffffffffffffffffffffffffffffffff\n      mul\n      not\n      and\n      swap1\n      dup4\n      0xffffffffffffffffffffffffffffffffffffffff\n      and\n      mul\n      or\n      swap1\n      sstore\n      pop\n        /* \"contracts/ProposalContract.sol\":1943:1944  1 */\n      0x01\n        /* \"contracts/ProposalContract.sol\":1933:1939  choice */\n      dup5\n        /* \"contracts/ProposalContract.sol\":1933:1944  choice == 1 */\n      0xff\n      and\n      sub\n        /* \"contracts/ProposalContract.sol\":1929:2312  if (choice == 1) {... */\n      tag_73\n      jumpi\n        /* \"contracts/ProposalContract.sol\":1980:1981  1 */\n      0x01\n        /* \"contracts/ProposalContract.sol\":1960:1968  proposal */\n      dup3\n        /* \"contracts/ProposalContract.sol\":1960:1976  proposal.approve */\n      0x01\n      add\n      0x00\n        /* \"contracts/ProposalContract.sol\":1960:1981  proposal.approve += 1 */\n      dup3\n      dup3\n      sload\n      tag_74\n      swap2\n      swap1\n      tag_57\n      jump\t// in\n    tag_74:\n      swap3\n      pop\n      pop\n      dup2\n      swap1\n      sstore\n      pop\n        /* \"contracts/ProposalContract.sol\":2020:2043  calculateCurrentState() */\n      tag_75\n        /* \"contracts/ProposalContract.sol\":2020:2041  calculateCurrentState */\n      tag_76\n        /* \"contracts/ProposalContract.sol\":2020:2043  calculateCurrentState() */\n      jump\t// in\n    tag_75:\n        /* \"contracts/ProposalContract.sol\":1995:2003  proposal */\n      dup3\n        /* \"contracts/ProposalContract.sol\":1995:2017  proposal.current_state */\n      0x05\n      add\n      0x00\n        /* \"contracts/ProposalContract.sol\":1995:2043  proposal.current_state = calculateCurrentState() */\n      0x0100\n      exp\n      dup2\n      sload\n      dup2\n      0xff\n      mul\n      not\n      and\n      swap1\n      dup4\n      iszero\n      iszero\n      mul\n      or\n      swap1\n      sstore\n      pop\n        /* \"contracts/ProposalContract.sol\":1929:2312  if (choice == 1) {... */\n      jump(tag_77)\n    tag_73:\n        /* \"contracts/ProposalContract.sol\":2074:2075  2 */\n      0x02\n        /* \"contracts/ProposalContract.sol\":2064:2070  choice */\n      dup5\n        /* \"contracts/ProposalContract.sol\":2064:2075  choice == 2 */\n      0xff\n      and\n      sub\n        /* \"contracts/ProposalContract.sol\":2060:2312  if (choice == 2) {... */\n      tag_78\n      jumpi\n        /* \"contracts/ProposalContract.sol\":2110:2111  1 */\n      0x01\n        /* \"contracts/ProposalContract.sol\":2091:2099  proposal */\n      dup3\n        /* \"contracts/ProposalContract.sol\":2091:2106  proposal.reject */\n      0x02\n      add\n      0x00\n        /* \"contracts/ProposalContract.sol\":2091:2111  proposal.reject += 1 */\n      dup3\n      dup3\n      sload\n      tag_79\n      swap2\n      swap1\n      tag_57\n      jump\t// in\n    tag_79:\n      swap3\n      pop\n      pop\n      dup2\n      swap1\n      sstore\n      pop\n        /* \"contracts/ProposalContract.sol\":2150:2173  calculateCurrentState() */\n      tag_80\n        /* \"contracts/ProposalContract.sol\":2150:2171  calculateCurrentState */\n      tag_76\n        /* \"contracts/ProposalContract.sol\":2150:2173  calculateCurrentState() */\n      jump\t// in\n    tag_80:\n        /* \"contracts/ProposalContract.sol\":2125:2133  proposal */\n      dup3\n        /* \"contracts/ProposalContract.sol\":2125:2147  proposal.current_state */\n      0x05\n      add\n      0x00\n        /* \"contracts/ProposalContract.sol\":2125:2173  proposal.current_state = calculateCurrentState() */\n      0x0100\n      exp\n      dup2\n      sload\n      dup2\n      0xff\n      mul\n      not\n      and\n      swap1\n      dup4\n      iszero\n      iszero\n      mul\n      or\n      swap1\n      sstore\n      pop\n        /* \"contracts/ProposalContract.sol\":2060:2312  if (choice == 2) {... */\n      jump(tag_81)\n    tag_78:\n        /* \"contracts/ProposalContract.sol\":2204:2205  3 */\n      0x03\n        /* \"contracts/ProposalContract.sol\":2194:2200  choice */\n      dup5\n        /* \"contracts/ProposalContract.sol\":2194:2205  choice == 3 */\n      0xff\n      and\n      sub\n        /* \"contracts/ProposalContract.sol\":2190:2312  if (choice == 3) {... */\n      tag_82\n      jumpi\n        /* \"contracts/ProposalContract.sol\":2238:2239  1 */\n      0x01\n        /* \"contracts/ProposalContract.sol\":2221:2229  proposal */\n      dup3\n        /* \"contracts/ProposalContract.sol\":2221:2234  proposal.pass */\n      0x03\n      add\n      0x00\n        /* \"contracts/ProposalContract.sol\":2221:2239  proposal.pass += 1 */\n      dup3\n      dup3\n      sload\n      tag_83\n      swap2\n      swap1\n      tag_57\n      jump\t// in\n    tag_83:\n      swap3\n      pop\n      pop\n      dup2\n      swap1\n      sstore\n      pop\n        /* \"contracts/ProposalContract.sol\":2278:2301  calculateCurrentState() */\n      tag_84\n        /* \"contracts/ProposalContract.sol\":2278:2299  calculateCurrentState */\n      tag_76\n        /* \"contracts/ProposalContract.sol\":2278:2301  calculateCurrentState() */\n      jump\t// in\n    tag_84:\n        /* \"contracts/ProposalContract.sol\":2253:2261  proposal */\n      dup3\n        /* \"contracts/ProposalContract.sol\":2253:2275  proposal.current_state */\n      0x05\n      add\n      0x00\n        /* \"contracts/ProposalContract.sol\":2253:2301  proposal.current_state = calculateCurrentState() */\n      0x0100\n      exp\n      dup2\n      sload\n      dup2\n      0xff\n      mul\n      not\n      and\n      swap1\n      dup4\n      iszero\n      iszero\n      mul\n      or\n      swap1\n      sstore\n      pop\n        /* \"contracts/ProposalContract.sol\":2190:2312  if (choice == 3) {... */\n    tag_82:\n        /* \"contracts/ProposalContract.sol\":2060:2312  if (choice == 2) {... */\n    tag_81:\n        /* \"contracts/ProposalContract.sol\":1929:2312  if (choice == 1) {... */\n    tag_77:\n        /* \"contracts/ProposalContract.sol\":2370:2371  1 */\n      0x01\n        /* \"contracts/ProposalContract.sol\":2356:2366  total_vote */\n      dup2\n        /* \"contracts/ProposalContract.sol\":2327:2335  proposal */\n      dup4\n        /* \"contracts/ProposalContract.sol\":2327:2353  proposal.total_vote_to_end */\n      0x04\n      add\n      sload\n        /* \"contracts/ProposalContract.sol\":2327:2366  proposal.total_vote_to_end - total_vote */\n      tag_85\n      swap2\n      swap1\n      tag_86\n      jump\t// in\n    tag_85:\n        /* \"contracts/ProposalContract.sol\":2327:2371  proposal.total_vote_to_end - total_vote == 1 */\n      eq\n        /* \"contracts/ProposalContract.sol\":2326:2428  (proposal.total_vote_to_end - total_vote == 1) ... */\n      dup1\n      iszero\n      tag_87\n      jumpi\n      pop\n        /* \"contracts/ProposalContract.sol\":2396:2397  1 */\n      0x01\n        /* \"contracts/ProposalContract.sol\":2386:2392  choice */\n      dup5\n        /* \"contracts/ProposalContract.sol\":2386:2397  choice == 1 */\n      0xff\n      and\n      eq\n        /* \"contracts/ProposalContract.sol\":2386:2412  choice == 1 || choice == 2 */\n      dup1\n      tag_88\n      jumpi\n      pop\n        /* \"contracts/ProposalContract.sol\":2411:2412  2 */\n      0x02\n        /* \"contracts/ProposalContract.sol\":2401:2407  choice */\n      dup5\n        /* \"contracts/ProposalContract.sol\":2401:2412  choice == 2 */\n      0xff\n      and\n      eq\n        /* \"contracts/ProposalContract.sol\":2386:2412  choice == 1 || choice == 2 */\n    tag_88:\n        /* \"contracts/ProposalContract.sol\":2386:2427  choice == 1 || choice == 2 || choice == 0 */\n      dup1\n      tag_89\n      jumpi\n      pop\n        /* \"contracts/ProposalContract.sol\":2426:2427  0 */\n      0x00\n        /* \"contracts/ProposalContract.sol\":2416:2422  choice */\n      dup5\n        /* \"contracts/ProposalContract.sol\":2416:2427  choice == 0 */\n      0xff\n      and\n      eq\n        /* \"contracts/ProposalContract.sol\":2386:2427  choice == 1 || choice == 2 || choice == 0 */\n    tag_89:\n        /* \"contracts/ProposalContract.sol\":2326:2428  (proposal.total_vote_to_end - total_vote == 1) ... */\n    tag_87:\n        /* \"contracts/ProposalContract.sol\":2322:2481  if ((proposal.total_vote_to_end - total_vote == 1) ... */\n      iszero\n      tag_90\n      jumpi\n        /* \"contracts/ProposalContract.sol\":2465:2470  false */\n      0x00\n        /* \"contracts/ProposalContract.sol\":2444:2452  proposal */\n      dup3\n        /* \"contracts/ProposalContract.sol\":2444:2462  proposal.is_active */\n      0x05\n      add\n      0x01\n        /* \"contracts/ProposalContract.sol\":2444:2470  proposal.is_active = false */\n      0x0100\n      exp\n      dup2\n      sload\n      dup2\n      0xff\n      mul\n      not\n      and\n      swap1\n      dup4\n      iszero\n      iszero\n      mul\n      or\n      swap1\n      sstore\n      pop\n        /* \"contracts/ProposalContract.sol\":2322:2481  if ((proposal.total_vote_to_end - total_vote == 1) ... */\n    tag_90:\n        /* \"contracts/ProposalContract.sol\":1708:2487  {... */\n      pop\n      pop\n        /* \"contracts/ProposalContract.sol\":383:384  _ */\n      pop\n        /* \"contracts/ProposalContract.sol\":1644:2487  function vote(uint8 choice) external active newVoter(msg.sender){... */\n      pop\n      jump\t// out\n        /* \"contracts/ProposalContract.sol\":3488:3612  function getProposal(uint256 number) external view returns(Proposal memory) {... */\n    tag_30:\n        /* \"contracts/ProposalContract.sol\":3547:3562  Proposal memory */\n      tag_91\n      tag_45\n      jump\t// in\n    tag_91:\n        /* \"contracts/ProposalContract.sol\":3581:3597  proposal_history */\n      0x03\n        /* \"contracts/ProposalContract.sol\":3581:3605  proposal_history[number] */\n      0x00\n        /* \"contracts/ProposalContract.sol\":3598:3604  number */\n      dup4\n        /* \"contracts/ProposalContract.sol\":3581:3605  proposal_history[number] */\n      dup2\n      mstore\n      0x20\n      add\n      swap1\n      dup2\n      mstore\n      0x20\n      add\n      0x00\n      keccak256\n        /* \"contracts/ProposalContract.sol\":3574:3605  return proposal_history[number] */\n      mload(0x40)\n      dup1\n      0xe0\n      add\n      0x40\n      mstore\n      swap1\n      dup2\n      0x00\n      dup3\n      add\n      dup1\n      sload\n      tag_93\n      swap1\n      tag_48\n      jump\t// in\n    tag_93:\n      dup1\n      0x1f\n      add\n      0x20\n      dup1\n      swap2\n      div\n      mul\n      0x20\n      add\n      mload(0x40)\n      swap1\n      dup2\n      add\n      0x40\n      mstore\n      dup1\n      swap3\n      swap2\n      swap1\n      dup2\n      dup2\n      mstore\n      0x20\n      add\n      dup3\n      dup1\n      sload\n      tag_94\n      swap1\n      tag_48\n      jump\t// in\n    tag_94:\n      dup1\n      iszero\n      tag_95\n      jumpi\n      dup1\n      0x1f\n      lt\n      tag_96\n      jumpi\n      0x0100\n      dup1\n      dup4\n      sload\n      div\n      mul\n      dup4\n      mstore\n      swap2\n      0x20\n      add\n      swap2\n      jump(tag_95)\n    tag_96:\n      dup3\n      add\n      swap2\n      swap1\n      0x00\n      mstore\n      keccak256(0x00, 0x20)\n      swap1\n    tag_97:\n      dup2\n      sload\n      dup2\n      mstore\n      swap1\n      0x01\n      add\n      swap1\n      0x20\n      add\n      dup1\n      dup4\n      gt\n      tag_97\n      jumpi\n      dup3\n      swap1\n      sub\n      0x1f\n      and\n      dup3\n      add\n      swap2\n    tag_95:\n      pop\n      pop\n      pop\n      pop\n      pop\n      dup2\n      mstore\n      0x20\n      add\n      0x01\n      dup3\n      add\n      sload\n      dup2\n      mstore\n      0x20\n      add\n      0x02\n      dup3\n      add\n      sload\n      dup2\n      mstore\n      0x20\n      add\n      0x03\n      dup3\n      add\n      sload\n      dup2\n      mstore\n      0x20\n      add\n      0x04\n      dup3\n      add\n      sload\n      dup2\n      mstore\n      0x20\n      add\n      0x05\n      dup3\n      add\n      0x00\n      swap1\n      sload\n      swap1\n      0x0100\n      exp\n      swap1\n      div\n      0xff\n      and\n      iszero\n      iszero\n      iszero\n      iszero\n      dup2\n      mstore\n      0x20\n      add\n      0x05\n      dup3\n      add\n      0x01\n      swap1\n      sload\n      swap1\n      0x0100\n      exp\n      swap1\n      div\n      0xff\n      and\n      iszero\n      iszero\n      iszero\n      iszero\n      dup2\n      mstore\n      pop\n      pop\n      swap1\n      pop\n        /* \"contracts/ProposalContract.sol\":3488:3612  function getProposal(uint256 number) external view returns(Proposal memory) {... */\n      swap2\n      swap1\n      pop\n      jump\t// out\n        /* \"contracts/ProposalContract.sol\":3105:3359  function isVoted(address _address) public view returns (bool) {... */\n    tag_34:\n        /* \"contracts/ProposalContract.sol\":3161:3165  bool */\n      0x00\n        /* \"contracts/ProposalContract.sol\":3182:3188  uint i */\n      dup1\n        /* \"contracts/ProposalContract.sol\":3191:3192  0 */\n      0x00\n        /* \"contracts/ProposalContract.sol\":3182:3192  uint i = 0 */\n      swap1\n      pop\n        /* \"contracts/ProposalContract.sol\":3177:3331  for (uint i = 0; i < voted_addresses.length; i++) {... */\n    tag_99:\n        /* \"contracts/ProposalContract.sol\":3198:3213  voted_addresses */\n      0x02\n        /* \"contracts/ProposalContract.sol\":3198:3220  voted_addresses.length */\n      dup1\n      sload\n      swap1\n      pop\n        /* \"contracts/ProposalContract.sol\":3194:3195  i */\n      dup2\n        /* \"contracts/ProposalContract.sol\":3194:3220  i < voted_addresses.length */\n      lt\n        /* \"contracts/ProposalContract.sol\":3177:3331  for (uint i = 0; i < voted_addresses.length; i++) {... */\n      iszero\n      tag_100\n      jumpi\n        /* \"contracts/ProposalContract.sol\":3267:3275  _address */\n      dup3\n        /* \"contracts/ProposalContract.sol\":3245:3275  voted_addresses[i] == _address */\n      0xffffffffffffffffffffffffffffffffffffffff\n      and\n        /* \"contracts/ProposalContract.sol\":3245:3260  voted_addresses */\n      0x02\n        /* \"contracts/ProposalContract.sol\":3261:3262  i */\n      dup3\n        /* \"contracts/ProposalContract.sol\":3245:3263  voted_addresses[i] */\n      dup2\n      sload\n      dup2\n      lt\n      tag_102\n      jumpi\n      tag_103\n      tag_104\n      jump\t// in\n    tag_103:\n    tag_102:\n      swap1\n      0x00\n      mstore\n      keccak256(0x00, 0x20)\n      add\n      0x00\n      swap1\n      sload\n      swap1\n      0x0100\n      exp\n      swap1\n      div\n      0xffffffffffffffffffffffffffffffffffffffff\n      and\n        /* \"contracts/ProposalContract.sol\":3245:3275  voted_addresses[i] == _address */\n      0xffffffffffffffffffffffffffffffffffffffff\n      and\n      sub\n        /* \"contracts/ProposalContract.sol\":3241:3321  if (voted_addresses[i] == _address) {... */\n      tag_106\n      jumpi\n        /* \"contracts/ProposalContract.sol\":3302:3306  true */\n      0x01\n        /* \"contracts/ProposalContract.sol\":3295:3306  return true */\n      swap2\n      pop\n      pop\n      jump(tag_98)\n        /* \"contracts/ProposalContract.sol\":3241:3321  if (voted_addresses[i] == _address) {... */\n    tag_106:\n        /* \"contracts/ProposalContract.sol\":3222:3225  i++ */\n      dup1\n      dup1\n      0x01\n      add\n      swap2\n      pop\n      pop\n        /* \"contracts/ProposalContract.sol\":3177:3331  for (uint i = 0; i < voted_addresses.length; i++) {... */\n      jump(tag_99)\n    tag_100:\n      pop\n        /* \"contracts/ProposalContract.sol\":3347:3352  false */\n      0x00\n        /* \"contracts/ProposalContract.sol\":3340:3352  return false */\n      swap1\n      pop\n        /* \"contracts/ProposalContract.sol\":3105:3359  function isVoted(address _address) public view returns (bool) {... */\n    tag_98:\n      swap2\n      swap1\n      pop\n      jump\t// out\n        /* \"contracts/ProposalContract.sol\":397:512  function terminateProposal() external onlyOwner active {... */\n    tag_38:\n        /* \"contracts/ProposalContract.sol\":232:237  owner */\n      0x00\n      dup1\n      sload\n      swap1\n      0x0100\n      exp\n      swap1\n      div\n      0xffffffffffffffffffffffffffffffffffffffff\n      and\n        /* \"contracts/ProposalContract.sol\":218:237  msg.sender == owner */\n      0xffffffffffffffffffffffffffffffffffffffff\n      and\n        /* \"contracts/ProposalContract.sol\":218:228  msg.sender */\n      caller\n        /* \"contracts/ProposalContract.sol\":218:237  msg.sender == owner */\n      0xffffffffffffffffffffffffffffffffffffffff\n      and\n      eq\n        /* \"contracts/ProposalContract.sol\":210:238  require(msg.sender == owner) */\n      tag_108\n      jumpi\n      0x00\n      dup1\n      revert\n    tag_108:\n        /* \"contracts/ProposalContract.sol\":338:342  true */\n      0x01\n        /* \"contracts/ProposalContract.sol\":299:342  proposal_history[counter].is_active == true */\n      iszero\n      iszero\n        /* \"contracts/ProposalContract.sol\":299:315  proposal_history */\n      0x03\n        /* \"contracts/ProposalContract.sol\":299:324  proposal_history[counter] */\n      0x00\n        /* \"contracts/ProposalContract.sol\":316:323  counter */\n      sload(0x01)\n        /* \"contracts/ProposalContract.sol\":299:324  proposal_history[counter] */\n      dup2\n      mstore\n      0x20\n      add\n      swap1\n      dup2\n      mstore\n      0x20\n      add\n      0x00\n      keccak256\n        /* \"contracts/ProposalContract.sol\":299:334  proposal_history[counter].is_active */\n      0x05\n      add\n      0x01\n      swap1\n      sload\n      swap1\n      0x0100\n      exp\n      swap1\n      div\n      0xff\n      and\n        /* \"contracts/ProposalContract.sol\":299:342  proposal_history[counter].is_active == true */\n      iszero\n      iszero\n      eq\n        /* \"contracts/ProposalContract.sol\":291:373  require(proposal_history[counter].is_active == true, \"The proposal is not active\") */\n      tag_110\n      jumpi\n      mload(0x40)\n      0x08c379a000000000000000000000000000000000000000000000000000000000\n      dup2\n      mstore\n      0x04\n      add\n      tag_111\n      swap1\n      tag_63\n      jump\t// in\n    tag_111:\n      mload(0x40)\n      dup1\n      swap2\n      sub\n      swap1\n      revert\n    tag_110:\n        /* \"contracts/ProposalContract.sol\":500:505  false */\n      0x00\n        /* \"contracts/ProposalContract.sol\":462:478  proposal_history */\n      0x03\n        /* \"contracts/ProposalContract.sol\":462:487  proposal_history[counter] */\n      0x00\n        /* \"contracts/ProposalContract.sol\":479:486  counter */\n      sload(0x01)\n        /* \"contracts/ProposalContract.sol\":462:487  proposal_history[counter] */\n      dup2\n      mstore\n      0x20\n      add\n      swap1\n      dup2\n      mstore\n      0x20\n      add\n      0x00\n      keccak256\n        /* \"contracts/ProposalContract.sol\":462:497  proposal_history[counter].is_active */\n      0x05\n      add\n      0x01\n        /* \"contracts/ProposalContract.sol\":462:505  proposal_history[counter].is_active = false */\n      0x0100\n      exp\n      dup2\n      sload\n      dup2\n      0xff\n      mul\n      not\n      and\n      swap1\n      dup4\n      iszero\n      iszero\n      mul\n      or\n      swap1\n      sstore\n      pop\n        /* \"contracts/ProposalContract.sol\":397:512  function terminateProposal() external onlyOwner active {... */\n      jump\t// out\n        /* \"contracts/ProposalContract.sol\":2625:3099  function calculateCurrentState() private view returns(bool) {... */\n    tag_76:\n        /* \"contracts/ProposalContract.sol\":2679:2683  bool */\n      0x00\n        /* \"contracts/ProposalContract.sol\":2696:2721  Proposal storage proposal */\n      dup1\n        /* \"contracts/ProposalContract.sol\":2724:2740  proposal_history */\n      0x03\n        /* \"contracts/ProposalContract.sol\":2724:2749  proposal_history[counter] */\n      0x00\n        /* \"contracts/ProposalContract.sol\":2741:2748  counter */\n      sload(0x01)\n        /* \"contracts/ProposalContract.sol\":2724:2749  proposal_history[counter] */\n      dup2\n      mstore\n      0x20\n      add\n      swap1\n      dup2\n      mstore\n      0x20\n      add\n      0x00\n      keccak256\n        /* \"contracts/ProposalContract.sol\":2696:2749  Proposal storage proposal = proposal_history[counter] */\n      swap1\n      pop\n        /* \"contracts/ProposalContract.sol\":2760:2775  uint256 approve */\n      0x00\n        /* \"contracts/ProposalContract.sol\":2778:2786  proposal */\n      dup2\n        /* \"contracts/ProposalContract.sol\":2778:2794  proposal.approve */\n      0x01\n      add\n      sload\n        /* \"contracts/ProposalContract.sol\":2760:2794  uint256 approve = proposal.approve */\n      swap1\n      pop\n        /* \"contracts/ProposalContract.sol\":2804:2818  uint256 reject */\n      0x00\n        /* \"contracts/ProposalContract.sol\":2822:2830  proposal */\n      dup3\n        /* \"contracts/ProposalContract.sol\":2822:2837  proposal.reject */\n      0x02\n      add\n      sload\n        /* \"contracts/ProposalContract.sol\":2804:2837  uint256 reject  = proposal.reject */\n      swap1\n      pop\n        /* \"contracts/ProposalContract.sol\":2847:2859  uint256 pass */\n      0x00\n        /* \"contracts/ProposalContract.sol\":2865:2873  proposal */\n      dup4\n        /* \"contracts/ProposalContract.sol\":2865:2878  proposal.pass */\n      0x03\n      add\n      sload\n        /* \"contracts/ProposalContract.sol\":2847:2878  uint256 pass    = proposal.pass */\n      swap1\n      pop\n        /* \"contracts/ProposalContract.sol\":2913:2914  1 */\n      0x01\n        /* \"contracts/ProposalContract.sol\":2908:2909  2 */\n      0x02\n        /* \"contracts/ProposalContract.sol\":2893:2901  proposal */\n      dup6\n        /* \"contracts/ProposalContract.sol\":2893:2906  proposal.pass */\n      0x03\n      add\n      sload\n        /* \"contracts/ProposalContract.sol\":2893:2909  proposal.pass %2 */\n      tag_114\n      swap2\n      swap1\n      tag_115\n      jump\t// in\n    tag_114:\n        /* \"contracts/ProposalContract.sol\":2893:2914  proposal.pass %2 == 1 */\n      sub\n        /* \"contracts/ProposalContract.sol\":2889:2949  if (proposal.pass %2 == 1){... */\n      tag_116\n      jumpi\n        /* \"contracts/ProposalContract.sol\":2937:2938  1 */\n      0x01\n        /* \"contracts/ProposalContract.sol\":2929:2938  pass += 1 */\n      dup2\n      tag_117\n      swap2\n      swap1\n      tag_57\n      jump\t// in\n    tag_117:\n      swap1\n      pop\n        /* \"contracts/ProposalContract.sol\":2889:2949  if (proposal.pass %2 == 1){... */\n    tag_116:\n        /* \"contracts/ProposalContract.sol\":2973:2974  2 */\n      0x02\n        /* \"contracts/ProposalContract.sol\":2966:2970  pass */\n      dup2\n        /* \"contracts/ProposalContract.sol\":2966:2974  pass / 2 */\n      tag_118\n      swap2\n      swap1\n      tag_119\n      jump\t// in\n    tag_118:\n        /* \"contracts/ProposalContract.sol\":2959:2974  pass = pass / 2 */\n      swap1\n      pop\n        /* \"contracts/ProposalContract.sol\":3008:3012  pass */\n      dup1\n        /* \"contracts/ProposalContract.sol\":2999:3005  reject */\n      dup3\n        /* \"contracts/ProposalContract.sol\":2999:3012  reject + pass */\n      tag_120\n      swap2\n      swap1\n      tag_57\n      jump\t// in\n    tag_120:\n        /* \"contracts/ProposalContract.sol\":2989:2996  approve */\n      dup4\n        /* \"contracts/ProposalContract.sol\":2989:3012  approve > reject + pass */\n      gt\n        /* \"contracts/ProposalContract.sol\":2985:3093  if (approve > reject + pass) {... */\n      iszero\n      tag_121\n      jumpi\n        /* \"contracts/ProposalContract.sol\":3035:3039  true */\n      0x01\n        /* \"contracts/ProposalContract.sol\":3028:3039  return true */\n      swap5\n      pop\n      pop\n      pop\n      pop\n      pop\n      jump(tag_113)\n        /* \"contracts/ProposalContract.sol\":2985:3093  if (approve > reject + pass) {... */\n    tag_121:\n        /* \"contracts/ProposalContract.sol\":3077:3082  false */\n      0x00\n        /* \"contracts/ProposalContract.sol\":3070:3082  return false */\n      swap5\n      pop\n      pop\n      pop\n      pop\n      pop\n        /* \"contracts/ProposalContract.sol\":2625:3099  function calculateCurrentState() private view returns(bool) {... */\n    tag_113:\n      swap1\n      jump\t// out\n    tag_43:\n      dup3\n      dup1\n      sload\n      dup3\n      dup3\n      sstore\n      swap1\n      0x00\n      mstore\n      keccak256(0x00, 0x20)\n      swap1\n      dup2\n      add\n      swap3\n      dup3\n      iszero\n      tag_123\n      jumpi\n      swap2\n      0x20\n      mul\n      dup3\n      add\n    tag_124:\n      dup3\n      dup2\n      gt\n      iszero\n      tag_125\n      jumpi\n      dup3\n      mload\n      dup3\n      exp(0x0100, 0x00)\n      dup2\n      sload\n      dup2\n      0xffffffffffffffffffffffffffffffffffffffff\n      mul\n      not\n      and\n      swap1\n      dup4\n      0xffffffffffffffffffffffffffffffffffffffff\n      and\n      mul\n      or\n      swap1\n      sstore\n      pop\n      swap2\n      0x20\n      add\n      swap2\n      swap1\n      0x01\n      add\n      swap1\n      jump(tag_124)\n    tag_125:\n    tag_123:\n      pop\n      swap1\n      pop\n      tag_126\n      swap2\n      swap1\n      tag_127\n      jump\t// in\n    tag_126:\n      pop\n      swap1\n      jump\t// out\n    tag_45:\n      mload(0x40)\n      dup1\n      0xe0\n      add\n      0x40\n      mstore\n      dup1\n      0x60\n      dup2\n      mstore\n      0x20\n      add\n      0x00\n      dup2\n      mstore\n      0x20\n      add\n      0x00\n      dup2\n      mstore\n      0x20\n      add\n      0x00\n      dup2\n      mstore\n      0x20\n      add\n      0x00\n      dup2\n      mstore\n      0x20\n      add\n      iszero(iszero(0x00))\n      dup2\n      mstore\n      0x20\n      add\n      iszero(iszero(0x00))\n      dup2\n      mstore\n      pop\n      swap1\n      jump\t// out\n    tag_127:\n    tag_128:\n      dup1\n      dup3\n      gt\n      iszero\n      tag_129\n      jumpi\n      0x00\n      dup2\n      0x00\n      swap1\n      sstore\n      pop\n      0x01\n      add\n      jump(tag_128)\n    tag_129:\n      pop\n      swap1\n      jump\t// out\n        /* \"#utility.yul\":88:205   */\n    tag_131:\n        /* \"#utility.yul\":197:198   */\n      0x00\n        /* \"#utility.yul\":194:195   */\n      dup1\n        /* \"#utility.yul\":187:199   */\n      revert\n        /* \"#utility.yul\":211:328   */\n    tag_132:\n        /* \"#utility.yul\":320:321   */\n      0x00\n        /* \"#utility.yul\":317:318   */\n      dup1\n        /* \"#utility.yul\":310:322   */\n      revert\n        /* \"#utility.yul\":334:460   */\n    tag_133:\n        /* \"#utility.yul\":371:378   */\n      0x00\n        /* \"#utility.yul\":411:453   */\n      0xffffffffffffffffffffffffffffffffffffffff\n        /* \"#utility.yul\":404:409   */\n      dup3\n        /* \"#utility.yul\":400:454   */\n      and\n        /* \"#utility.yul\":389:454   */\n      swap1\n      pop\n        /* \"#utility.yul\":334:460   */\n      swap2\n      swap1\n      pop\n      jump\t// out\n        /* \"#utility.yul\":466:562   */\n    tag_134:\n        /* \"#utility.yul\":503:510   */\n      0x00\n        /* \"#utility.yul\":532:556   */\n      tag_187\n        /* \"#utility.yul\":550:555   */\n      dup3\n        /* \"#utility.yul\":532:556   */\n      tag_133\n      jump\t// in\n    tag_187:\n        /* \"#utility.yul\":521:556   */\n      swap1\n      pop\n        /* \"#utility.yul\":466:562   */\n      swap2\n      swap1\n      pop\n      jump\t// out\n        /* \"#utility.yul\":568:690   */\n    tag_135:\n        /* \"#utility.yul\":641:665   */\n      tag_189\n        /* \"#utility.yul\":659:664   */\n      dup2\n        /* \"#utility.yul\":641:665   */\n      tag_134\n      jump\t// in\n    tag_189:\n        /* \"#utility.yul\":634:639   */\n      dup2\n        /* \"#utility.yul\":631:666   */\n      eq\n        /* \"#utility.yul\":621:684   */\n      tag_190\n      jumpi\n        /* \"#utility.yul\":680:681   */\n      0x00\n        /* \"#utility.yul\":677:678   */\n      dup1\n        /* \"#utility.yul\":670:682   */\n      revert\n        /* \"#utility.yul\":621:684   */\n    tag_190:\n        /* \"#utility.yul\":568:690   */\n      pop\n      jump\t// out\n        /* \"#utility.yul\":696:835   */\n    tag_136:\n        /* \"#utility.yul\":742:747   */\n      0x00\n        /* \"#utility.yul\":780:786   */\n      dup2\n        /* \"#utility.yul\":767:787   */\n      calldataload\n        /* \"#utility.yul\":758:787   */\n      swap1\n      pop\n        /* \"#utility.yul\":796:829   */\n      tag_192\n        /* \"#utility.yul\":823:828   */\n      dup2\n        /* \"#utility.yul\":796:829   */\n      tag_135\n      jump\t// in\n    tag_192:\n        /* \"#utility.yul\":696:835   */\n      swap3\n      swap2\n      pop\n      pop\n      jump\t// out\n        /* \"#utility.yul\":841:1170   */\n    tag_13:\n        /* \"#utility.yul\":900:906   */\n      0x00\n        /* \"#utility.yul\":949:951   */\n      0x20\n        /* \"#utility.yul\":937:946   */\n      dup3\n        /* \"#utility.yul\":928:935   */\n      dup5\n        /* \"#utility.yul\":924:947   */\n      sub\n        /* \"#utility.yul\":920:952   */\n      slt\n        /* \"#utility.yul\":917:1036   */\n      iszero\n      tag_194\n      jumpi\n        /* \"#utility.yul\":955:1034   */\n      tag_195\n      tag_131\n      jump\t// in\n    tag_195:\n        /* \"#utility.yul\":917:1036   */\n    tag_194:\n        /* \"#utility.yul\":1075:1076   */\n      0x00\n        /* \"#utility.yul\":1100:1153   */\n      tag_196\n        /* \"#utility.yul\":1145:1152   */\n      dup5\n        /* \"#utility.yul\":1136:1142   */\n      dup3\n        /* \"#utility.yul\":1125:1134   */\n      dup6\n        /* \"#utility.yul\":1121:1143   */\n      add\n        /* \"#utility.yul\":1100:1153   */\n      tag_136\n      jump\t// in\n    tag_196:\n        /* \"#utility.yul\":1090:1153   */\n      swap2\n      pop\n        /* \"#utility.yul\":1046:1163   */\n      pop\n        /* \"#utility.yul\":841:1170   */\n      swap3\n      swap2\n      pop\n      pop\n      jump\t// out\n        /* \"#utility.yul\":1176:1275   */\n    tag_137:\n        /* \"#utility.yul\":1228:1234   */\n      0x00\n        /* \"#utility.yul\":1262:1267   */\n      dup2\n        /* \"#utility.yul\":1256:1268   */\n      mload\n        /* \"#utility.yul\":1246:1268   */\n      swap1\n      pop\n        /* \"#utility.yul\":1176:1275   */\n      swap2\n      swap1\n      pop\n      jump\t// out\n        /* \"#utility.yul\":1281:1440   */\n    tag_138:\n        /* \"#utility.yul\":1355:1366   */\n      0x00\n        /* \"#utility.yul\":1389:1395   */\n      dup3\n        /* \"#utility.yul\":1384:1387   */\n      dup3\n        /* \"#utility.yul\":1377:1396   */\n      mstore\n        /* \"#utility.yul\":1429:1433   */\n      0x20\n        /* \"#utility.yul\":1424:1427   */\n      dup3\n        /* \"#utility.yul\":1420:1434   */\n      add\n        /* \"#utility.yul\":1405:1434   */\n      swap1\n      pop\n        /* \"#utility.yul\":1281:1440   */\n      swap3\n      swap2\n      pop\n      pop\n      jump\t// out\n        /* \"#utility.yul\":1446:1585   */\n    tag_139:\n        /* \"#utility.yul\":1535:1541   */\n      dup3\n        /* \"#utility.yul\":1530:1533   */\n      dup2\n        /* \"#utility.yul\":1525:1528   */\n      dup4\n        /* \"#utility.yul\":1519:1542   */\n      mcopy\n        /* \"#utility.yul\":1576:1577   */\n      0x00\n        /* \"#utility.yul\":1567:1573   */\n      dup4\n        /* \"#utility.yul\":1562:1565   */\n      dup4\n        /* \"#utility.yul\":1558:1574   */\n      add\n        /* \"#utility.yul\":1551:1578   */\n      mstore\n        /* \"#utility.yul\":1446:1585   */\n      pop\n      pop\n      pop\n      jump\t// out\n        /* \"#utility.yul\":1591:1693   */\n    tag_140:\n        /* \"#utility.yul\":1632:1638   */\n      0x00\n        /* \"#utility.yul\":1683:1685   */\n      0x1f\n        /* \"#utility.yul\":1679:1686   */\n      not\n        /* \"#utility.yul\":1674:1676   */\n      0x1f\n        /* \"#utility.yul\":1667:1672   */\n      dup4\n        /* \"#utility.yul\":1663:1677   */\n      add\n        /* \"#utility.yul\":1659:1687   */\n      and\n        /* \"#utility.yul\":1649:1687   */\n      swap1\n      pop\n        /* \"#utility.yul\":1591:1693   */\n      swap2\n      swap1\n      pop\n      jump\t// out\n        /* \"#utility.yul\":1699:2056   */\n    tag_141:\n        /* \"#utility.yul\":1777:1780   */\n      0x00\n        /* \"#utility.yul\":1805:1844   */\n      tag_202\n        /* \"#utility.yul\":1838:1843   */\n      dup3\n        /* \"#utility.yul\":1805:1844   */\n      tag_137\n      jump\t// in\n    tag_202:\n        /* \"#utility.yul\":1860:1921   */\n      tag_203\n        /* \"#utility.yul\":1914:1920   */\n      dup2\n        /* \"#utility.yul\":1909:1912   */\n      dup6\n        /* \"#utility.yul\":1860:1921   */\n      tag_138\n      jump\t// in\n    tag_203:\n        /* \"#utility.yul\":1853:1921   */\n      swap4\n      pop\n        /* \"#utility.yul\":1930:1995   */\n      tag_204\n        /* \"#utility.yul\":1988:1994   */\n      dup2\n        /* \"#utility.yul\":1983:1986   */\n      dup6\n        /* \"#utility.yul\":1976:1980   */\n      0x20\n        /* \"#utility.yul\":1969:1974   */\n      dup7\n        /* \"#utility.yul\":1965:1981   */\n      add\n        /* \"#utility.yul\":1930:1995   */\n      tag_139\n      jump\t// in\n    tag_204:\n        /* \"#utility.yul\":2020:2049   */\n      tag_205\n        /* \"#utility.yul\":2042:2048   */\n      dup2\n        /* \"#utility.yul\":2020:2049   */\n      tag_140\n      jump\t// in\n    tag_205:\n        /* \"#utility.yul\":2015:2018   */\n      dup5\n        /* \"#utility.yul\":2011:2050   */\n      add\n        /* \"#utility.yul\":2004:2050   */\n      swap2\n      pop\n        /* \"#utility.yul\":1781:2056   */\n      pop\n        /* \"#utility.yul\":1699:2056   */\n      swap3\n      swap2\n      pop\n      pop\n      jump\t// out\n        /* \"#utility.yul\":2062:2139   */\n    tag_142:\n        /* \"#utility.yul\":2099:2106   */\n      0x00\n        /* \"#utility.yul\":2128:2133   */\n      dup2\n        /* \"#utility.yul\":2117:2133   */\n      swap1\n      pop\n        /* \"#utility.yul\":2062:2139   */\n      swap2\n      swap1\n      pop\n      jump\t// out\n        /* \"#utility.yul\":2145:2253   */\n    tag_143:\n        /* \"#utility.yul\":2222:2246   */\n      tag_208\n        /* \"#utility.yul\":2240:2245   */\n      dup2\n        /* \"#utility.yul\":2222:2246   */\n      tag_142\n      jump\t// in\n    tag_208:\n        /* \"#utility.yul\":2217:2220   */\n      dup3\n        /* \"#utility.yul\":2210:2247   */\n      mstore\n        /* \"#utility.yul\":2145:2253   */\n      pop\n      pop\n      jump\t// out\n        /* \"#utility.yul\":2259:2349   */\n    tag_144:\n        /* \"#utility.yul\":2293:2300   */\n      0x00\n        /* \"#utility.yul\":2336:2341   */\n      dup2\n        /* \"#utility.yul\":2329:2342   */\n      iszero\n        /* \"#utility.yul\":2322:2343   */\n      iszero\n        /* \"#utility.yul\":2311:2343   */\n      swap1\n      pop\n        /* \"#utility.yul\":2259:2349   */\n      swap2\n      swap1\n      pop\n      jump\t// out\n        /* \"#utility.yul\":2355:2454   */\n    tag_145:\n        /* \"#utility.yul\":2426:2447   */\n      tag_211\n        /* \"#utility.yul\":2441:2446   */\n      dup2\n        /* \"#utility.yul\":2426:2447   */\n      tag_144\n      jump\t// in\n    tag_211:\n        /* \"#utility.yul\":2421:2424   */\n      dup3\n        /* \"#utility.yul\":2414:2448   */\n      mstore\n        /* \"#utility.yul\":2355:2454   */\n      pop\n      pop\n      jump\t// out\n        /* \"#utility.yul\":2536:4037   */\n    tag_146:\n        /* \"#utility.yul\":2653:2656   */\n      0x00\n        /* \"#utility.yul\":2689:2693   */\n      0xe0\n        /* \"#utility.yul\":2684:2687   */\n      dup4\n        /* \"#utility.yul\":2680:2694   */\n      add\n        /* \"#utility.yul\":2783:2787   */\n      0x00\n        /* \"#utility.yul\":2776:2781   */\n      dup4\n        /* \"#utility.yul\":2772:2788   */\n      add\n        /* \"#utility.yul\":2766:2789   */\n      mload\n        /* \"#utility.yul\":2836:2839   */\n      dup5\n        /* \"#utility.yul\":2830:2834   */\n      dup3\n        /* \"#utility.yul\":2826:2840   */\n      sub\n        /* \"#utility.yul\":2819:2823   */\n      0x00\n        /* \"#utility.yul\":2814:2817   */\n      dup7\n        /* \"#utility.yul\":2810:2824   */\n      add\n        /* \"#utility.yul\":2803:2841   */\n      mstore\n        /* \"#utility.yul\":2862:2935   */\n      tag_213\n        /* \"#utility.yul\":2930:2934   */\n      dup3\n        /* \"#utility.yul\":2916:2928   */\n      dup3\n        /* \"#utility.yul\":2862:2935   */\n      tag_141\n      jump\t// in\n    tag_213:\n        /* \"#utility.yul\":2854:2935   */\n      swap2\n      pop\n        /* \"#utility.yul\":2704:2946   */\n      pop\n        /* \"#utility.yul\":3031:3035   */\n      0x20\n        /* \"#utility.yul\":3024:3029   */\n      dup4\n        /* \"#utility.yul\":3020:3036   */\n      add\n        /* \"#utility.yul\":3014:3037   */\n      mload\n        /* \"#utility.yul\":3050:3113   */\n      tag_214\n        /* \"#utility.yul\":3107:3111   */\n      0x20\n        /* \"#utility.yul\":3102:3105   */\n      dup7\n        /* \"#utility.yul\":3098:3112   */\n      add\n        /* \"#utility.yul\":3084:3096   */\n      dup3\n        /* \"#utility.yul\":3050:3113   */\n      tag_143\n      jump\t// in\n    tag_214:\n        /* \"#utility.yul\":2956:3123   */\n      pop\n        /* \"#utility.yul\":3207:3211   */\n      0x40\n        /* \"#utility.yul\":3200:3205   */\n      dup4\n        /* \"#utility.yul\":3196:3212   */\n      add\n        /* \"#utility.yul\":3190:3213   */\n      mload\n        /* \"#utility.yul\":3226:3289   */\n      tag_215\n        /* \"#utility.yul\":3283:3287   */\n      0x40\n        /* \"#utility.yul\":3278:3281   */\n      dup7\n        /* \"#utility.yul\":3274:3288   */\n      add\n        /* \"#utility.yul\":3260:3272   */\n      dup3\n        /* \"#utility.yul\":3226:3289   */\n      tag_143\n      jump\t// in\n    tag_215:\n        /* \"#utility.yul\":3133:3299   */\n      pop\n        /* \"#utility.yul\":3381:3385   */\n      0x60\n        /* \"#utility.yul\":3374:3379   */\n      dup4\n        /* \"#utility.yul\":3370:3386   */\n      add\n        /* \"#utility.yul\":3364:3387   */\n      mload\n        /* \"#utility.yul\":3400:3463   */\n      tag_216\n        /* \"#utility.yul\":3457:3461   */\n      0x60\n        /* \"#utility.yul\":3452:3455   */\n      dup7\n        /* \"#utility.yul\":3448:3462   */\n      add\n        /* \"#utility.yul\":3434:3446   */\n      dup3\n        /* \"#utility.yul\":3400:3463   */\n      tag_143\n      jump\t// in\n    tag_216:\n        /* \"#utility.yul\":3309:3473   */\n      pop\n        /* \"#utility.yul\":3568:3572   */\n      0x80\n        /* \"#utility.yul\":3561:3566   */\n      dup4\n        /* \"#utility.yul\":3557:3573   */\n      add\n        /* \"#utility.yul\":3551:3574   */\n      mload\n        /* \"#utility.yul\":3587:3650   */\n      tag_217\n        /* \"#utility.yul\":3644:3648   */\n      0x80\n        /* \"#utility.yul\":3639:3642   */\n      dup7\n        /* \"#utility.yul\":3635:3649   */\n      add\n        /* \"#utility.yul\":3621:3633   */\n      dup3\n        /* \"#utility.yul\":3587:3650   */\n      tag_143\n      jump\t// in\n    tag_217:\n        /* \"#utility.yul\":3483:3660   */\n      pop\n        /* \"#utility.yul\":3751:3755   */\n      0xa0\n        /* \"#utility.yul\":3744:3749   */\n      dup4\n        /* \"#utility.yul\":3740:3756   */\n      add\n        /* \"#utility.yul\":3734:3757   */\n      mload\n        /* \"#utility.yul\":3770:3827   */\n      tag_218\n        /* \"#utility.yul\":3821:3825   */\n      0xa0\n        /* \"#utility.yul\":3816:3819   */\n      dup7\n        /* \"#utility.yul\":3812:3826   */\n      add\n        /* \"#utility.yul\":3798:3810   */\n      dup3\n        /* \"#utility.yul\":3770:3827   */\n      tag_145\n      jump\t// in\n    tag_218:\n        /* \"#utility.yul\":3670:3837   */\n      pop\n        /* \"#utility.yul\":3924:3928   */\n      0xc0\n        /* \"#utility.yul\":3917:3922   */\n      dup4\n        /* \"#utility.yul\":3913:3929   */\n      add\n        /* \"#utility.yul\":3907:3930   */\n      mload\n        /* \"#utility.yul\":3943:4000   */\n      tag_219\n        /* \"#utility.yul\":3994:3998   */\n      0xc0\n        /* \"#utility.yul\":3989:3992   */\n      dup7\n        /* \"#utility.yul\":3985:3999   */\n      add\n        /* \"#utility.yul\":3971:3983   */\n      dup3\n        /* \"#utility.yul\":3943:4000   */\n      tag_145\n      jump\t// in\n    tag_219:\n        /* \"#utility.yul\":3847:4010   */\n      pop\n        /* \"#utility.yul\":4027:4031   */\n      dup1\n        /* \"#utility.yul\":4020:4031   */\n      swap2\n      pop\n        /* \"#utility.yul\":2658:4037   */\n      pop\n        /* \"#utility.yul\":2536:4037   */\n      swap3\n      swap2\n      pop\n      pop\n      jump\t// out\n        /* \"#utility.yul\":4043:4412   */\n    tag_18:\n        /* \"#utility.yul\":4184:4188   */\n      0x00\n        /* \"#utility.yul\":4222:4224   */\n      0x20\n        /* \"#utility.yul\":4211:4220   */\n      dup3\n        /* \"#utility.yul\":4207:4225   */\n      add\n        /* \"#utility.yul\":4199:4225   */\n      swap1\n      pop\n        /* \"#utility.yul\":4271:4280   */\n      dup2\n        /* \"#utility.yul\":4265:4269   */\n      dup2\n        /* \"#utility.yul\":4261:4281   */\n      sub\n        /* \"#utility.yul\":4257:4258   */\n      0x00\n        /* \"#utility.yul\":4246:4255   */\n      dup4\n        /* \"#utility.yul\":4242:4259   */\n      add\n        /* \"#utility.yul\":4235:4282   */\n      mstore\n        /* \"#utility.yul\":4299:4405   */\n      tag_221\n        /* \"#utility.yul\":4400:4404   */\n      dup2\n        /* \"#utility.yul\":4391:4397   */\n      dup5\n        /* \"#utility.yul\":4299:4405   */\n      tag_146\n      jump\t// in\n    tag_221:\n        /* \"#utility.yul\":4291:4405   */\n      swap1\n      pop\n        /* \"#utility.yul\":4043:4412   */\n      swap3\n      swap2\n      pop\n      pop\n      jump\t// out\n        /* \"#utility.yul\":4418:4535   */\n    tag_147:\n        /* \"#utility.yul\":4527:4528   */\n      0x00\n        /* \"#utility.yul\":4524:4525   */\n      dup1\n        /* \"#utility.yul\":4517:4529   */\n      revert\n        /* \"#utility.yul\":4541:4658   */\n    tag_148:\n        /* \"#utility.yul\":4650:4651   */\n      0x00\n        /* \"#utility.yul\":4647:4648   */\n      dup1\n        /* \"#utility.yul\":4640:4652   */\n      revert\n        /* \"#utility.yul\":4664:4781   */\n    tag_149:\n        /* \"#utility.yul\":4773:4774   */\n      0x00\n        /* \"#utility.yul\":4770:4771   */\n      dup1\n        /* \"#utility.yul\":4763:4775   */\n      revert\n        /* \"#utility.yul\":4801:5354   */\n    tag_150:\n        /* \"#utility.yul\":4859:4867   */\n      0x00\n        /* \"#utility.yul\":4869:4875   */\n      dup1\n        /* \"#utility.yul\":4919:4922   */\n      dup4\n        /* \"#utility.yul\":4912:4916   */\n      0x1f\n        /* \"#utility.yul\":4904:4910   */\n      dup5\n        /* \"#utility.yul\":4900:4917   */\n      add\n        /* \"#utility.yul\":4896:4923   */\n      slt\n        /* \"#utility.yul\":4886:5008   */\n      tag_226\n      jumpi\n        /* \"#utility.yul\":4927:5006   */\n      tag_227\n      tag_147\n      jump\t// in\n    tag_227:\n        /* \"#utility.yul\":4886:5008   */\n    tag_226:\n        /* \"#utility.yul\":5040:5046   */\n      dup3\n        /* \"#utility.yul\":5027:5047   */\n      calldataload\n        /* \"#utility.yul\":5017:5047   */\n      swap1\n      pop\n        /* \"#utility.yul\":5070:5088   */\n      0xffffffffffffffff\n        /* \"#utility.yul\":5062:5068   */\n      dup2\n        /* \"#utility.yul\":5059:5089   */\n      gt\n        /* \"#utility.yul\":5056:5173   */\n      iszero\n      tag_228\n      jumpi\n        /* \"#utility.yul\":5092:5171   */\n      tag_229\n      tag_148\n      jump\t// in\n    tag_229:\n        /* \"#utility.yul\":5056:5173   */\n    tag_228:\n        /* \"#utility.yul\":5206:5210   */\n      0x20\n        /* \"#utility.yul\":5198:5204   */\n      dup4\n        /* \"#utility.yul\":5194:5211   */\n      add\n        /* \"#utility.yul\":5182:5211   */\n      swap2\n      pop\n        /* \"#utility.yul\":5260:5263   */\n      dup4\n        /* \"#utility.yul\":5252:5256   */\n      0x01\n        /* \"#utility.yul\":5244:5250   */\n      dup3\n        /* \"#utility.yul\":5240:5257   */\n      mul\n        /* \"#utility.yul\":5230:5238   */\n      dup4\n        /* \"#utility.yul\":5226:5258   */\n      add\n        /* \"#utility.yul\":5223:5264   */\n      gt\n        /* \"#utility.yul\":5220:5348   */\n      iszero\n      tag_230\n      jumpi\n        /* \"#utility.yul\":5267:5346   */\n      tag_231\n      tag_149\n      jump\t// in\n    tag_231:\n        /* \"#utility.yul\":5220:5348   */\n    tag_230:\n        /* \"#utility.yul\":4801:5354   */\n      swap3\n      pop\n      swap3\n      swap1\n      pop\n      jump\t// out\n        /* \"#utility.yul\":5360:5482   */\n    tag_151:\n        /* \"#utility.yul\":5433:5457   */\n      tag_233\n        /* \"#utility.yul\":5451:5456   */\n      dup2\n        /* \"#utility.yul\":5433:5457   */\n      tag_142\n      jump\t// in\n    tag_233:\n        /* \"#utility.yul\":5426:5431   */\n      dup2\n        /* \"#utility.yul\":5423:5458   */\n      eq\n        /* \"#utility.yul\":5413:5476   */\n      tag_234\n      jumpi\n        /* \"#utility.yul\":5472:5473   */\n      0x00\n        /* \"#utility.yul\":5469:5470   */\n      dup1\n        /* \"#utility.yul\":5462:5474   */\n      revert\n        /* \"#utility.yul\":5413:5476   */\n    tag_234:\n        /* \"#utility.yul\":5360:5482   */\n      pop\n      jump\t// out\n        /* \"#utility.yul\":5488:5627   */\n    tag_152:\n        /* \"#utility.yul\":5534:5539   */\n      0x00\n        /* \"#utility.yul\":5572:5578   */\n      dup2\n        /* \"#utility.yul\":5559:5579   */\n      calldataload\n        /* \"#utility.yul\":5550:5579   */\n      swap1\n      pop\n        /* \"#utility.yul\":5588:5621   */\n      tag_236\n        /* \"#utility.yul\":5615:5620   */\n      dup2\n        /* \"#utility.yul\":5588:5621   */\n      tag_151\n      jump\t// in\n    tag_236:\n        /* \"#utility.yul\":5488:5627   */\n      swap3\n      swap2\n      pop\n      pop\n      jump\t// out\n        /* \"#utility.yul\":5633:6307   */\n    tag_21:\n        /* \"#utility.yul\":5713:5719   */\n      0x00\n        /* \"#utility.yul\":5721:5727   */\n      dup1\n        /* \"#utility.yul\":5729:5735   */\n      0x00\n        /* \"#utility.yul\":5778:5780   */\n      0x40\n        /* \"#utility.yul\":5766:5775   */\n      dup5\n        /* \"#utility.yul\":5757:5764   */\n      dup7\n        /* \"#utility.yul\":5753:5776   */\n      sub\n        /* \"#utility.yul\":5749:5781   */\n      slt\n        /* \"#utility.yul\":5746:5865   */\n      iszero\n      tag_238\n      jumpi\n        /* \"#utility.yul\":5784:5863   */\n      tag_239\n      tag_131\n      jump\t// in\n    tag_239:\n        /* \"#utility.yul\":5746:5865   */\n    tag_238:\n        /* \"#utility.yul\":5932:5933   */\n      0x00\n        /* \"#utility.yul\":5921:5930   */\n      dup5\n        /* \"#utility.yul\":5917:5934   */\n      add\n        /* \"#utility.yul\":5904:5935   */\n      calldataload\n        /* \"#utility.yul\":5962:5980   */\n      0xffffffffffffffff\n        /* \"#utility.yul\":5954:5960   */\n      dup2\n        /* \"#utility.yul\":5951:5981   */\n      gt\n        /* \"#utility.yul\":5948:6065   */\n      iszero\n      tag_240\n      jumpi\n        /* \"#utility.yul\":5984:6063   */\n      tag_241\n      tag_132\n      jump\t// in\n    tag_241:\n        /* \"#utility.yul\":5948:6065   */\n    tag_240:\n        /* \"#utility.yul\":6097:6162   */\n      tag_242\n        /* \"#utility.yul\":6154:6161   */\n      dup7\n        /* \"#utility.yul\":6145:6151   */\n      dup3\n        /* \"#utility.yul\":6134:6143   */\n      dup8\n        /* \"#utility.yul\":6130:6152   */\n      add\n        /* \"#utility.yul\":6097:6162   */\n      tag_150\n      jump\t// in\n    tag_242:\n        /* \"#utility.yul\":6079:6162   */\n      swap4\n      pop\n      swap4\n      pop\n        /* \"#utility.yul\":5875:6172   */\n      pop\n        /* \"#utility.yul\":6211:6213   */\n      0x20\n        /* \"#utility.yul\":6237:6290   */\n      tag_243\n        /* \"#utility.yul\":6282:6289   */\n      dup7\n        /* \"#utility.yul\":6273:6279   */\n      dup3\n        /* \"#utility.yul\":6262:6271   */\n      dup8\n        /* \"#utility.yul\":6258:6280   */\n      add\n        /* \"#utility.yul\":6237:6290   */\n      tag_152\n      jump\t// in\n    tag_243:\n        /* \"#utility.yul\":6227:6290   */\n      swap2\n      pop\n        /* \"#utility.yul\":6182:6300   */\n      pop\n        /* \"#utility.yul\":5633:6307   */\n      swap3\n      pop\n      swap3\n      pop\n      swap3\n      jump\t// out\n        /* \"#utility.yul\":6313:6399   */\n    tag_153:\n        /* \"#utility.yul\":6348:6355   */\n      0x00\n        /* \"#utility.yul\":6388:6392   */\n      0xff\n        /* \"#utility.yul\":6381:6386   */\n      dup3\n        /* \"#utility.yul\":6377:6393   */\n      and\n        /* \"#utility.yul\":6366:6393   */\n      swap1\n      pop\n        /* \"#utility.yul\":6313:6399   */\n      swap2\n      swap1\n      pop\n      jump\t// out\n        /* \"#utility.yul\":6405:6523   */\n    tag_154:\n        /* \"#utility.yul\":6476:6498   */\n      tag_246\n        /* \"#utility.yul\":6492:6497   */\n      dup2\n        /* \"#utility.yul\":6476:6498   */\n      tag_153\n      jump\t// in\n    tag_246:\n        /* \"#utility.yul\":6469:6474   */\n      dup2\n        /* \"#utility.yul\":6466:6499   */\n      eq\n        /* \"#utility.yul\":6456:6517   */\n      tag_247\n      jumpi\n        /* \"#utility.yul\":6513:6514   */\n      0x00\n        /* \"#utility.yul\":6510:6511   */\n      dup1\n        /* \"#utility.yul\":6503:6515   */\n      revert\n        /* \"#utility.yul\":6456:6517   */\n    tag_247:\n        /* \"#utility.yul\":6405:6523   */\n      pop\n      jump\t// out\n        /* \"#utility.yul\":6529:6664   */\n    tag_155:\n        /* \"#utility.yul\":6573:6578   */\n      0x00\n        /* \"#utility.yul\":6611:6617   */\n      dup2\n        /* \"#utility.yul\":6598:6618   */\n      calldataload\n        /* \"#utility.yul\":6589:6618   */\n      swap1\n      pop\n        /* \"#utility.yul\":6627:6658   */\n      tag_249\n        /* \"#utility.yul\":6652:6657   */\n      dup2\n        /* \"#utility.yul\":6627:6658   */\n      tag_154\n      jump\t// in\n    tag_249:\n        /* \"#utility.yul\":6529:6664   */\n      swap3\n      swap2\n      pop\n      pop\n      jump\t// out\n        /* \"#utility.yul\":6670:6995   */\n    tag_25:\n        /* \"#utility.yul\":6727:6733   */\n      0x00\n        /* \"#utility.yul\":6776:6778   */\n      0x20\n        /* \"#utility.yul\":6764:6773   */\n      dup3\n        /* \"#utility.yul\":6755:6762   */\n      dup5\n        /* \"#utility.yul\":6751:6774   */\n      sub\n        /* \"#utility.yul\":6747:6779   */\n      slt\n        /* \"#utility.yul\":6744:6863   */\n      iszero\n      tag_251\n      jumpi\n        /* \"#utility.yul\":6782:6861   */\n      tag_252\n      tag_131\n      jump\t// in\n    tag_252:\n        /* \"#utility.yul\":6744:6863   */\n    tag_251:\n        /* \"#utility.yul\":6902:6903   */\n      0x00\n        /* \"#utility.yul\":6927:6978   */\n      tag_253\n        /* \"#utility.yul\":6970:6977   */\n      dup5\n        /* \"#utility.yul\":6961:6967   */\n      dup3\n        /* \"#utility.yul\":6950:6959   */\n      dup6\n        /* \"#utility.yul\":6946:6968   */\n      add\n        /* \"#utility.yul\":6927:6978   */\n      tag_155\n      jump\t// in\n    tag_253:\n        /* \"#utility.yul\":6917:6978   */\n      swap2\n      pop\n        /* \"#utility.yul\":6873:6988   */\n      pop\n        /* \"#utility.yul\":6670:6995   */\n      swap3\n      swap2\n      pop\n      pop\n      jump\t// out\n        /* \"#utility.yul\":7001:7330   */\n    tag_29:\n        /* \"#utility.yul\":7060:7066   */\n      0x00\n        /* \"#utility.yul\":7109:7111   */\n      0x20\n        /* \"#utility.yul\":7097:7106   */\n      dup3\n        /* \"#utility.yul\":7088:7095   */\n      dup5\n        /* \"#utility.yul\":7084:7107   */\n      sub\n        /* \"#utility.yul\":7080:7112   */\n      slt\n        /* \"#utility.yul\":7077:7196   */\n      iszero\n      tag_255\n      jumpi\n        /* \"#utility.yul\":7115:7194   */\n      tag_256\n      tag_131\n      jump\t// in\n    tag_256:\n        /* \"#utility.yul\":7077:7196   */\n    tag_255:\n        /* \"#utility.yul\":7235:7236   */\n      0x00\n        /* \"#utility.yul\":7260:7313   */\n      tag_257\n        /* \"#utility.yul\":7305:7312   */\n      dup5\n        /* \"#utility.yul\":7296:7302   */\n      dup3\n        /* \"#utility.yul\":7285:7294   */\n      dup6\n        /* \"#utility.yul\":7281:7303   */\n      add\n        /* \"#utility.yul\":7260:7313   */\n      tag_152\n      jump\t// in\n    tag_257:\n        /* \"#utility.yul\":7250:7313   */\n      swap2\n      pop\n        /* \"#utility.yul\":7206:7323   */\n      pop\n        /* \"#utility.yul\":7001:7330   */\n      swap3\n      swap2\n      pop\n      pop\n      jump\t// out\n        /* \"#utility.yul\":7336:7445   */\n    tag_156:\n        /* \"#utility.yul\":7417:7438   */\n      tag_259\n        /* \"#utility.yul\":7432:7437   */\n      dup2\n        /* \"#utility.yul\":7417:7438   */\n      tag_144\n      jump\t// in\n    tag_259:\n        /* \"#utility.yul\":7412:7415   */\n      dup3\n        /* \"#utility.yul\":7405:7439   */\n      mstore\n        /* \"#utility.yul\":7336:7445   */\n      pop\n      pop\n      jump\t// out\n        /* \"#utility.yul\":7451:7661   */\n    tag_36:\n        /* \"#utility.yul\":7538:7542   */\n      0x00\n        /* \"#utility.yul\":7576:7578   */\n      0x20\n        /* \"#utility.yul\":7565:7574   */\n      dup3\n        /* \"#utility.yul\":7561:7579   */\n      add\n        /* \"#utility.yul\":7553:7579   */\n      swap1\n      pop\n        /* \"#utility.yul\":7589:7654   */\n      tag_261\n        /* \"#utility.yul\":7651:7652   */\n      0x00\n        /* \"#utility.yul\":7640:7649   */\n      dup4\n        /* \"#utility.yul\":7636:7653   */\n      add\n        /* \"#utility.yul\":7627:7633   */\n      dup5\n        /* \"#utility.yul\":7589:7654   */\n      tag_156\n      jump\t// in\n    tag_261:\n        /* \"#utility.yul\":7451:7661   */\n      swap3\n      swap2\n      pop\n      pop\n      jump\t// out\n        /* \"#utility.yul\":7667:7847   */\n    tag_157:\n        /* \"#utility.yul\":7715:7792   */\n      0x4e487b7100000000000000000000000000000000000000000000000000000000\n        /* \"#utility.yul\":7712:7713   */\n      0x00\n        /* \"#utility.yul\":7705:7793   */\n      mstore\n        /* \"#utility.yul\":7812:7816   */\n      0x22\n        /* \"#utility.yul\":7809:7810   */\n      0x04\n        /* \"#utility.yul\":7802:7817   */\n      mstore\n        /* \"#utility.yul\":7836:7840   */\n      0x24\n        /* \"#utility.yul\":7833:7834   */\n      0x00\n        /* \"#utility.yul\":7826:7841   */\n      revert\n        /* \"#utility.yul\":7853:8173   */\n    tag_48:\n        /* \"#utility.yul\":7897:7903   */\n      0x00\n        /* \"#utility.yul\":7934:7935   */\n      0x02\n        /* \"#utility.yul\":7928:7932   */\n      dup3\n        /* \"#utility.yul\":7924:7936   */\n      div\n        /* \"#utility.yul\":7914:7936   */\n      swap1\n      pop\n        /* \"#utility.yul\":7981:7982   */\n      0x01\n        /* \"#utility.yul\":7975:7979   */\n      dup3\n        /* \"#utility.yul\":7971:7983   */\n      and\n        /* \"#utility.yul\":8002:8020   */\n      dup1\n        /* \"#utility.yul\":7992:8073   */\n      tag_264\n      jumpi\n        /* \"#utility.yul\":8058:8062   */\n      0x7f\n        /* \"#utility.yul\":8050:8056   */\n      dup3\n        /* \"#utility.yul\":8046:8063   */\n      and\n        /* \"#utility.yul\":8036:8063   */\n      swap2\n      pop\n        /* \"#utility.yul\":7992:8073   */\n    tag_264:\n        /* \"#utility.yul\":8120:8122   */\n      0x20\n        /* \"#utility.yul\":8112:8118   */\n      dup3\n        /* \"#utility.yul\":8109:8123   */\n      lt\n        /* \"#utility.yul\":8089:8107   */\n      dup2\n        /* \"#utility.yul\":8086:8124   */\n      sub\n        /* \"#utility.yul\":8083:8167   */\n      tag_265\n      jumpi\n        /* \"#utility.yul\":8139:8157   */\n      tag_266\n      tag_157\n      jump\t// in\n    tag_266:\n        /* \"#utility.yul\":8083:8167   */\n    tag_265:\n        /* \"#utility.yul\":7904:8173   */\n      pop\n        /* \"#utility.yul\":7853:8173   */\n      swap2\n      swap1\n      pop\n      jump\t// out\n        /* \"#utility.yul\":8179:8359   */\n    tag_158:\n        /* \"#utility.yul\":8227:8304   */\n      0x4e487b7100000000000000000000000000000000000000000000000000000000\n        /* \"#utility.yul\":8224:8225   */\n      0x00\n        /* \"#utility.yul\":8217:8305   */\n      mstore\n        /* \"#utility.yul\":8324:8328   */\n      0x11\n        /* \"#utility.yul\":8321:8322   */\n      0x04\n        /* \"#utility.yul\":8314:8329   */\n      mstore\n        /* \"#utility.yul\":8348:8352   */\n      0x24\n        /* \"#utility.yul\":8345:8346   */\n      0x00\n        /* \"#utility.yul\":8338:8353   */\n      revert\n        /* \"#utility.yul\":8365:8556   */\n    tag_57:\n        /* \"#utility.yul\":8405:8408   */\n      0x00\n        /* \"#utility.yul\":8424:8444   */\n      tag_269\n        /* \"#utility.yul\":8442:8443   */\n      dup3\n        /* \"#utility.yul\":8424:8444   */\n      tag_142\n      jump\t// in\n    tag_269:\n        /* \"#utility.yul\":8419:8444   */\n      swap2\n      pop\n        /* \"#utility.yul\":8458:8478   */\n      tag_270\n        /* \"#utility.yul\":8476:8477   */\n      dup4\n        /* \"#utility.yul\":8458:8478   */\n      tag_142\n      jump\t// in\n    tag_270:\n        /* \"#utility.yul\":8453:8478   */\n      swap3\n      pop\n        /* \"#utility.yul\":8501:8502   */\n      dup3\n        /* \"#utility.yul\":8498:8499   */\n      dup3\n        /* \"#utility.yul\":8494:8503   */\n      add\n        /* \"#utility.yul\":8487:8503   */\n      swap1\n      pop\n        /* \"#utility.yul\":8522:8525   */\n      dup1\n        /* \"#utility.yul\":8519:8520   */\n      dup3\n        /* \"#utility.yul\":8516:8526   */\n      gt\n        /* \"#utility.yul\":8513:8549   */\n      iszero\n      tag_271\n      jumpi\n        /* \"#utility.yul\":8529:8547   */\n      tag_272\n      tag_158\n      jump\t// in\n    tag_272:\n        /* \"#utility.yul\":8513:8549   */\n    tag_271:\n        /* \"#utility.yul\":8365:8556   */\n      swap3\n      swap2\n      pop\n      pop\n      jump\t// out\n        /* \"#utility.yul\":8562:8742   */\n    tag_159:\n        /* \"#utility.yul\":8610:8687   */\n      0x4e487b7100000000000000000000000000000000000000000000000000000000\n        /* \"#utility.yul\":8607:8608   */\n      0x00\n        /* \"#utility.yul\":8600:8688   */\n      mstore\n        /* \"#utility.yul\":8707:8711   */\n      0x41\n        /* \"#utility.yul\":8704:8705   */\n      0x04\n        /* \"#utility.yul\":8697:8712   */\n      mstore\n        /* \"#utility.yul\":8731:8735   */\n      0x24\n        /* \"#utility.yul\":8728:8729   */\n      0x00\n        /* \"#utility.yul\":8721:8736   */\n      revert\n        /* \"#utility.yul\":8748:8889   */\n    tag_160:\n        /* \"#utility.yul\":8797:8801   */\n      0x00\n        /* \"#utility.yul\":8820:8823   */\n      dup2\n        /* \"#utility.yul\":8812:8823   */\n      swap1\n      pop\n        /* \"#utility.yul\":8843:8846   */\n      dup2\n        /* \"#utility.yul\":8840:8841   */\n      0x00\n        /* \"#utility.yul\":8833:8847   */\n      mstore\n        /* \"#utility.yul\":8877:8881   */\n      0x20\n        /* \"#utility.yul\":8874:8875   */\n      0x00\n        /* \"#utility.yul\":8864:8882   */\n      keccak256\n        /* \"#utility.yul\":8856:8882   */\n      swap1\n      pop\n        /* \"#utility.yul\":8748:8889   */\n      swap2\n      swap1\n      pop\n      jump\t// out\n        /* \"#utility.yul\":8895:8988   */\n    tag_161:\n        /* \"#utility.yul\":8932:8938   */\n      0x00\n        /* \"#utility.yul\":8979:8981   */\n      0x20\n        /* \"#utility.yul\":8974:8976   */\n      0x1f\n        /* \"#utility.yul\":8967:8972   */\n      dup4\n        /* \"#utility.yul\":8963:8977   */\n      add\n        /* \"#utility.yul\":8959:8982   */\n      div\n        /* \"#utility.yul\":8949:8982   */\n      swap1\n      pop\n        /* \"#utility.yul\":8895:8988   */\n      swap2\n      swap1\n      pop\n      jump\t// out\n        /* \"#utility.yul\":8994:9101   */\n    tag_162:\n        /* \"#utility.yul\":9038:9046   */\n      0x00\n        /* \"#utility.yul\":9088:9093   */\n      dup3\n        /* \"#utility.yul\":9082:9086   */\n      dup3\n        /* \"#utility.yul\":9078:9094   */\n      shl\n        /* \"#utility.yul\":9057:9094   */\n      swap1\n      pop\n        /* \"#utility.yul\":8994:9101   */\n      swap3\n      swap2\n      pop\n      pop\n      jump\t// out\n        /* \"#utility.yul\":9107:9500   */\n    tag_163:\n        /* \"#utility.yul\":9176:9182   */\n      0x00\n        /* \"#utility.yul\":9226:9227   */\n      0x08\n        /* \"#utility.yul\":9214:9224   */\n      dup4\n        /* \"#utility.yul\":9210:9228   */\n      mul\n        /* \"#utility.yul\":9249:9346   */\n      tag_278\n        /* \"#utility.yul\":9279:9345   */\n      0xffffffffffffffffffffffffffffffffffffffffffffffffffffffffffffffff\n        /* \"#utility.yul\":9268:9277   */\n      dup3\n        /* \"#utility.yul\":9249:9346   */\n      tag_162\n      jump\t// in\n    tag_278:\n        /* \"#utility.yul\":9367:9406   */\n      tag_279\n        /* \"#utility.yul\":9397:9405   */\n      dup7\n        /* \"#utility.yul\":9386:9395   */\n      dup4\n        /* \"#utility.yul\":9367:9406   */\n      tag_162\n      jump\t// in\n    tag_279:\n        /* \"#utility.yul\":9355:9406   */\n      swap6\n      pop\n        /* \"#utility.yul\":9439:9443   */\n      dup1\n        /* \"#utility.yul\":9435:9444   */\n      not\n        /* \"#utility.yul\":9428:9433   */\n      dup5\n        /* \"#utility.yul\":9424:9445   */\n      and\n        /* \"#utility.yul\":9415:9445   */\n      swap4\n      pop\n        /* \"#utility.yul\":9488:9492   */\n      dup1\n        /* \"#utility.yul\":9478:9486   */\n      dup7\n        /* \"#utility.yul\":9474:9493   */\n      and\n        /* \"#utility.yul\":9467:9472   */\n      dup5\n        /* \"#utility.yul\":9464:9494   */\n      or\n        /* \"#utility.yul\":9454:9494   */\n      swap3\n      pop\n        /* \"#utility.yul\":9183:9500   */\n      pop\n      pop\n        /* \"#utility.yul\":9107:9500   */\n      swap4\n      swap3\n      pop\n      pop\n      pop\n      jump\t// out\n        /* \"#utility.yul\":9506:9566   */\n    tag_164:\n        /* \"#utility.yul\":9534:9537   */\n      0x00\n        /* \"#utility.yul\":9555:9560   */\n      dup2\n        /* \"#utility.yul\":9548:9560   */\n      swap1\n      pop\n        /* \"#utility.yul\":9506:9566   */\n      swap2\n      swap1\n      pop\n      jump\t// out\n        /* \"#utility.yul\":9572:9714   */\n    tag_165:\n        /* \"#utility.yul\":9622:9631   */\n      0x00\n        /* \"#utility.yul\":9655:9708   */\n      tag_282\n        /* \"#utility.yul\":9673:9707   */\n      tag_283\n        /* \"#utility.yul\":9682:9706   */\n      tag_284\n        /* \"#utility.yul\":9700:9705   */\n      dup5\n        /* \"#utility.yul\":9682:9706   */\n      tag_142\n      jump\t// in\n    tag_284:\n        /* \"#utility.yul\":9673:9707   */\n      tag_164\n      jump\t// in\n    tag_283:\n        /* \"#utility.yul\":9655:9708   */\n      tag_142\n      jump\t// in\n    tag_282:\n        /* \"#utility.yul\":9642:9708   */\n      swap1\n      pop\n        /* \"#utility.yul\":9572:9714   */\n      swap2\n      swap1\n      pop\n      jump\t// out\n        /* \"#utility.yul\":9720:9795   */\n    tag_166:\n        /* \"#utility.yul\":9763:9766   */\n      0x00\n        /* \"#utility.yul\":9784:9789   */\n      dup2\n        /* \"#utility.yul\":9777:9789   */\n      swap1\n      pop\n        /* \"#utility.yul\":9720:9795   */\n      swap2\n      swap1\n      pop\n      jump\t// out\n        /* \"#utility.yul\":9801:10070   */\n    tag_167:\n        /* \"#utility.yul\":9911:9950   */\n      tag_287\n        /* \"#utility.yul\":9942:9949   */\n      dup4\n        /* \"#utility.yul\":9911:9950   */\n      tag_165\n      jump\t// in\n    tag_287:\n        /* \"#utility.yul\":9972:10063   */\n      tag_288\n        /* \"#utility.yul\":10021:10062   */\n      tag_289\n        /* \"#utility.yul\":10045:10061   */\n      dup3\n        /* \"#utility.yul\":10021:10062   */\n      tag_166\n      jump\t// in\n    tag_289:\n        /* \"#utility.yul\":10013:10019   */\n      dup5\n        /* \"#utility.yul\":10006:10010   */\n      dup5\n        /* \"#utility.yul\":10000:10011   */\n      sload\n        /* \"#utility.yul\":9972:10063   */\n      tag_163\n      jump\t// in\n    tag_288:\n        /* \"#utility.yul\":9966:9970   */\n      dup3\n        /* \"#utility.yul\":9959:10064   */\n      sstore\n        /* \"#utility.yul\":9877:10070   */\n      pop\n        /* \"#utility.yul\":9801:10070   */\n      pop\n      pop\n      pop\n      jump\t// out\n        /* \"#utility.yul\":10076:10149   */\n    tag_168:\n        /* \"#utility.yul\":10121:10124   */\n      0x00\n        /* \"#utility.yul\":10076:10149   */\n      swap1\n      jump\t// out\n        /* \"#utility.yul\":10155:10344   */\n    tag_169:\n        /* \"#utility.yul\":10232:10264   */\n      tag_292\n      tag_168\n      jump\t// in\n    tag_292:\n        /* \"#utility.yul\":10273:10338   */\n      tag_293\n        /* \"#utility.yul\":10331:10337   */\n      dup2\n        /* \"#utility.yul\":10323:10329   */\n      dup5\n        /* \"#utility.yul\":10317:10321   */\n      dup5\n        /* \"#utility.yul\":10273:10338   */\n      tag_167\n      jump\t// in\n    tag_293:\n        /* \"#utility.yul\":10208:10344   */\n      pop\n        /* \"#utility.yul\":10155:10344   */\n      pop\n      pop\n      jump\t// out\n        /* \"#utility.yul\":10350:10536   */\n    tag_170:\n        /* \"#utility.yul\":10410:10530   */\n    tag_295:\n        /* \"#utility.yul\":10427:10430   */\n      dup2\n        /* \"#utility.yul\":10420:10425   */\n      dup2\n        /* \"#utility.yul\":10417:10431   */\n      lt\n        /* \"#utility.yul\":10410:10530   */\n      iszero\n      tag_297\n      jumpi\n        /* \"#utility.yul\":10481:10520   */\n      tag_298\n        /* \"#utility.yul\":10518:10519   */\n      0x00\n        /* \"#utility.yul\":10511:10516   */\n      dup3\n        /* \"#utility.yul\":10481:10520   */\n      tag_169\n      jump\t// in\n    tag_298:\n        /* \"#utility.yul\":10454:10455   */\n      0x01\n        /* \"#utility.yul\":10447:10452   */\n      dup2\n        /* \"#utility.yul\":10443:10456   */\n      add\n        /* \"#utility.yul\":10434:10456   */\n      swap1\n      pop\n        /* \"#utility.yul\":10410:10530   */\n      jump(tag_295)\n    tag_297:\n        /* \"#utility.yul\":10350:10536   */\n      pop\n      pop\n      jump\t// out\n        /* \"#utility.yul\":10542:11085   */\n    tag_171:\n        /* \"#utility.yul\":10643:10645   */\n      0x1f\n        /* \"#utility.yul\":10638:10641   */\n      dup3\n        /* \"#utility.yul\":10635:10646   */\n      gt\n        /* \"#utility.yul\":10632:11078   */\n      iszero\n      tag_300\n      jumpi\n        /* \"#utility.yul\":10677:10715   */\n      tag_301\n        /* \"#utility.yul\":10709:10714   */\n      dup2\n        /* \"#utility.yul\":10677:10715   */\n      tag_160\n      jump\t// in\n    tag_301:\n        /* \"#utility.yul\":10761:10790   */\n      tag_302\n        /* \"#utility.yul\":10779:10789   */\n      dup5\n        /* \"#utility.yul\":10761:10790   */\n      tag_161\n      jump\t// in\n    tag_302:\n        /* \"#utility.yul\":10751:10759   */\n      dup2\n        /* \"#utility.yul\":10747:10791   */\n      add\n        /* \"#utility.yul\":10944:10946   */\n      0x20\n        /* \"#utility.yul\":10932:10942   */\n      dup6\n        /* \"#utility.yul\":10929:10947   */\n      lt\n        /* \"#utility.yul\":10926:10975   */\n      iszero\n      tag_303\n      jumpi\n        /* \"#utility.yul\":10965:10973   */\n      dup2\n        /* \"#utility.yul\":10950:10973   */\n      swap1\n      pop\n        /* \"#utility.yul\":10926:10975   */\n    tag_303:\n        /* \"#utility.yul\":10988:11068   */\n      tag_304\n        /* \"#utility.yul\":11044:11066   */\n      tag_305\n        /* \"#utility.yul\":11062:11065   */\n      dup6\n        /* \"#utility.yul\":11044:11066   */\n      tag_161\n      jump\t// in\n    tag_305:\n        /* \"#utility.yul\":11034:11042   */\n      dup4\n        /* \"#utility.yul\":11030:11067   */\n      add\n        /* \"#utility.yul\":11017:11028   */\n      dup3\n        /* \"#utility.yul\":10988:11068   */\n      tag_170\n      jump\t// in\n    tag_304:\n        /* \"#utility.yul\":10647:11078   */\n      pop\n      pop\n        /* \"#utility.yul\":10632:11078   */\n    tag_300:\n        /* \"#utility.yul\":10542:11085   */\n      pop\n      pop\n      pop\n      jump\t// out\n        /* \"#utility.yul\":11091:11208   */\n    tag_172:\n        /* \"#utility.yul\":11145:11153   */\n      0x00\n        /* \"#utility.yul\":11195:11200   */\n      dup3\n        /* \"#utility.yul\":11189:11193   */\n      dup3\n        /* \"#utility.yul\":11185:11201   */\n      shr\n        /* \"#utility.yul\":11164:11201   */\n      swap1\n      pop\n        /* \"#utility.yul\":11091:11208   */\n      swap3\n      swap2\n      pop\n      pop\n      jump\t// out\n        /* \"#utility.yul\":11214:11383   */\n    tag_173:\n        /* \"#utility.yul\":11258:11264   */\n      0x00\n        /* \"#utility.yul\":11291:11342   */\n      tag_308\n        /* \"#utility.yul\":11339:11340   */\n      0x00\n        /* \"#utility.yul\":11335:11341   */\n      not\n        /* \"#utility.yul\":11327:11332   */\n      dup5\n        /* \"#utility.yul\":11324:11325   */\n      0x08\n        /* \"#utility.yul\":11320:11333   */\n      mul\n        /* \"#utility.yul\":11291:11342   */\n      tag_172\n      jump\t// in\n    tag_308:\n        /* \"#utility.yul\":11287:11343   */\n      not\n        /* \"#utility.yul\":11372:11376   */\n      dup1\n        /* \"#utility.yul\":11366:11370   */\n      dup4\n        /* \"#utility.yul\":11362:11377   */\n      and\n        /* \"#utility.yul\":11352:11377   */\n      swap2\n      pop\n        /* \"#utility.yul\":11265:11383   */\n      pop\n        /* \"#utility.yul\":11214:11383   */\n      swap3\n      swap2\n      pop\n      pop\n      jump\t// out\n        /* \"#utility.yul\":11388:11683   */\n    tag_174:\n        /* \"#utility.yul\":11464:11468   */\n      0x00\n        /* \"#utility.yul\":11610:11639   */\n      tag_310\n        /* \"#utility.yul\":11635:11638   */\n      dup4\n        /* \"#utility.yul\":11629:11633   */\n      dup4\n        /* \"#utility.yul\":11610:11639   */\n      tag_173\n      jump\t// in\n    tag_310:\n        /* \"#utility.yul\":11602:11639   */\n      swap2\n      pop\n        /* \"#utility.yul\":11672:11675   */\n      dup3\n        /* \"#utility.yul\":11669:11670   */\n      0x02\n        /* \"#utility.yul\":11665:11676   */\n      mul\n        /* \"#utility.yul\":11659:11663   */\n      dup3\n        /* \"#utility.yul\":11656:11677   */\n      or\n        /* \"#utility.yul\":11648:11677   */\n      swap1\n      pop\n        /* \"#utility.yul\":11388:11683   */\n      swap3\n      swap2\n      pop\n      pop\n      jump\t// out\n        /* \"#utility.yul\":11688:13083   */\n    tag_59:\n        /* \"#utility.yul\":11805:11842   */\n      tag_312\n        /* \"#utility.yul\":11838:11841   */\n      dup3\n        /* \"#utility.yul\":11805:11842   */\n      tag_137\n      jump\t// in\n    tag_312:\n        /* \"#utility.yul\":11907:11925   */\n      0xffffffffffffffff\n        /* \"#utility.yul\":11899:11905   */\n      dup2\n        /* \"#utility.yul\":11896:11926   */\n      gt\n        /* \"#utility.yul\":11893:11949   */\n      iszero\n      tag_313\n      jumpi\n        /* \"#utility.yul\":11929:11947   */\n      tag_314\n      tag_159\n      jump\t// in\n    tag_314:\n        /* \"#utility.yul\":11893:11949   */\n    tag_313:\n        /* \"#utility.yul\":11973:12011   */\n      tag_315\n        /* \"#utility.yul\":12005:12009   */\n      dup3\n        /* \"#utility.yul\":11999:12010   */\n      sload\n        /* \"#utility.yul\":11973:12011   */\n      tag_48\n      jump\t// in\n    tag_315:\n        /* \"#utility.yul\":12058:12125   */\n      tag_316\n        /* \"#utility.yul\":12118:12124   */\n      dup3\n        /* \"#utility.yul\":12110:12116   */\n      dup3\n        /* \"#utility.yul\":12104:12108   */\n      dup6\n        /* \"#utility.yul\":12058:12125   */\n      tag_171\n      jump\t// in\n    tag_316:\n        /* \"#utility.yul\":12152:12153   */\n      0x00\n        /* \"#utility.yul\":12176:12180   */\n      0x20\n        /* \"#utility.yul\":12163:12180   */\n      swap1\n      pop\n        /* \"#utility.yul\":12208:12210   */\n      0x1f\n        /* \"#utility.yul\":12200:12206   */\n      dup4\n        /* \"#utility.yul\":12197:12211   */\n      gt\n        /* \"#utility.yul\":12225:12226   */\n      0x01\n        /* \"#utility.yul\":12220:12838   */\n      dup2\n      eq\n      tag_318\n      jumpi\n        /* \"#utility.yul\":12882:12883   */\n      0x00\n        /* \"#utility.yul\":12899:12905   */\n      dup5\n        /* \"#utility.yul\":12896:12973   */\n      iszero\n      tag_319\n      jumpi\n        /* \"#utility.yul\":12948:12957   */\n      dup3\n        /* \"#utility.yul\":12943:12946   */\n      dup8\n        /* \"#utility.yul\":12939:12958   */\n      add\n        /* \"#utility.yul\":12933:12959   */\n      mload\n        /* \"#utility.yul\":12924:12959   */\n      swap1\n      pop\n        /* \"#utility.yul\":12896:12973   */\n    tag_319:\n        /* \"#utility.yul\":12999:13066   */\n      tag_320\n        /* \"#utility.yul\":13059:13065   */\n      dup6\n        /* \"#utility.yul\":13052:13057   */\n      dup3\n        /* \"#utility.yul\":12999:13066   */\n      tag_174\n      jump\t// in\n    tag_320:\n        /* \"#utility.yul\":12993:12997   */\n      dup7\n        /* \"#utility.yul\":12986:13067   */\n      sstore\n        /* \"#utility.yul\":12855:13077   */\n      pop\n        /* \"#utility.yul\":12190:13077   */\n      jump(tag_317)\n        /* \"#utility.yul\":12220:12838   */\n    tag_318:\n        /* \"#utility.yul\":12272:12276   */\n      0x1f\n        /* \"#utility.yul\":12268:12277   */\n      not\n        /* \"#utility.yul\":12260:12266   */\n      dup5\n        /* \"#utility.yul\":12256:12278   */\n      and\n        /* \"#utility.yul\":12306:12343   */\n      tag_321\n        /* \"#utility.yul\":12338:12342   */\n      dup7\n        /* \"#utility.yul\":12306:12343   */\n      tag_160\n      jump\t// in\n    tag_321:\n        /* \"#utility.yul\":12365:12366   */\n      0x00\n        /* \"#utility.yul\":12379:12587   */\n    tag_322:\n        /* \"#utility.yul\":12393:12400   */\n      dup3\n        /* \"#utility.yul\":12390:12391   */\n      dup2\n        /* \"#utility.yul\":12387:12401   */\n      lt\n        /* \"#utility.yul\":12379:12587   */\n      iszero\n      tag_324\n      jumpi\n        /* \"#utility.yul\":12472:12481   */\n      dup5\n        /* \"#utility.yul\":12467:12470   */\n      dup10\n        /* \"#utility.yul\":12463:12482   */\n      add\n        /* \"#utility.yul\":12457:12483   */\n      mload\n        /* \"#utility.yul\":12449:12455   */\n      dup3\n        /* \"#utility.yul\":12442:12484   */\n      sstore\n        /* \"#utility.yul\":12523:12524   */\n      0x01\n        /* \"#utility.yul\":12515:12521   */\n      dup3\n        /* \"#utility.yul\":12511:12525   */\n      add\n        /* \"#utility.yul\":12501:12525   */\n      swap2\n      pop\n        /* \"#utility.yul\":12570:12572   */\n      0x20\n        /* \"#utility.yul\":12559:12568   */\n      dup6\n        /* \"#utility.yul\":12555:12573   */\n      add\n        /* \"#utility.yul\":12542:12573   */\n      swap5\n      pop\n        /* \"#utility.yul\":12416:12420   */\n      0x20\n        /* \"#utility.yul\":12413:12414   */\n      dup2\n        /* \"#utility.yul\":12409:12421   */\n      add\n        /* \"#utility.yul\":12404:12421   */\n      swap1\n      pop\n        /* \"#utility.yul\":12379:12587   */\n      jump(tag_322)\n    tag_324:\n        /* \"#utility.yul\":12615:12621   */\n      dup7\n        /* \"#utility.yul\":12606:12613   */\n      dup4\n        /* \"#utility.yul\":12603:12622   */\n      lt\n        /* \"#utility.yul\":12600:12779   */\n      iszero\n      tag_325\n      jumpi\n        /* \"#utility.yul\":12673:12682   */\n      dup5\n        /* \"#utility.yul\":12668:12671   */\n      dup10\n        /* \"#utility.yul\":12664:12683   */\n      add\n        /* \"#utility.yul\":12658:12684   */\n      mload\n        /* \"#utility.yul\":12716:12764   */\n      tag_326\n        /* \"#utility.yul\":12758:12762   */\n      0x1f\n        /* \"#utility.yul\":12750:12756   */\n      dup10\n        /* \"#utility.yul\":12746:12763   */\n      and\n        /* \"#utility.yul\":12735:12744   */\n      dup3\n        /* \"#utility.yul\":12716:12764   */\n      tag_173\n      jump\t// in\n    tag_326:\n        /* \"#utility.yul\":12708:12714   */\n      dup4\n        /* \"#utility.yul\":12701:12765   */\n      sstore\n        /* \"#utility.yul\":12623:12779   */\n      pop\n        /* \"#utility.yul\":12600:12779   */\n    tag_325:\n        /* \"#utility.yul\":12825:12826   */\n      0x01\n        /* \"#utility.yul\":12821:12822   */\n      0x02\n        /* \"#utility.yul\":12813:12819   */\n      dup9\n        /* \"#utility.yul\":12809:12823   */\n      mul\n        /* \"#utility.yul\":12805:12827   */\n      add\n        /* \"#utility.yul\":12799:12803   */\n      dup9\n        /* \"#utility.yul\":12792:12828   */\n      sstore\n        /* \"#utility.yul\":12227:12838   */\n      pop\n      pop\n      pop\n        /* \"#utility.yul\":12190:13077   */\n    tag_317:\n      pop\n        /* \"#utility.yul\":11780:13083   */\n      pop\n      pop\n      pop\n        /* \"#utility.yul\":11688:13083   */\n      pop\n      pop\n      jump\t// out\n        /* \"#utility.yul\":13089:13258   */\n    tag_175:\n        /* \"#utility.yul\":13173:13184   */\n      0x00\n        /* \"#utility.yul\":13207:13213   */\n      dup3\n        /* \"#utility.yul\":13202:13205   */\n      dup3\n        /* \"#utility.yul\":13195:13214   */\n      mstore\n        /* \"#utility.yul\":13247:13251   */\n      0x20\n        /* \"#utility.yul\":13242:13245   */\n      dup3\n        /* \"#utility.yul\":13238:13252   */\n      add\n        /* \"#utility.yul\":13223:13252   */\n      swap1\n      pop\n        /* \"#utility.yul\":13089:13258   */\n      swap3\n      swap2\n      pop\n      pop\n      jump\t// out\n        /* \"#utility.yul\":13264:13440   */\n    tag_176:\n        /* \"#utility.yul\":13404:13432   */\n      0x5468652070726f706f73616c206973206e6f7420616374697665000000000000\n        /* \"#utility.yul\":13400:13401   */\n      0x00\n        /* \"#utility.yul\":13392:13398   */\n      dup3\n        /* \"#utility.yul\":13388:13402   */\n      add\n        /* \"#utility.yul\":13381:13433   */\n      mstore\n        /* \"#utility.yul\":13264:13440   */\n      pop\n      jump\t// out\n        /* \"#utility.yul\":13446:13812   */\n    tag_177:\n        /* \"#utility.yul\":13588:13591   */\n      0x00\n        /* \"#utility.yul\":13609:13676   */\n      tag_330\n        /* \"#utility.yul\":13673:13675   */\n      0x1a\n        /* \"#utility.yul\":13668:13671   */\n      dup4\n        /* \"#utility.yul\":13609:13676   */\n      tag_175\n      jump\t// in\n    tag_330:\n        /* \"#utility.yul\":13602:13676   */\n      swap2\n      pop\n        /* \"#utility.yul\":13685:13778   */\n      tag_331\n        /* \"#utility.yul\":13774:13777   */\n      dup3\n        /* \"#utility.yul\":13685:13778   */\n      tag_176\n      jump\t// in\n    tag_331:\n        /* \"#utility.yul\":13803:13805   */\n      0x20\n        /* \"#utility.yul\":13798:13801   */\n      dup3\n        /* \"#utility.yul\":13794:13806   */\n      add\n        /* \"#utility.yul\":13787:13806   */\n      swap1\n      pop\n        /* \"#utility.yul\":13446:13812   */\n      swap2\n      swap1\n      pop\n      jump\t// out\n        /* \"#utility.yul\":13818:14237   */\n    tag_63:\n        /* \"#utility.yul\":13984:13988   */\n      0x00\n        /* \"#utility.yul\":14022:14024   */\n      0x20\n        /* \"#utility.yul\":14011:14020   */\n      dup3\n        /* \"#utility.yul\":14007:14025   */\n      add\n        /* \"#utility.yul\":13999:14025   */\n      swap1\n      pop\n        /* \"#utility.yul\":14071:14080   */\n      dup2\n        /* \"#utility.yul\":14065:14069   */\n      dup2\n        /* \"#utility.yul\":14061:14081   */\n      sub\n        /* \"#utility.yul\":14057:14058   */\n      0x00\n        /* \"#utility.yul\":14046:14055   */\n      dup4\n        /* \"#utility.yul\":14042:14059   */\n      add\n        /* \"#utility.yul\":14035:14082   */\n      mstore\n        /* \"#utility.yul\":14099:14230   */\n      tag_333\n        /* \"#utility.yul\":14225:14229   */\n      dup2\n        /* \"#utility.yul\":14099:14230   */\n      tag_177\n      jump\t// in\n    tag_333:\n        /* \"#utility.yul\":14091:14230   */\n      swap1\n      pop\n        /* \"#utility.yul\":13818:14237   */\n      swap2\n      swap1\n      pop\n      jump\t// out\n        /* \"#utility.yul\":14243:14418   */\n    tag_178:\n        /* \"#utility.yul\":14383:14410   */\n      0x416464726573732068617320616c726561647920766f74656400000000000000\n        /* \"#utility.yul\":14379:14380   */\n      0x00\n        /* \"#utility.yul\":14371:14377   */\n      dup3\n        /* \"#utility.yul\":14367:14381   */\n      add\n        /* \"#utility.yul\":14360:14411   */\n      mstore\n        /* \"#utility.yul\":14243:14418   */\n      pop\n      jump\t// out\n        /* \"#utility.yul\":14424:14790   */\n    tag_179:\n        /* \"#utility.yul\":14566:14569   */\n      0x00\n        /* \"#utility.yul\":14587:14654   */\n      tag_336\n        /* \"#utility.yul\":14651:14653   */\n      0x19\n        /* \"#utility.yul\":14646:14649   */\n      dup4\n        /* \"#utility.yul\":14587:14654   */\n      tag_175\n      jump\t// in\n    tag_336:\n        /* \"#utility.yul\":14580:14654   */\n      swap2\n      pop\n        /* \"#utility.yul\":14663:14756   */\n      tag_337\n        /* \"#utility.yul\":14752:14755   */\n      dup3\n        /* \"#utility.yul\":14663:14756   */\n      tag_178\n      jump\t// in\n    tag_337:\n        /* \"#utility.yul\":14781:14783   */\n      0x20\n        /* \"#utility.yul\":14776:14779   */\n      dup3\n        /* \"#utility.yul\":14772:14784   */\n      add\n        /* \"#utility.yul\":14765:14784   */\n      swap1\n      pop\n        /* \"#utility.yul\":14424:14790   */\n      swap2\n      swap1\n      pop\n      jump\t// out\n        /* \"#utility.yul\":14796:15215   */\n    tag_68:\n        /* \"#utility.yul\":14962:14966   */\n      0x00\n        /* \"#utility.yul\":15000:15002   */\n      0x20\n        /* \"#utility.yul\":14989:14998   */\n      dup3\n        /* \"#utility.yul\":14985:15003   */\n      add\n        /* \"#utility.yul\":14977:15003   */\n      swap1\n      pop\n        /* \"#utility.yul\":15049:15058   */\n      dup2\n        /* \"#utility.yul\":15043:15047   */\n      dup2\n        /* \"#utility.yul\":15039:15059   */\n      sub\n        /* \"#utility.yul\":15035:15036   */\n      0x00\n        /* \"#utility.yul\":15024:15033   */\n      dup4\n        /* \"#utility.yul\":15020:15037   */\n      add\n        /* \"#utility.yul\":15013:15060   */\n      mstore\n        /* \"#utility.yul\":15077:15208   */\n      tag_339\n        /* \"#utility.yul\":15203:15207   */\n      dup2\n        /* \"#utility.yul\":15077:15208   */\n      tag_179\n      jump\t// in\n    tag_339:\n        /* \"#utility.yul\":15069:15208   */\n      swap1\n      pop\n        /* \"#utility.yul\":14796:15215   */\n      swap2\n      swap1\n      pop\n      jump\t// out\n        /* \"#utility.yul\":15221:15415   */\n    tag_86:\n        /* \"#utility.yul\":15261:15265   */\n      0x00\n        /* \"#utility.yul\":15281:15301   */\n      tag_341\n        /* \"#utility.yul\":15299:15300   */\n      dup3\n        /* \"#utility.yul\":15281:15301   */\n      tag_142\n      jump\t// in\n    tag_341:\n        /* \"#utility.yul\":15276:15301   */\n      swap2\n      pop\n        /* \"#utility.yul\":15315:15335   */\n      tag_342\n        /* \"#utility.yul\":15333:15334   */\n      dup4\n        /* \"#utility.yul\":15315:15335   */\n      tag_142\n      jump\t// in\n    tag_342:\n        /* \"#utility.yul\":15310:15335   */\n      swap3\n      pop\n        /* \"#utility.yul\":15359:15360   */\n      dup3\n        /* \"#utility.yul\":15356:15357   */\n      dup3\n        /* \"#utility.yul\":15352:15361   */\n      sub\n        /* \"#utility.yul\":15344:15361   */\n      swap1\n      pop\n        /* \"#utility.yul\":15383:15384   */\n      dup2\n        /* \"#utility.yul\":15377:15381   */\n      dup2\n        /* \"#utility.yul\":15374:15385   */\n      gt\n        /* \"#utility.yul\":15371:15408   */\n      iszero\n      tag_343\n      jumpi\n        /* \"#utility.yul\":15388:15406   */\n      tag_344\n      tag_158\n      jump\t// in\n    tag_344:\n        /* \"#utility.yul\":15371:15408   */\n    tag_343:\n        /* \"#utility.yul\":15221:15415   */\n      swap3\n      swap2\n      pop\n      pop\n      jump\t// out\n        /* \"#utility.yul\":15421:15601   */\n    tag_104:\n        /* \"#utility.yul\":15469:15546   */\n      0x4e487b7100000000000000000000000000000000000000000000000000000000\n        /* \"#utility.yul\":15466:15467   */\n      0x00\n        /* \"#utility.yul\":15459:15547   */\n      mstore\n        /* \"#utility.yul\":15566:15570   */\n      0x32\n        /* \"#utility.yul\":15563:15564   */\n      0x04\n        /* \"#utility.yul\":15556:15571   */\n      mstore\n        /* \"#utility.yul\":15590:15594   */\n      0x24\n        /* \"#utility.yul\":15587:15588   */\n      0x00\n        /* \"#utility.yul\":15580:15595   */\n      revert\n        /* \"#utility.yul\":15607:15787   */\n    tag_180:\n        /* \"#utility.yul\":15655:15732   */\n      0x4e487b7100000000000000000000000000000000000000000000000000000000\n        /* \"#utility.yul\":15652:15653   */\n      0x00\n        /* \"#utility.yul\":15645:15733   */\n      mstore\n        /* \"#utility.yul\":15752:15756   */\n      0x12\n        /* \"#utility.yul\":15749:15750   */\n      0x04\n        /* \"#utility.yul\":15742:15757   */\n      mstore\n        /* \"#utility.yul\":15776:15780   */\n      0x24\n        /* \"#utility.yul\":15773:15774   */\n      0x00\n        /* \"#utility.yul\":15766:15781   */\n      revert\n        /* \"#utility.yul\":15793:15969   */\n    tag_115:\n        /* \"#utility.yul\":15825:15826   */\n      0x00\n        /* \"#utility.yul\":15842:15862   */\n      tag_348\n        /* \"#utility.yul\":15860:15861   */\n      dup3\n        /* \"#utility.yul\":15842:15862   */\n      tag_142\n      jump\t// in\n    tag_348:\n        /* \"#utility.yul\":15837:15862   */\n      swap2\n      pop\n        /* \"#utility.yul\":15876:15896   */\n      tag_349\n        /* \"#utility.yul\":15894:15895   */\n      dup4\n        /* \"#utility.yul\":15876:15896   */\n      tag_142\n      jump\t// in\n    tag_349:\n        /* \"#utility.yul\":15871:15896   */\n      swap3\n      pop\n        /* \"#utility.yul\":15915:15916   */\n      dup3\n        /* \"#utility.yul\":15905:15940   */\n      tag_350\n      jumpi\n        /* \"#utility.yul\":15920:15938   */\n      tag_351\n      tag_180\n      jump\t// in\n    tag_351:\n        /* \"#utility.yul\":15905:15940   */\n    tag_350:\n        /* \"#utility.yul\":15961:15962   */\n      dup3\n        /* \"#utility.yul\":15958:15959   */\n      dup3\n        /* \"#utility.yul\":15954:15963   */\n      mod\n        /* \"#utility.yul\":15949:15963   */\n      swap1\n      pop\n        /* \"#utility.yul\":15793:15969   */\n      swap3\n      swap2\n      pop\n      pop\n      jump\t// out\n        /* \"#utility.yul\":15975:16160   */\n    tag_119:\n        /* \"#utility.yul\":16015:16016   */\n      0x00\n        /* \"#utility.yul\":16032:16052   */\n      tag_353\n        /* \"#utility.yul\":16050:16051   */\n      dup3\n        /* \"#utility.yul\":16032:16052   */\n      tag_142\n      jump\t// in\n    tag_353:\n        /* \"#utility.yul\":16027:16052   */\n      swap2\n      pop\n        /* \"#utility.yul\":16066:16086   */\n      tag_354\n        /* \"#utility.yul\":16084:16085   */\n      dup4\n        /* \"#utility.yul\":16066:16086   */\n      tag_142\n      jump\t// in\n    tag_354:\n        /* \"#utility.yul\":16061:16086   */\n      swap3\n      pop\n        /* \"#utility.yul\":16105:16106   */\n      dup3\n        /* \"#utility.yul\":16095:16130   */\n      tag_355\n      jumpi\n        /* \"#utility.yul\":16110:16128   */\n      tag_356\n      tag_180\n      jump\t// in\n    tag_356:\n        /* \"#utility.yul\":16095:16130   */\n    tag_355:\n        /* \"#utility.yul\":16152:16153   */\n      dup3\n        /* \"#utility.yul\":16149:16150   */\n      dup3\n        /* \"#utility.yul\":16145:16154   */\n      div\n        /* \"#utility.yul\":16140:16154   */\n      swap1\n      pop\n        /* \"#utility.yul\":15975:16160   */\n      swap3\n      swap2\n      pop\n      pop\n      jump\t// out\n\n    auxdata: 0xa26469706673582212206e254582a6d88fdaaee0b07dbacb8a452256126fbbdd4610ae4904f407bf69a964736f6c634300081a0033\n}\n",
				"bytecode": {
					"linkReferences": {},
					"object": "6080604052348015600e575f80fd5b50335f806101000a81548173ffffffffffffffffffffffffffffffffffffffff021916908373ffffffffffffffffffffffffffffffffffffffff160217905550600233908060018154018082558091505060019003905f5260205f20015f9091909190916101000a81548173ffffffffffffffffffffffffffffffffffffffff021916908373ffffffffffffffffffffffffffffffffffffffff160217905550611482806100bb5f395ff3fe608060405234801561000f575f80fd5b506004361061007b575f3560e01c8063b3f98adc11610059578063b3f98adc146100d5578063c7f758a8146100f1578063cbff75cb14610121578063dbddc7aa146101515761007b565b806313af40351461007f57806341ec68701461009b57806346f81a87146100b9575b5f80fd5b61009960048036038101906100949190610c07565b61015b565b005b6100a361025e565b6040516100b09190610d6d565b60405180910390f35b6100d360048036038101906100ce9190610e18565b610375565b005b6100ef60048036038101906100ea9190610eab565b6104f4565b005b61010b60048036038101906101069190610ed6565b61078e565b6040516101189190610d6d565b60405180910390f35b61013b60048036038101906101369190610c07565b6108a5565b6040516101489190610f10565b60405180910390f35b610159610947565b005b5f8054906101000a900473ffffffffffffffffffffffffffffffffffffffff1673ffffffffffffffffffffffffffffffffffffffff163373ffffffffffffffffffffffffffffffffffffffff16146101b1575f80fd5b805f806101000a81548173ffffffffffffffffffffffffffffffffffffffff021916908373ffffffffffffffffffffffffffffffffffffffff16021790555060405180602001604052805f8054906101000a900473ffffffffffffffffffffffffffffffffffffffff1673ffffffffffffffffffffffffffffffffffffffff1673ffffffffffffffffffffffffffffffffffffffff16815250600290600161025a929190610ac8565b5050565b610266610b4f565b60035f60015481526020019081526020015f206040518060e00160405290815f8201805461029390610f56565b80601f01602080910402602001604051908101604052809291908181526020018280546102bf90610f56565b801561030a5780601f106102e15761010080835404028352916020019161030a565b820191905f5260205f20905b8154815290600101906020018083116102ed57829003601f168201915b5050505050815260200160018201548152602001600282015481526020016003820154815260200160048201548152602001600582015f9054906101000a900460ff161515151581526020016005820160019054906101000a900460ff161515151581525050905090565b5f8054906101000a900473ffffffffffffffffffffffffffffffffffffffff1673ffffffffffffffffffffffffffffffffffffffff163373ffffffffffffffffffffffffffffffffffffffff16146103cb575f80fd5b6001805f8282546103dc9190610fb3565b925050819055506040518060e0016040528084848080601f0160208091040260200160405190810160405280939291908181526020018383808284375f81840152601f19601f8201169050808301925050505050505081526020015f81526020015f81526020015f81526020018281526020015f151581526020016001151581525060035f60015481526020019081526020015f205f820151815f01908161048491906111b0565b506020820151816001015560408201518160020155606082015181600301556080820151816004015560a0820151816005015f6101000a81548160ff02191690831515021790555060c08201518160050160016101000a81548160ff021916908315150217905550905050505050565b6001151560035f60015481526020019081526020015f2060050160019054906101000a900460ff1615151461055e576040517f08c379a0000000000000000000000000000000000000000000000000000000008152600401610555906112d9565b60405180910390fd5b33610568816108a5565b156105a8576040517f08c379a000000000000000000000000000000000000000000000000000000000815260040161059f90611341565b60405180910390fd5b5f60035f60015481526020019081526020015f2090505f8160030154826002015483600101546105d89190610fb3565b6105e29190610fb3565b9050600233908060018154018082558091505060019003905f5260205f20015f9091909190916101000a81548173ffffffffffffffffffffffffffffffffffffffff021916908373ffffffffffffffffffffffffffffffffffffffff16021790555060018460ff1603610691576001826001015f8282546106639190610fb3565b92505081905550610672610a37565b826005015f6101000a81548160ff021916908315150217905550610729565b60028460ff16036106de576001826002015f8282546106b09190610fb3565b925050819055506106bf610a37565b826005015f6101000a81548160ff021916908315150217905550610728565b60038460ff1603610727576001826003015f8282546106fd9190610fb3565b9250508190555061070c610a37565b826005015f6101000a81548160ff0219169083151502179055505b5b5b600181836004015461073b919061135f565b148015610766575060018460ff161480610758575060028460ff16145b8061076557505f8460ff16145b5b15610788575f8260050160016101000a81548160ff0219169083151502179055505b50505050565b610796610b4f565b60035f8381526020019081526020015f206040518060e00160405290815f820180546107c190610f56565b80601f01602080910402602001604051908101604052809291908181526020018280546107ed90610f56565b80156108385780601f1061080f57610100808354040283529160200191610838565b820191905f5260205f20905b81548152906001019060200180831161081b57829003601f168201915b5050505050815260200160018201548152602001600282015481526020016003820154815260200160048201548152602001600582015f9054906101000a900460ff161515151581526020016005820160019054906101000a900460ff1615151515815250509050919050565b5f805f90505b60028054905081101561093d578273ffffffffffffffffffffffffffffffffffffffff16600282815481106108e3576108e2611392565b5b905f5260205f20015f9054906101000a900473ffffffffffffffffffffffffffffffffffffffff1673ffffffffffffffffffffffffffffffffffffffff1603610930576001915050610942565b80806001019150506108ab565b505f90505b919050565b5f8054906101000a900473ffffffffffffffffffffffffffffffffffffffff1673ffffffffffffffffffffffffffffffffffffffff163373ffffffffffffffffffffffffffffffffffffffff161461099d575f80fd5b6001151560035f60015481526020019081526020015f2060050160019054906101000a900460ff16151514610a07576040517f08c379a00000000000000000000000000000000000000000000000000000000081526004016109fe906112d9565b60405180910390fd5b5f60035f60015481526020019081526020015f2060050160016101000a81548160ff021916908315150217905550565b5f8060035f60015481526020019081526020015f2090505f816001015490505f826002015490505f83600301549050600160028560030154610a7991906113ec565b03610a8e57600181610a8b9190610fb3565b90505b600281610a9b919061141c565b90508082610aa99190610fb3565b831115610abd576001945050505050610ac5565b5f9450505050505b90565b828054828255905f5260205f20908101928215610b3e579160200282015b82811115610b3d578251825f6101000a81548173ffffffffffffffffffffffffffffffffffffffff021916908373ffffffffffffffffffffffffffffffffffffffff16021790555091602001919060010190610ae6565b5b509050610b4b9190610b8a565b5090565b6040518060e00160405280606081526020015f81526020015f81526020015f81526020015f81526020015f151581526020015f151581525090565b5b80821115610ba1575f815f905550600101610b8b565b5090565b5f80fd5b5f80fd5b5f73ffffffffffffffffffffffffffffffffffffffff82169050919050565b5f610bd682610bad565b9050919050565b610be681610bcc565b8114610bf0575f80fd5b50565b5f81359050610c0181610bdd565b92915050565b5f60208284031215610c1c57610c1b610ba5565b5b5f610c2984828501610bf3565b91505092915050565b5f81519050919050565b5f82825260208201905092915050565b8281835e5f83830152505050565b5f601f19601f8301169050919050565b5f610c7482610c32565b610c7e8185610c3c565b9350610c8e818560208601610c4c565b610c9781610c5a565b840191505092915050565b5f819050919050565b610cb481610ca2565b82525050565b5f8115159050919050565b610cce81610cba565b82525050565b5f60e083015f8301518482035f860152610cee8282610c6a565b9150506020830151610d036020860182610cab565b506040830151610d166040860182610cab565b506060830151610d296060860182610cab565b506080830151610d3c6080860182610cab565b5060a0830151610d4f60a0860182610cc5565b5060c0830151610d6260c0860182610cc5565b508091505092915050565b5f6020820190508181035f830152610d858184610cd4565b905092915050565b5f80fd5b5f80fd5b5f80fd5b5f8083601f840112610dae57610dad610d8d565b5b8235905067ffffffffffffffff811115610dcb57610dca610d91565b5b602083019150836001820283011115610de757610de6610d95565b5b9250929050565b610df781610ca2565b8114610e01575f80fd5b50565b5f81359050610e1281610dee565b92915050565b5f805f60408486031215610e2f57610e2e610ba5565b5b5f84013567ffffffffffffffff811115610e4c57610e4b610ba9565b5b610e5886828701610d99565b93509350506020610e6b86828701610e04565b9150509250925092565b5f60ff82169050919050565b610e8a81610e75565b8114610e94575f80fd5b50565b5f81359050610ea581610e81565b92915050565b5f60208284031215610ec057610ebf610ba5565b5b5f610ecd84828501610e97565b91505092915050565b5f60208284031215610eeb57610eea610ba5565b5b5f610ef884828501610e04565b91505092915050565b610f0a81610cba565b82525050565b5f602082019050610f235f830184610f01565b92915050565b7f4e487b71000000000000000000000000000000000000000000000000000000005f52602260045260245ffd5b5f6002820490506001821680610f6d57607f821691505b602082108103610f8057610f7f610f29565b5b50919050565b7f4e487b71000000000000000000000000000000000000000000000000000000005f52601160045260245ffd5b5f610fbd82610ca2565b9150610fc883610ca2565b9250828201905080821115610fe057610fdf610f86565b5b92915050565b7f4e487b71000000000000000000000000000000000000000000000000000000005f52604160045260245ffd5b5f819050815f5260205f209050919050565b5f6020601f8301049050919050565b5f82821b905092915050565b5f6008830261106f7fffffffffffffffffffffffffffffffffffffffffffffffffffffffffffffffff82611034565b6110798683611034565b95508019841693508086168417925050509392505050565b5f819050919050565b5f6110b46110af6110aa84610ca2565b611091565b610ca2565b9050919050565b5f819050919050565b6110cd8361109a565b6110e16110d9826110bb565b848454611040565b825550505050565b5f90565b6110f56110e9565b6111008184846110c4565b505050565b5b81811015611123576111185f826110ed565b600181019050611106565b5050565b601f8211156111685761113981611013565b61114284611025565b81016020851015611151578190505b61116561115d85611025565b830182611105565b50505b505050565b5f82821c905092915050565b5f6111885f198460080261116d565b1980831691505092915050565b5f6111a08383611179565b9150826002028217905092915050565b6111b982610c32565b67ffffffffffffffff8111156111d2576111d1610fe6565b5b6111dc8254610f56565b6111e7828285611127565b5f60209050601f831160018114611218575f8415611206578287015190505b6112108582611195565b865550611277565b601f19841661122686611013565b5f5b8281101561124d57848901518255600182019150602085019450602081019050611228565b8683101561126a5784890151611266601f891682611179565b8355505b6001600288020188555050505b505050505050565b5f82825260208201905092915050565b7f5468652070726f706f73616c206973206e6f74206163746976650000000000005f82015250565b5f6112c3601a8361127f565b91506112ce8261128f565b602082019050919050565b5f6020820190508181035f8301526112f0816112b7565b9050919050565b7f416464726573732068617320616c726561647920766f746564000000000000005f82015250565b5f61132b60198361127f565b9150611336826112f7565b602082019050919050565b5f6020820190508181035f8301526113588161131f565b9050919050565b5f61136982610ca2565b915061137483610ca2565b925082820390508181111561138c5761138b610f86565b5b92915050565b7f4e487b71000000000000000000000000000000000000000000000000000000005f52603260045260245ffd5b7f4e487b71000000000000000000000000000000000000000000000000000000005f52601260045260245ffd5b5f6113f682610ca2565b915061140183610ca2565b925082611411576114106113bf565b5b828206905092915050565b5f61142682610ca2565b915061143183610ca2565b925082611441576114406113bf565b5b82820490509291505056fea26469706673582212206e254582a6d88fdaaee0b07dbacb8a452256126fbbdd4610ae4904f407bf69a964736f6c634300081a0033",
					"opcodes": "PUSH1 0x80 PUSH1 0x40 MSTORE CALLVALUE DUP1 ISZERO PUSH1 0xE JUMPI PUSH0 DUP1 REVERT JUMPDEST POP CALLER PUSH0 DUP1 PUSH2 0x100 EXP DUP2 SLOAD DUP2 PUSH20 0xFFFFFFFFFFFFFFFFFFFFFFFFFFFFFFFFFFFFFFFF MUL NOT AND SWAP1 DUP4 PUSH20 0xFFFFFFFFFFFFFFFFFFFFFFFFFFFFFFFFFFFFFFFF AND MUL OR SWAP1 SSTORE POP PUSH1 0x2 CALLER SWAP1 DUP1 PUSH1 0x1 DUP2 SLOAD ADD DUP1 DUP3 SSTORE DUP1 SWAP2 POP POP PUSH1 0x1 SWAP1 SUB SWAP1 PUSH0 MSTORE PUSH1 0x20 PUSH0 KECCAK256 ADD PUSH0 SWAP1 SWAP2 SWAP1 SWAP2 SWAP1 SWAP2 PUSH2 0x100 EXP DUP2 SLOAD DUP2 PUSH20 0xFFFFFFFFFFFFFFFFFFFFFFFFFFFFFFFFFFFFFFFF MUL NOT AND SWAP1 DUP4 PUSH20 0xFFFFFFFFFFFFFFFFFFFFFFFFFFFFFFFFFFFFFFFF AND MUL OR SWAP1 SSTORE POP PUSH2 0x1482 DUP1 PUSH2 0xBB PUSH0 CODECOPY PUSH0 RETURN INVALID PUSH1 0x80 PUSH1 0x40 MSTORE CALLVALUE DUP1 ISZERO PUSH2 0xF JUMPI PUSH0 DUP1 REVERT JUMPDEST POP PUSH1 0x4 CALLDATASIZE LT PUSH2 0x7B JUMPI PUSH0 CALLDATALOAD PUSH1 0xE0 SHR DUP1 PUSH4 0xB3F98ADC GT PUSH2 0x59 JUMPI DUP1 PUSH4 0xB3F98ADC EQ PUSH2 0xD5 JUMPI DUP1 PUSH4 0xC7F758A8 EQ PUSH2 0xF1 JUMPI DUP1 PUSH4 0xCBFF75CB EQ PUSH2 0x121 JUMPI DUP1 PUSH4 0xDBDDC7AA EQ PUSH2 0x151 JUMPI PUSH2 0x7B JUMP JUMPDEST DUP1 PUSH4 0x13AF4035 EQ PUSH2 0x7F JUMPI DUP1 PUSH4 0x41EC6870 EQ PUSH2 0x9B JUMPI DUP1 PUSH4 0x46F81A87 EQ PUSH2 0xB9 JUMPI JUMPDEST PUSH0 DUP1 REVERT JUMPDEST PUSH2 0x99 PUSH1 0x4 DUP1 CALLDATASIZE SUB DUP2 ADD SWAP1 PUSH2 0x94 SWAP2 SWAP1 PUSH2 0xC07 JUMP JUMPDEST PUSH2 0x15B JUMP JUMPDEST STOP JUMPDEST PUSH2 0xA3 PUSH2 0x25E JUMP JUMPDEST PUSH1 0x40 MLOAD PUSH2 0xB0 SWAP2 SWAP1 PUSH2 0xD6D JUMP JUMPDEST PUSH1 0x40 MLOAD DUP1 SWAP2 SUB SWAP1 RETURN JUMPDEST PUSH2 0xD3 PUSH1 0x4 DUP1 CALLDATASIZE SUB DUP2 ADD SWAP1 PUSH2 0xCE SWAP2 SWAP1 PUSH2 0xE18 JUMP JUMPDEST PUSH2 0x375 JUMP JUMPDEST STOP JUMPDEST PUSH2 0xEF PUSH1 0x4 DUP1 CALLDATASIZE SUB DUP2 ADD SWAP1 PUSH2 0xEA SWAP2 SWAP1 PUSH2 0xEAB JUMP JUMPDEST PUSH2 0x4F4 JUMP JUMPDEST STOP JUMPDEST PUSH2 0x10B PUSH1 0x4 DUP1 CALLDATASIZE SUB DUP2 ADD SWAP1 PUSH2 0x106 SWAP2 SWAP1 PUSH2 0xED6 JUMP JUMPDEST PUSH2 0x78E JUMP JUMPDEST PUSH1 0x40 MLOAD PUSH2 0x118 SWAP2 SWAP1 PUSH2 0xD6D JUMP JUMPDEST PUSH1 0x40 MLOAD DUP1 SWAP2 SUB SWAP1 RETURN JUMPDEST PUSH2 0x13B PUSH1 0x4 DUP1 CALLDATASIZE SUB DUP2 ADD SWAP1 PUSH2 0x136 SWAP2 SWAP1 PUSH2 0xC07 JUMP JUMPDEST PUSH2 0x8A5 JUMP JUMPDEST PUSH1 0x40 MLOAD PUSH2 0x148 SWAP2 SWAP1 PUSH2 0xF10 JUMP JUMPDEST PUSH1 0x40 MLOAD DUP1 SWAP2 SUB SWAP1 RETURN JUMPDEST PUSH2 0x159 PUSH2 0x947 JUMP JUMPDEST STOP JUMPDEST PUSH0 DUP1 SLOAD SWAP1 PUSH2 0x100 EXP SWAP1 DIV PUSH20 0xFFFFFFFFFFFFFFFFFFFFFFFFFFFFFFFFFFFFFFFF AND PUSH20 0xFFFFFFFFFFFFFFFFFFFFFFFFFFFFFFFFFFFFFFFF AND CALLER PUSH20 0xFFFFFFFFFFFFFFFFFFFFFFFFFFFFFFFFFFFFFFFF AND EQ PUSH2 0x1B1 JUMPI PUSH0 DUP1 REVERT JUMPDEST DUP1 PUSH0 DUP1 PUSH2 0x100 EXP DUP2 SLOAD DUP2 PUSH20 0xFFFFFFFFFFFFFFFFFFFFFFFFFFFFFFFFFFFFFFFF MUL NOT AND SWAP1 DUP4 PUSH20 0xFFFFFFFFFFFFFFFFFFFFFFFFFFFFFFFFFFFFFFFF AND MUL OR SWAP1 SSTORE POP PUSH1 0x40 MLOAD DUP1 PUSH1 0x20 ADD PUSH1 0x40 MSTORE DUP1 PUSH0 DUP1 SLOAD SWAP1 PUSH2 0x100 EXP SWAP1 DIV PUSH20 0xFFFFFFFFFFFFFFFFFFFFFFFFFFFFFFFFFFFFFFFF AND PUSH20 0xFFFFFFFFFFFFFFFFFFFFFFFFFFFFFFFFFFFFFFFF AND PUSH20 0xFFFFFFFFFFFFFFFFFFFFFFFFFFFFFFFFFFFFFFFF AND DUP2 MSTORE POP PUSH1 0x2 SWAP1 PUSH1 0x1 PUSH2 0x25A SWAP3 SWAP2 SWAP1 PUSH2 0xAC8 JUMP JUMPDEST POP POP JUMP JUMPDEST PUSH2 0x266 PUSH2 0xB4F JUMP JUMPDEST PUSH1 0x3 PUSH0 PUSH1 0x1 SLOAD DUP2 MSTORE PUSH1 0x20 ADD SWAP1 DUP2 MSTORE PUSH1 0x20 ADD PUSH0 KECCAK256 PUSH1 0x40 MLOAD DUP1 PUSH1 0xE0 ADD PUSH1 0x40 MSTORE SWAP1 DUP2 PUSH0 DUP3 ADD DUP1 SLOAD PUSH2 0x293 SWAP1 PUSH2 0xF56 JUMP JUMPDEST DUP1 PUSH1 0x1F ADD PUSH1 0x20 DUP1 SWAP2 DIV MUL PUSH1 0x20 ADD PUSH1 0x40 MLOAD SWAP1 DUP2 ADD PUSH1 0x40 MSTORE DUP1 SWAP3 SWAP2 SWAP1 DUP2 DUP2 MSTORE PUSH1 0x20 ADD DUP3 DUP1 SLOAD PUSH2 0x2BF SWAP1 PUSH2 0xF56 JUMP JUMPDEST DUP1 ISZERO PUSH2 0x30A JUMPI DUP1 PUSH1 0x1F LT PUSH2 0x2E1 JUMPI PUSH2 0x100 DUP1 DUP4 SLOAD DIV MUL DUP4 MSTORE SWAP2 PUSH1 0x20 ADD SWAP2 PUSH2 0x30A JUMP JUMPDEST DUP3 ADD SWAP2 SWAP1 PUSH0 MSTORE PUSH1 0x20 PUSH0 KECCAK256 SWAP1 JUMPDEST DUP2 SLOAD DUP2 MSTORE SWAP1 PUSH1 0x1 ADD SWAP1 PUSH1 0x20 ADD DUP1 DUP4 GT PUSH2 0x2ED JUMPI DUP3 SWAP1 SUB PUSH1 0x1F AND DUP3 ADD SWAP2 JUMPDEST POP POP POP POP POP DUP2 MSTORE PUSH1 0x20 ADD PUSH1 0x1 DUP3 ADD SLOAD DUP2 MSTORE PUSH1 0x20 ADD PUSH1 0x2 DUP3 ADD SLOAD DUP2 MSTORE PUSH1 0x20 ADD PUSH1 0x3 DUP3 ADD SLOAD DUP2 MSTORE PUSH1 0x20 ADD PUSH1 0x4 DUP3 ADD SLOAD DUP2 MSTORE PUSH1 0x20 ADD PUSH1 0x5 DUP3 ADD PUSH0 SWAP1 SLOAD SWAP1 PUSH2 0x100 EXP SWAP1 DIV PUSH1 0xFF AND ISZERO ISZERO ISZERO ISZERO DUP2 MSTORE PUSH1 0x20 ADD PUSH1 0x5 DUP3 ADD PUSH1 0x1 SWAP1 SLOAD SWAP1 PUSH2 0x100 EXP SWAP1 DIV PUSH1 0xFF AND ISZERO ISZERO ISZERO ISZERO DUP2 MSTORE POP POP SWAP1 POP SWAP1 JUMP JUMPDEST PUSH0 DUP1 SLOAD SWAP1 PUSH2 0x100 EXP SWAP1 DIV PUSH20 0xFFFFFFFFFFFFFFFFFFFFFFFFFFFFFFFFFFFFFFFF AND PUSH20 0xFFFFFFFFFFFFFFFFFFFFFFFFFFFFFFFFFFFFFFFF AND CALLER PUSH20 0xFFFFFFFFFFFFFFFFFFFFFFFFFFFFFFFFFFFFFFFF AND EQ PUSH2 0x3CB JUMPI PUSH0 DUP1 REVERT JUMPDEST PUSH1 0x1 DUP1 PUSH0 DUP3 DUP3 SLOAD PUSH2 0x3DC SWAP2 SWAP1 PUSH2 0xFB3 JUMP JUMPDEST SWAP3 POP POP DUP2 SWAP1 SSTORE POP PUSH1 0x40 MLOAD DUP1 PUSH1 0xE0 ADD PUSH1 0x40 MSTORE DUP1 DUP5 DUP5 DUP1 DUP1 PUSH1 0x1F ADD PUSH1 0x20 DUP1 SWAP2 DIV MUL PUSH1 0x20 ADD PUSH1 0x40 MLOAD SWAP1 DUP2 ADD PUSH1 0x40 MSTORE DUP1 SWAP4 SWAP3 SWAP2 SWAP1 DUP2 DUP2 MSTORE PUSH1 0x20 ADD DUP4 DUP4 DUP1 DUP3 DUP5 CALLDATACOPY PUSH0 DUP2 DUP5 ADD MSTORE PUSH1 0x1F NOT PUSH1 0x1F DUP3 ADD AND SWAP1 POP DUP1 DUP4 ADD SWAP3 POP POP POP POP POP POP POP DUP2 MSTORE PUSH1 0x20 ADD PUSH0 DUP2 MSTORE PUSH1 0x20 ADD PUSH0 DUP2 MSTORE PUSH1 0x20 ADD PUSH0 DUP2 MSTORE PUSH1 0x20 ADD DUP3 DUP2 MSTORE PUSH1 0x20 ADD PUSH0 ISZERO ISZERO DUP2 MSTORE PUSH1 0x20 ADD PUSH1 0x1 ISZERO ISZERO DUP2 MSTORE POP PUSH1 0x3 PUSH0 PUSH1 0x1 SLOAD DUP2 MSTORE PUSH1 0x20 ADD SWAP1 DUP2 MSTORE PUSH1 0x20 ADD PUSH0 KECCAK256 PUSH0 DUP3 ADD MLOAD DUP2 PUSH0 ADD SWAP1 DUP2 PUSH2 0x484 SWAP2 SWAP1 PUSH2 0x11B0 JUMP JUMPDEST POP PUSH1 0x20 DUP3 ADD MLOAD DUP2 PUSH1 0x1 ADD SSTORE PUSH1 0x40 DUP3 ADD MLOAD DUP2 PUSH1 0x2 ADD SSTORE PUSH1 0x60 DUP3 ADD MLOAD DUP2 PUSH1 0x3 ADD SSTORE PUSH1 0x80 DUP3 ADD MLOAD DUP2 PUSH1 0x4 ADD SSTORE PUSH1 0xA0 DUP3 ADD MLOAD DUP2 PUSH1 0x5 ADD PUSH0 PUSH2 0x100 EXP DUP2 SLOAD DUP2 PUSH1 0xFF MUL NOT AND SWAP1 DUP4 ISZERO ISZERO MUL OR SWAP1 SSTORE POP PUSH1 0xC0 DUP3 ADD MLOAD DUP2 PUSH1 0x5 ADD PUSH1 0x1 PUSH2 0x100 EXP DUP2 SLOAD DUP2 PUSH1 0xFF MUL NOT AND SWAP1 DUP4 ISZERO ISZERO MUL OR SWAP1 SSTORE POP SWAP1 POP POP POP POP POP JUMP JUMPDEST PUSH1 0x1 ISZERO ISZERO PUSH1 0x3 PUSH0 PUSH1 0x1 SLOAD DUP2 MSTORE PUSH1 0x20 ADD SWAP1 DUP2 MSTORE PUSH1 0x20 ADD PUSH0 KECCAK256 PUSH1 0x5 ADD PUSH1 0x1 SWAP1 SLOAD SWAP1 PUSH2 0x100 EXP SWAP1 DIV PUSH1 0xFF AND ISZERO ISZERO EQ PUSH2 0x55E JUMPI PUSH1 0x40 MLOAD PUSH32 0x8C379A000000000000000000000000000000000000000000000000000000000 DUP2 MSTORE PUSH1 0x4 ADD PUSH2 0x555 SWAP1 PUSH2 0x12D9 JUMP JUMPDEST PUSH1 0x40 MLOAD DUP1 SWAP2 SUB SWAP1 REVERT JUMPDEST CALLER PUSH2 0x568 DUP2 PUSH2 0x8A5 JUMP JUMPDEST ISZERO PUSH2 0x5A8 JUMPI PUSH1 0x40 MLOAD PUSH32 0x8C379A000000000000000000000000000000000000000000000000000000000 DUP2 MSTORE PUSH1 0x4 ADD PUSH2 0x59F SWAP1 PUSH2 0x1341 JUMP JUMPDEST PUSH1 0x40 MLOAD DUP1 SWAP2 SUB SWAP1 REVERT JUMPDEST PUSH0 PUSH1 0x3 PUSH0 PUSH1 0x1 SLOAD DUP2 MSTORE PUSH1 0x20 ADD SWAP1 DUP2 MSTORE PUSH1 0x20 ADD PUSH0 KECCAK256 SWAP1 POP PUSH0 DUP2 PUSH1 0x3 ADD SLOAD DUP3 PUSH1 0x2 ADD SLOAD DUP4 PUSH1 0x1 ADD SLOAD PUSH2 0x5D8 SWAP2 SWAP1 PUSH2 0xFB3 JUMP JUMPDEST PUSH2 0x5E2 SWAP2 SWAP1 PUSH2 0xFB3 JUMP JUMPDEST SWAP1 POP PUSH1 0x2 CALLER SWAP1 DUP1 PUSH1 0x1 DUP2 SLOAD ADD DUP1 DUP3 SSTORE DUP1 SWAP2 POP POP PUSH1 0x1 SWAP1 SUB SWAP1 PUSH0 MSTORE PUSH1 0x20 PUSH0 KECCAK256 ADD PUSH0 SWAP1 SWAP2 SWAP1 SWAP2 SWAP1 SWAP2 PUSH2 0x100 EXP DUP2 SLOAD DUP2 PUSH20 0xFFFFFFFFFFFFFFFFFFFFFFFFFFFFFFFFFFFFFFFF MUL NOT AND SWAP1 DUP4 PUSH20 0xFFFFFFFFFFFFFFFFFFFFFFFFFFFFFFFFFFFFFFFF AND MUL OR SWAP1 SSTORE POP PUSH1 0x1 DUP5 PUSH1 0xFF AND SUB PUSH2 0x691 JUMPI PUSH1 0x1 DUP3 PUSH1 0x1 ADD PUSH0 DUP3 DUP3 SLOAD PUSH2 0x663 SWAP2 SWAP1 PUSH2 0xFB3 JUMP JUMPDEST SWAP3 POP POP DUP2 SWAP1 SSTORE POP PUSH2 0x672 PUSH2 0xA37 JUMP JUMPDEST DUP3 PUSH1 0x5 ADD PUSH0 PUSH2 0x100 EXP DUP2 SLOAD DUP2 PUSH1 0xFF MUL NOT AND SWAP1 DUP4 ISZERO ISZERO MUL OR SWAP1 SSTORE POP PUSH2 0x729 JUMP JUMPDEST PUSH1 0x2 DUP5 PUSH1 0xFF AND SUB PUSH2 0x6DE JUMPI PUSH1 0x1 DUP3 PUSH1 0x2 ADD PUSH0 DUP3 DUP3 SLOAD PUSH2 0x6B0 SWAP2 SWAP1 PUSH2 0xFB3 JUMP JUMPDEST SWAP3 POP POP DUP2 SWAP1 SSTORE POP PUSH2 0x6BF PUSH2 0xA37 JUMP JUMPDEST DUP3 PUSH1 0x5 ADD PUSH0 PUSH2 0x100 EXP DUP2 SLOAD DUP2 PUSH1 0xFF MUL NOT AND SWAP1 DUP4 ISZERO ISZERO MUL OR SWAP1 SSTORE POP PUSH2 0x728 JUMP JUMPDEST PUSH1 0x3 DUP5 PUSH1 0xFF AND SUB PUSH2 0x727 JUMPI PUSH1 0x1 DUP3 PUSH1 0x3 ADD PUSH0 DUP3 DUP3 SLOAD PUSH2 0x6FD SWAP2 SWAP1 PUSH2 0xFB3 JUMP JUMPDEST SWAP3 POP POP DUP2 SWAP1 SSTORE POP PUSH2 0x70C PUSH2 0xA37 JUMP JUMPDEST DUP3 PUSH1 0x5 ADD PUSH0 PUSH2 0x100 EXP DUP2 SLOAD DUP2 PUSH1 0xFF MUL NOT AND SWAP1 DUP4 ISZERO ISZERO MUL OR SWAP1 SSTORE POP JUMPDEST JUMPDEST JUMPDEST PUSH1 0x1 DUP2 DUP4 PUSH1 0x4 ADD SLOAD PUSH2 0x73B SWAP2 SWAP1 PUSH2 0x135F JUMP JUMPDEST EQ DUP1 ISZERO PUSH2 0x766 JUMPI POP PUSH1 0x1 DUP5 PUSH1 0xFF AND EQ DUP1 PUSH2 0x758 JUMPI POP PUSH1 0x2 DUP5 PUSH1 0xFF AND EQ JUMPDEST DUP1 PUSH2 0x765 JUMPI POP PUSH0 DUP5 PUSH1 0xFF AND EQ JUMPDEST JUMPDEST ISZERO PUSH2 0x788 JUMPI PUSH0 DUP3 PUSH1 0x5 ADD PUSH1 0x1 PUSH2 0x100 EXP DUP2 SLOAD DUP2 PUSH1 0xFF MUL NOT AND SWAP1 DUP4 ISZERO ISZERO MUL OR SWAP1 SSTORE POP JUMPDEST POP POP POP POP JUMP JUMPDEST PUSH2 0x796 PUSH2 0xB4F JUMP JUMPDEST PUSH1 0x3 PUSH0 DUP4 DUP2 MSTORE PUSH1 0x20 ADD SWAP1 DUP2 MSTORE PUSH1 0x20 ADD PUSH0 KECCAK256 PUSH1 0x40 MLOAD DUP1 PUSH1 0xE0 ADD PUSH1 0x40 MSTORE SWAP1 DUP2 PUSH0 DUP3 ADD DUP1 SLOAD PUSH2 0x7C1 SWAP1 PUSH2 0xF56 JUMP JUMPDEST DUP1 PUSH1 0x1F ADD PUSH1 0x20 DUP1 SWAP2 DIV MUL PUSH1 0x20 ADD PUSH1 0x40 MLOAD SWAP1 DUP2 ADD PUSH1 0x40 MSTORE DUP1 SWAP3 SWAP2 SWAP1 DUP2 DUP2 MSTORE PUSH1 0x20 ADD DUP3 DUP1 SLOAD PUSH2 0x7ED SWAP1 PUSH2 0xF56 JUMP JUMPDEST DUP1 ISZERO PUSH2 0x838 JUMPI DUP1 PUSH1 0x1F LT PUSH2 0x80F JUMPI PUSH2 0x100 DUP1 DUP4 SLOAD DIV MUL DUP4 MSTORE SWAP2 PUSH1 0x20 ADD SWAP2 PUSH2 0x838 JUMP JUMPDEST DUP3 ADD SWAP2 SWAP1 PUSH0 MSTORE PUSH1 0x20 PUSH0 KECCAK256 SWAP1 JUMPDEST DUP2 SLOAD DUP2 MSTORE SWAP1 PUSH1 0x1 ADD SWAP1 PUSH1 0x20 ADD DUP1 DUP4 GT PUSH2 0x81B JUMPI DUP3 SWAP1 SUB PUSH1 0x1F AND DUP3 ADD SWAP2 JUMPDEST POP POP POP POP POP DUP2 MSTORE PUSH1 0x20 ADD PUSH1 0x1 DUP3 ADD SLOAD DUP2 MSTORE PUSH1 0x20 ADD PUSH1 0x2 DUP3 ADD SLOAD DUP2 MSTORE PUSH1 0x20 ADD PUSH1 0x3 DUP3 ADD SLOAD DUP2 MSTORE PUSH1 0x20 ADD PUSH1 0x4 DUP3 ADD SLOAD DUP2 MSTORE PUSH1 0x20 ADD PUSH1 0x5 DUP3 ADD PUSH0 SWAP1 SLOAD SWAP1 PUSH2 0x100 EXP SWAP1 DIV PUSH1 0xFF AND ISZERO ISZERO ISZERO ISZERO DUP2 MSTORE PUSH1 0x20 ADD PUSH1 0x5 DUP3 ADD PUSH1 0x1 SWAP1 SLOAD SWAP1 PUSH2 0x100 EXP SWAP1 DIV PUSH1 0xFF AND ISZERO ISZERO ISZERO ISZERO DUP2 MSTORE POP POP SWAP1 POP SWAP2 SWAP1 POP JUMP JUMPDEST PUSH0 DUP1 PUSH0 SWAP1 POP JUMPDEST PUSH1 0x2 DUP1 SLOAD SWAP1 POP DUP2 LT ISZERO PUSH2 0x93D JUMPI DUP3 PUSH20 0xFFFFFFFFFFFFFFFFFFFFFFFFFFFFFFFFFFFFFFFF AND PUSH1 0x2 DUP3 DUP2 SLOAD DUP2 LT PUSH2 0x8E3 JUMPI PUSH2 0x8E2 PUSH2 0x1392 JUMP JUMPDEST JUMPDEST SWAP1 PUSH0 MSTORE PUSH1 0x20 PUSH0 KECCAK256 ADD PUSH0 SWAP1 SLOAD SWAP1 PUSH2 0x100 EXP SWAP1 DIV PUSH20 0xFFFFFFFFFFFFFFFFFFFFFFFFFFFFFFFFFFFFFFFF AND PUSH20 0xFFFFFFFFFFFFFFFFFFFFFFFFFFFFFFFFFFFFFFFF AND SUB PUSH2 0x930 JUMPI PUSH1 0x1 SWAP2 POP POP PUSH2 0x942 JUMP JUMPDEST DUP1 DUP1 PUSH1 0x1 ADD SWAP2 POP POP PUSH2 0x8AB JUMP JUMPDEST POP PUSH0 SWAP1 POP JUMPDEST SWAP2 SWAP1 POP JUMP JUMPDEST PUSH0 DUP1 SLOAD SWAP1 PUSH2 0x100 EXP SWAP1 DIV PUSH20 0xFFFFFFFFFFFFFFFFFFFFFFFFFFFFFFFFFFFFFFFF AND PUSH20 0xFFFFFFFFFFFFFFFFFFFFFFFFFFFFFFFFFFFFFFFF AND CALLER PUSH20 0xFFFFFFFFFFFFFFFFFFFFFFFFFFFFFFFFFFFFFFFF AND EQ PUSH2 0x99D JUMPI PUSH0 DUP1 REVERT JUMPDEST PUSH1 0x1 ISZERO ISZERO PUSH1 0x3 PUSH0 PUSH1 0x1 SLOAD DUP2 MSTORE PUSH1 0x20 ADD SWAP1 DUP2 MSTORE PUSH1 0x20 ADD PUSH0 KECCAK256 PUSH1 0x5 ADD PUSH1 0x1 SWAP1 SLOAD SWAP1 PUSH2 0x100 EXP SWAP1 DIV PUSH1 0xFF AND ISZERO ISZERO EQ PUSH2 0xA07 JUMPI PUSH1 0x40 MLOAD PUSH32 0x8C379A000000000000000000000000000000000000000000000000000000000 DUP2 MSTORE PUSH1 0x4 ADD PUSH2 0x9FE SWAP1 PUSH2 0x12D9 JUMP JUMPDEST PUSH1 0x40 MLOAD DUP1 SWAP2 SUB SWAP1 REVERT JUMPDEST PUSH0 PUSH1 0x3 PUSH0 PUSH1 0x1 SLOAD DUP2 MSTORE PUSH1 0x20 ADD SWAP1 DUP2 MSTORE PUSH1 0x20 ADD PUSH0 KECCAK256 PUSH1 0x5 ADD PUSH1 0x1 PUSH2 0x100 EXP DUP2 SLOAD DUP2 PUSH1 0xFF MUL NOT AND SWAP1 DUP4 ISZERO ISZERO MUL OR SWAP1 SSTORE POP JUMP JUMPDEST PUSH0 DUP1 PUSH1 0x3 PUSH0 PUSH1 0x1 SLOAD DUP2 MSTORE PUSH1 0x20 ADD SWAP1 DUP2 MSTORE PUSH1 0x20 ADD PUSH0 KECCAK256 SWAP1 POP PUSH0 DUP2 PUSH1 0x1 ADD SLOAD SWAP1 POP PUSH0 DUP3 PUSH1 0x2 ADD SLOAD SWAP1 POP PUSH0 DUP4 PUSH1 0x3 ADD SLOAD SWAP1 POP PUSH1 0x1 PUSH1 0x2 DUP6 PUSH1 0x3 ADD SLOAD PUSH2 0xA79 SWAP2 SWAP1 PUSH2 0x13EC JUMP JUMPDEST SUB PUSH2 0xA8E JUMPI PUSH1 0x1 DUP2 PUSH2 0xA8B SWAP2 SWAP1 PUSH2 0xFB3 JUMP JUMPDEST SWAP1 POP JUMPDEST PUSH1 0x2 DUP2 PUSH2 0xA9B SWAP2 SWAP1 PUSH2 0x141C JUMP JUMPDEST SWAP1 POP DUP1 DUP3 PUSH2 0xAA9 SWAP2 SWAP1 PUSH2 0xFB3 JUMP JUMPDEST DUP4 GT ISZERO PUSH2 0xABD JUMPI PUSH1 0x1 SWAP5 POP POP POP POP POP PUSH2 0xAC5 JUMP JUMPDEST PUSH0 SWAP5 POP POP POP POP POP JUMPDEST SWAP1 JUMP JUMPDEST DUP3 DUP1 SLOAD DUP3 DUP3 SSTORE SWAP1 PUSH0 MSTORE PUSH1 0x20 PUSH0 KECCAK256 SWAP1 DUP2 ADD SWAP3 DUP3 ISZERO PUSH2 0xB3E JUMPI SWAP2 PUSH1 0x20 MUL DUP3 ADD JUMPDEST DUP3 DUP2 GT ISZERO PUSH2 0xB3D JUMPI DUP3 MLOAD DUP3 PUSH0 PUSH2 0x100 EXP DUP2 SLOAD DUP2 PUSH20 0xFFFFFFFFFFFFFFFFFFFFFFFFFFFFFFFFFFFFFFFF MUL NOT AND SWAP1 DUP4 PUSH20 0xFFFFFFFFFFFFFFFFFFFFFFFFFFFFFFFFFFFFFFFF AND MUL OR SWAP1 SSTORE POP SWAP2 PUSH1 0x20 ADD SWAP2 SWAP1 PUSH1 0x1 ADD SWAP1 PUSH2 0xAE6 JUMP JUMPDEST JUMPDEST POP SWAP1 POP PUSH2 0xB4B SWAP2 SWAP1 PUSH2 0xB8A JUMP JUMPDEST POP SWAP1 JUMP JUMPDEST PUSH1 0x40 MLOAD DUP1 PUSH1 0xE0 ADD PUSH1 0x40 MSTORE DUP1 PUSH1 0x60 DUP2 MSTORE PUSH1 0x20 ADD PUSH0 DUP2 MSTORE PUSH1 0x20 ADD PUSH0 DUP2 MSTORE PUSH1 0x20 ADD PUSH0 DUP2 MSTORE PUSH1 0x20 ADD PUSH0 DUP2 MSTORE PUSH1 0x20 ADD PUSH0 ISZERO ISZERO DUP2 MSTORE PUSH1 0x20 ADD PUSH0 ISZERO ISZERO DUP2 MSTORE POP SWAP1 JUMP JUMPDEST JUMPDEST DUP1 DUP3 GT ISZERO PUSH2 0xBA1 JUMPI PUSH0 DUP2 PUSH0 SWAP1 SSTORE POP PUSH1 0x1 ADD PUSH2 0xB8B JUMP JUMPDEST POP SWAP1 JUMP JUMPDEST PUSH0 DUP1 REVERT JUMPDEST PUSH0 DUP1 REVERT JUMPDEST PUSH0 PUSH20 0xFFFFFFFFFFFFFFFFFFFFFFFFFFFFFFFFFFFFFFFF DUP3 AND SWAP1 POP SWAP2 SWAP1 POP JUMP JUMPDEST PUSH0 PUSH2 0xBD6 DUP3 PUSH2 0xBAD JUMP JUMPDEST SWAP1 POP SWAP2 SWAP1 POP JUMP JUMPDEST PUSH2 0xBE6 DUP2 PUSH2 0xBCC JUMP JUMPDEST DUP2 EQ PUSH2 0xBF0 JUMPI PUSH0 DUP1 REVERT JUMPDEST POP JUMP JUMPDEST PUSH0 DUP2 CALLDATALOAD SWAP1 POP PUSH2 0xC01 DUP2 PUSH2 0xBDD JUMP JUMPDEST SWAP3 SWAP2 POP POP JUMP JUMPDEST PUSH0 PUSH1 0x20 DUP3 DUP5 SUB SLT ISZERO PUSH2 0xC1C JUMPI PUSH2 0xC1B PUSH2 0xBA5 JUMP JUMPDEST JUMPDEST PUSH0 PUSH2 0xC29 DUP5 DUP3 DUP6 ADD PUSH2 0xBF3 JUMP JUMPDEST SWAP2 POP POP SWAP3 SWAP2 POP POP JUMP JUMPDEST PUSH0 DUP2 MLOAD SWAP1 POP SWAP2 SWAP1 POP JUMP JUMPDEST PUSH0 DUP3 DUP3 MSTORE PUSH1 0x20 DUP3 ADD SWAP1 POP SWAP3 SWAP2 POP POP JUMP JUMPDEST DUP3 DUP2 DUP4 MCOPY PUSH0 DUP4 DUP4 ADD MSTORE POP POP POP JUMP JUMPDEST PUSH0 PUSH1 0x1F NOT PUSH1 0x1F DUP4 ADD AND SWAP1 POP SWAP2 SWAP1 POP JUMP JUMPDEST PUSH0 PUSH2 0xC74 DUP3 PUSH2 0xC32 JUMP JUMPDEST PUSH2 0xC7E DUP2 DUP6 PUSH2 0xC3C JUMP JUMPDEST SWAP4 POP PUSH2 0xC8E DUP2 DUP6 PUSH1 0x20 DUP7 ADD PUSH2 0xC4C JUMP JUMPDEST PUSH2 0xC97 DUP2 PUSH2 0xC5A JUMP JUMPDEST DUP5 ADD SWAP2 POP POP SWAP3 SWAP2 POP POP JUMP JUMPDEST PUSH0 DUP2 SWAP1 POP SWAP2 SWAP1 POP JUMP JUMPDEST PUSH2 0xCB4 DUP2 PUSH2 0xCA2 JUMP JUMPDEST DUP3 MSTORE POP POP JUMP JUMPDEST PUSH0 DUP2 ISZERO ISZERO SWAP1 POP SWAP2 SWAP1 POP JUMP JUMPDEST PUSH2 0xCCE DUP2 PUSH2 0xCBA JUMP JUMPDEST DUP3 MSTORE POP POP JUMP JUMPDEST PUSH0 PUSH1 0xE0 DUP4 ADD PUSH0 DUP4 ADD MLOAD DUP5 DUP3 SUB PUSH0 DUP7 ADD MSTORE PUSH2 0xCEE DUP3 DUP3 PUSH2 0xC6A JUMP JUMPDEST SWAP2 POP POP PUSH1 0x20 DUP4 ADD MLOAD PUSH2 0xD03 PUSH1 0x20 DUP7 ADD DUP3 PUSH2 0xCAB JUMP JUMPDEST POP PUSH1 0x40 DUP4 ADD MLOAD PUSH2 0xD16 PUSH1 0x40 DUP7 ADD DUP3 PUSH2 0xCAB JUMP JUMPDEST POP PUSH1 0x60 DUP4 ADD MLOAD PUSH2 0xD29 PUSH1 0x60 DUP7 ADD DUP3 PUSH2 0xCAB JUMP JUMPDEST POP PUSH1 0x80 DUP4 ADD MLOAD PUSH2 0xD3C PUSH1 0x80 DUP7 ADD DUP3 PUSH2 0xCAB JUMP JUMPDEST POP PUSH1 0xA0 DUP4 ADD MLOAD PUSH2 0xD4F PUSH1 0xA0 DUP7 ADD DUP3 PUSH2 0xCC5 JUMP JUMPDEST POP PUSH1 0xC0 DUP4 ADD MLOAD PUSH2 0xD62 PUSH1 0xC0 DUP7 ADD DUP3 PUSH2 0xCC5 JUMP JUMPDEST POP DUP1 SWAP2 POP POP SWAP3 SWAP2 POP POP JUMP JUMPDEST PUSH0 PUSH1 0x20 DUP3 ADD SWAP1 POP DUP2 DUP2 SUB PUSH0 DUP4 ADD MSTORE PUSH2 0xD85 DUP2 DUP5 PUSH2 0xCD4 JUMP JUMPDEST SWAP1 POP SWAP3 SWAP2 POP POP JUMP JUMPDEST PUSH0 DUP1 REVERT JUMPDEST PUSH0 DUP1 REVERT JUMPDEST PUSH0 DUP1 REVERT JUMPDEST PUSH0 DUP1 DUP4 PUSH1 0x1F DUP5 ADD SLT PUSH2 0xDAE JUMPI PUSH2 0xDAD PUSH2 0xD8D JUMP JUMPDEST JUMPDEST DUP3 CALLDATALOAD SWAP1 POP PUSH8 0xFFFFFFFFFFFFFFFF DUP2 GT ISZERO PUSH2 0xDCB JUMPI PUSH2 0xDCA PUSH2 0xD91 JUMP JUMPDEST JUMPDEST PUSH1 0x20 DUP4 ADD SWAP2 POP DUP4 PUSH1 0x1 DUP3 MUL DUP4 ADD GT ISZERO PUSH2 0xDE7 JUMPI PUSH2 0xDE6 PUSH2 0xD95 JUMP JUMPDEST JUMPDEST SWAP3 POP SWAP3 SWAP1 POP JUMP JUMPDEST PUSH2 0xDF7 DUP2 PUSH2 0xCA2 JUMP JUMPDEST DUP2 EQ PUSH2 0xE01 JUMPI PUSH0 DUP1 REVERT JUMPDEST POP JUMP JUMPDEST PUSH0 DUP2 CALLDATALOAD SWAP1 POP PUSH2 0xE12 DUP2 PUSH2 0xDEE JUMP JUMPDEST SWAP3 SWAP2 POP POP JUMP JUMPDEST PUSH0 DUP1 PUSH0 PUSH1 0x40 DUP5 DUP7 SUB SLT ISZERO PUSH2 0xE2F JUMPI PUSH2 0xE2E PUSH2 0xBA5 JUMP JUMPDEST JUMPDEST PUSH0 DUP5 ADD CALLDATALOAD PUSH8 0xFFFFFFFFFFFFFFFF DUP2 GT ISZERO PUSH2 0xE4C JUMPI PUSH2 0xE4B PUSH2 0xBA9 JUMP JUMPDEST JUMPDEST PUSH2 0xE58 DUP7 DUP3 DUP8 ADD PUSH2 0xD99 JUMP JUMPDEST SWAP4 POP SWAP4 POP POP PUSH1 0x20 PUSH2 0xE6B DUP7 DUP3 DUP8 ADD PUSH2 0xE04 JUMP JUMPDEST SWAP2 POP POP SWAP3 POP SWAP3 POP SWAP3 JUMP JUMPDEST PUSH0 PUSH1 0xFF DUP3 AND SWAP1 POP SWAP2 SWAP1 POP JUMP JUMPDEST PUSH2 0xE8A DUP2 PUSH2 0xE75 JUMP JUMPDEST DUP2 EQ PUSH2 0xE94 JUMPI PUSH0 DUP1 REVERT JUMPDEST POP JUMP JUMPDEST PUSH0 DUP2 CALLDATALOAD SWAP1 POP PUSH2 0xEA5 DUP2 PUSH2 0xE81 JUMP JUMPDEST SWAP3 SWAP2 POP POP JUMP JUMPDEST PUSH0 PUSH1 0x20 DUP3 DUP5 SUB SLT ISZERO PUSH2 0xEC0 JUMPI PUSH2 0xEBF PUSH2 0xBA5 JUMP JUMPDEST JUMPDEST PUSH0 PUSH2 0xECD DUP5 DUP3 DUP6 ADD PUSH2 0xE97 JUMP JUMPDEST SWAP2 POP POP SWAP3 SWAP2 POP POP JUMP JUMPDEST PUSH0 PUSH1 0x20 DUP3 DUP5 SUB SLT ISZERO PUSH2 0xEEB JUMPI PUSH2 0xEEA PUSH2 0xBA5 JUMP JUMPDEST JUMPDEST PUSH0 PUSH2 0xEF8 DUP5 DUP3 DUP6 ADD PUSH2 0xE04 JUMP JUMPDEST SWAP2 POP POP SWAP3 SWAP2 POP POP JUMP JUMPDEST PUSH2 0xF0A DUP2 PUSH2 0xCBA JUMP JUMPDEST DUP3 MSTORE POP POP JUMP JUMPDEST PUSH0 PUSH1 0x20 DUP3 ADD SWAP1 POP PUSH2 0xF23 PUSH0 DUP4 ADD DUP5 PUSH2 0xF01 JUMP JUMPDEST SWAP3 SWAP2 POP POP JUMP JUMPDEST PUSH32 0x4E487B7100000000000000000000000000000000000000000000000000000000 PUSH0 MSTORE PUSH1 0x22 PUSH1 0x4 MSTORE PUSH1 0x24 PUSH0 REVERT JUMPDEST PUSH0 PUSH1 0x2 DUP3 DIV SWAP1 POP PUSH1 0x1 DUP3 AND DUP1 PUSH2 0xF6D JUMPI PUSH1 0x7F DUP3 AND SWAP2 POP JUMPDEST PUSH1 0x20 DUP3 LT DUP2 SUB PUSH2 0xF80 JUMPI PUSH2 0xF7F PUSH2 0xF29 JUMP JUMPDEST JUMPDEST POP SWAP2 SWAP1 POP JUMP JUMPDEST PUSH32 0x4E487B7100000000000000000000000000000000000000000000000000000000 PUSH0 MSTORE PUSH1 0x11 PUSH1 0x4 MSTORE PUSH1 0x24 PUSH0 REVERT JUMPDEST PUSH0 PUSH2 0xFBD DUP3 PUSH2 0xCA2 JUMP JUMPDEST SWAP2 POP PUSH2 0xFC8 DUP4 PUSH2 0xCA2 JUMP JUMPDEST SWAP3 POP DUP3 DUP3 ADD SWAP1 POP DUP1 DUP3 GT ISZERO PUSH2 0xFE0 JUMPI PUSH2 0xFDF PUSH2 0xF86 JUMP JUMPDEST JUMPDEST SWAP3 SWAP2 POP POP JUMP JUMPDEST PUSH32 0x4E487B7100000000000000000000000000000000000000000000000000000000 PUSH0 MSTORE PUSH1 0x41 PUSH1 0x4 MSTORE PUSH1 0x24 PUSH0 REVERT JUMPDEST PUSH0 DUP2 SWAP1 POP DUP2 PUSH0 MSTORE PUSH1 0x20 PUSH0 KECCAK256 SWAP1 POP SWAP2 SWAP1 POP JUMP JUMPDEST PUSH0 PUSH1 0x20 PUSH1 0x1F DUP4 ADD DIV SWAP1 POP SWAP2 SWAP1 POP JUMP JUMPDEST PUSH0 DUP3 DUP3 SHL SWAP1 POP SWAP3 SWAP2 POP POP JUMP JUMPDEST PUSH0 PUSH1 0x8 DUP4 MUL PUSH2 0x106F PUSH32 0xFFFFFFFFFFFFFFFFFFFFFFFFFFFFFFFFFFFFFFFFFFFFFFFFFFFFFFFFFFFFFFFF DUP3 PUSH2 0x1034 JUMP JUMPDEST PUSH2 0x1079 DUP7 DUP4 PUSH2 0x1034 JUMP JUMPDEST SWAP6 POP DUP1 NOT DUP5 AND SWAP4 POP DUP1 DUP7 AND DUP5 OR SWAP3 POP POP POP SWAP4 SWAP3 POP POP POP JUMP JUMPDEST PUSH0 DUP2 SWAP1 POP SWAP2 SWAP1 POP JUMP JUMPDEST PUSH0 PUSH2 0x10B4 PUSH2 0x10AF PUSH2 0x10AA DUP5 PUSH2 0xCA2 JUMP JUMPDEST PUSH2 0x1091 JUMP JUMPDEST PUSH2 0xCA2 JUMP JUMPDEST SWAP1 POP SWAP2 SWAP1 POP JUMP JUMPDEST PUSH0 DUP2 SWAP1 POP SWAP2 SWAP1 POP JUMP JUMPDEST PUSH2 0x10CD DUP4 PUSH2 0x109A JUMP JUMPDEST PUSH2 0x10E1 PUSH2 0x10D9 DUP3 PUSH2 0x10BB JUMP JUMPDEST DUP5 DUP5 SLOAD PUSH2 0x1040 JUMP JUMPDEST DUP3 SSTORE POP POP POP POP JUMP JUMPDEST PUSH0 SWAP1 JUMP JUMPDEST PUSH2 0x10F5 PUSH2 0x10E9 JUMP JUMPDEST PUSH2 0x1100 DUP2 DUP5 DUP5 PUSH2 0x10C4 JUMP JUMPDEST POP POP POP JUMP JUMPDEST JUMPDEST DUP2 DUP2 LT ISZERO PUSH2 0x1123 JUMPI PUSH2 0x1118 PUSH0 DUP3 PUSH2 0x10ED JUMP JUMPDEST PUSH1 0x1 DUP2 ADD SWAP1 POP PUSH2 0x1106 JUMP JUMPDEST POP POP JUMP JUMPDEST PUSH1 0x1F DUP3 GT ISZERO PUSH2 0x1168 JUMPI PUSH2 0x1139 DUP2 PUSH2 0x1013 JUMP JUMPDEST PUSH2 0x1142 DUP5 PUSH2 0x1025 JUMP JUMPDEST DUP2 ADD PUSH1 0x20 DUP6 LT ISZERO PUSH2 0x1151 JUMPI DUP2 SWAP1 POP JUMPDEST PUSH2 0x1165 PUSH2 0x115D DUP6 PUSH2 0x1025 JUMP JUMPDEST DUP4 ADD DUP3 PUSH2 0x1105 JUMP JUMPDEST POP POP JUMPDEST POP POP POP JUMP JUMPDEST PUSH0 DUP3 DUP3 SHR SWAP1 POP SWAP3 SWAP2 POP POP JUMP JUMPDEST PUSH0 PUSH2 0x1188 PUSH0 NOT DUP5 PUSH1 0x8 MUL PUSH2 0x116D JUMP JUMPDEST NOT DUP1 DUP4 AND SWAP2 POP POP SWAP3 SWAP2 POP POP JUMP JUMPDEST PUSH0 PUSH2 0x11A0 DUP4 DUP4 PUSH2 0x1179 JUMP JUMPDEST SWAP2 POP DUP3 PUSH1 0x2 MUL DUP3 OR SWAP1 POP SWAP3 SWAP2 POP POP JUMP JUMPDEST PUSH2 0x11B9 DUP3 PUSH2 0xC32 JUMP JUMPDEST PUSH8 0xFFFFFFFFFFFFFFFF DUP2 GT ISZERO PUSH2 0x11D2 JUMPI PUSH2 0x11D1 PUSH2 0xFE6 JUMP JUMPDEST JUMPDEST PUSH2 0x11DC DUP3 SLOAD PUSH2 0xF56 JUMP JUMPDEST PUSH2 0x11E7 DUP3 DUP3 DUP6 PUSH2 0x1127 JUMP JUMPDEST PUSH0 PUSH1 0x20 SWAP1 POP PUSH1 0x1F DUP4 GT PUSH1 0x1 DUP2 EQ PUSH2 0x1218 JUMPI PUSH0 DUP5 ISZERO PUSH2 0x1206 JUMPI DUP3 DUP8 ADD MLOAD SWAP1 POP JUMPDEST PUSH2 0x1210 DUP6 DUP3 PUSH2 0x1195 JUMP JUMPDEST DUP7 SSTORE POP PUSH2 0x1277 JUMP JUMPDEST PUSH1 0x1F NOT DUP5 AND PUSH2 0x1226 DUP7 PUSH2 0x1013 JUMP JUMPDEST PUSH0 JUMPDEST DUP3 DUP2 LT ISZERO PUSH2 0x124D JUMPI DUP5 DUP10 ADD MLOAD DUP3 SSTORE PUSH1 0x1 DUP3 ADD SWAP2 POP PUSH1 0x20 DUP6 ADD SWAP5 POP PUSH1 0x20 DUP2 ADD SWAP1 POP PUSH2 0x1228 JUMP JUMPDEST DUP7 DUP4 LT ISZERO PUSH2 0x126A JUMPI DUP5 DUP10 ADD MLOAD PUSH2 0x1266 PUSH1 0x1F DUP10 AND DUP3 PUSH2 0x1179 JUMP JUMPDEST DUP4 SSTORE POP JUMPDEST PUSH1 0x1 PUSH1 0x2 DUP9 MUL ADD DUP9 SSTORE POP POP POP JUMPDEST POP POP POP POP POP POP JUMP JUMPDEST PUSH0 DUP3 DUP3 MSTORE PUSH1 0x20 DUP3 ADD SWAP1 POP SWAP3 SWAP2 POP POP JUMP JUMPDEST PUSH32 0x5468652070726F706F73616C206973206E6F7420616374697665000000000000 PUSH0 DUP3 ADD MSTORE POP JUMP JUMPDEST PUSH0 PUSH2 0x12C3 PUSH1 0x1A DUP4 PUSH2 0x127F JUMP JUMPDEST SWAP2 POP PUSH2 0x12CE DUP3 PUSH2 0x128F JUMP JUMPDEST PUSH1 0x20 DUP3 ADD SWAP1 POP SWAP2 SWAP1 POP JUMP JUMPDEST PUSH0 PUSH1 0x20 DUP3 ADD SWAP1 POP DUP2 DUP2 SUB PUSH0 DUP4 ADD MSTORE PUSH2 0x12F0 DUP2 PUSH2 0x12B7 JUMP JUMPDEST SWAP1 POP SWAP2 SWAP1 POP JUMP JUMPDEST PUSH32 0x416464726573732068617320616C726561647920766F74656400000000000000 PUSH0 DUP3 ADD MSTORE POP JUMP JUMPDEST PUSH0 PUSH2 0x132B PUSH1 0x19 DUP4 PUSH2 0x127F JUMP JUMPDEST SWAP2 POP PUSH2 0x1336 DUP3 PUSH2 0x12F7 JUMP JUMPDEST PUSH1 0x20 DUP3 ADD SWAP1 POP SWAP2 SWAP1 POP JUMP JUMPDEST PUSH0 PUSH1 0x20 DUP3 ADD SWAP1 POP DUP2 DUP2 SUB PUSH0 DUP4 ADD MSTORE PUSH2 0x1358 DUP2 PUSH2 0x131F JUMP JUMPDEST SWAP1 POP SWAP2 SWAP1 POP JUMP JUMPDEST PUSH0 PUSH2 0x1369 DUP3 PUSH2 0xCA2 JUMP JUMPDEST SWAP2 POP PUSH2 0x1374 DUP4 PUSH2 0xCA2 JUMP JUMPDEST SWAP3 POP DUP3 DUP3 SUB SWAP1 POP DUP2 DUP2 GT ISZERO PUSH2 0x138C JUMPI PUSH2 0x138B PUSH2 0xF86 JUMP JUMPDEST JUMPDEST SWAP3 SWAP2 POP POP JUMP JUMPDEST PUSH32 0x4E487B7100000000000000000000000000000000000000000000000000000000 PUSH0 MSTORE PUSH1 0x32 PUSH1 0x4 MSTORE PUSH1 0x24 PUSH0 REVERT JUMPDEST PUSH32 0x4E487B7100000000000000000000000000000000000000000000000000000000 PUSH0 MSTORE PUSH1 0x12 PUSH1 0x4 MSTORE PUSH1 0x24 PUSH0 REVERT JUMPDEST PUSH0 PUSH2 0x13F6 DUP3 PUSH2 0xCA2 JUMP JUMPDEST SWAP2 POP PUSH2 0x1401 DUP4 PUSH2 0xCA2 JUMP JUMPDEST SWAP3 POP DUP3 PUSH2 0x1411 JUMPI PUSH2 0x1410 PUSH2 0x13BF JUMP JUMPDEST JUMPDEST DUP3 DUP3 MOD SWAP1 POP SWAP3 SWAP2 POP POP JUMP JUMPDEST PUSH0 PUSH2 0x1426 DUP3 PUSH2 0xCA2 JUMP JUMPDEST SWAP2 POP PUSH2 0x1431 DUP4 PUSH2 0xCA2 JUMP JUMPDEST SWAP3 POP DUP3 PUSH2 0x1441 JUMPI PUSH2 0x1440 PUSH2 0x13BF JUMP JUMPDEST JUMPDEST DUP3 DUP3 DIV SWAP1 POP SWAP3 SWAP2 POP POP JUMP INVALID LOG2 PUSH5 0x6970667358 0x22 SLT KECCAK256 PUSH15 0x254582A6D88FDAAEE0B07DBACB8A45 0x22 JUMP SLT PUSH16 0xBBDD4610AE4904F407BF69A964736F6C PUSH4 0x4300081A STOP CALLER "
				},
				"gasEstimates": {
					"creation": {
						"codeDepositCost": "1050000",
						"executionCost": "73932",
						"totalCost": "1123932"
					},
					"external": {
						"create(string,uint256)": "infinite",
						"getCurrentProposal()": "infinite",
						"getProposal(uint256)": "infinite",
						"isVoted(address)": "infinite",
						"setOwner(address)": "infinite",
						"terminateProposal()": "33276",
						"vote(uint8)": "infinite"
					},
					"internal": {
						"calculateCurrentState()": "infinite"
					}
				},
				"methodIdentifiers": {
					"create(string,uint256)": "46f81a87",
					"getCurrentProposal()": "41ec6870",
					"getProposal(uint256)": "c7f758a8",
					"isVoted(address)": "cbff75cb",
					"setOwner(address)": "13af4035",
					"terminateProposal()": "dbddc7aa",
					"vote(uint8)": "b3f98adc"
				}
			},
			"storageLayout": {
				"storage": [
					{
						"astId": 3,
						"contract": "contracts/ProposalContract.sol:ProposalContract",
						"label": "owner",
						"offset": 0,
						"slot": "0",
						"type": "t_address"
					},
					{
						"astId": 5,
						"contract": "contracts/ProposalContract.sol:ProposalContract",
						"label": "counter",
						"offset": 0,
						"slot": "1",
						"type": "t_uint256"
					},
					{
						"astId": 8,
						"contract": "contracts/ProposalContract.sol:ProposalContract",
						"label": "voted_addresses",
						"offset": 0,
						"slot": "2",
						"type": "t_array(t_address)dyn_storage"
					},
					{
						"astId": 98,
						"contract": "contracts/ProposalContract.sol:ProposalContract",
						"label": "proposal_history",
						"offset": 0,
						"slot": "3",
						"type": "t_mapping(t_uint256,t_struct(Proposal)93_storage)"
					}
				],
				"types": {
					"t_address": {
						"encoding": "inplace",
						"label": "address",
						"numberOfBytes": "20"
					},
					"t_array(t_address)dyn_storage": {
						"base": "t_address",
						"encoding": "dynamic_array",
						"label": "address[]",
						"numberOfBytes": "32"
					},
					"t_bool": {
						"encoding": "inplace",
						"label": "bool",
						"numberOfBytes": "1"
					},
					"t_mapping(t_uint256,t_struct(Proposal)93_storage)": {
						"encoding": "mapping",
						"key": "t_uint256",
						"label": "mapping(uint256 => struct ProposalContract.Proposal)",
						"numberOfBytes": "32",
						"value": "t_struct(Proposal)93_storage"
					},
					"t_string_storage": {
						"encoding": "bytes",
						"label": "string",
						"numberOfBytes": "32"
					},
					"t_struct(Proposal)93_storage": {
						"encoding": "inplace",
						"label": "struct ProposalContract.Proposal",
						"members": [
							{
								"astId": 80,
								"contract": "contracts/ProposalContract.sol:ProposalContract",
								"label": "description",
								"offset": 0,
								"slot": "0",
								"type": "t_string_storage"
							},
							{
								"astId": 82,
								"contract": "contracts/ProposalContract.sol:ProposalContract",
								"label": "approve",
								"offset": 0,
								"slot": "1",
								"type": "t_uint256"
							},
							{
								"astId": 84,
								"contract": "contracts/ProposalContract.sol:ProposalContract",
								"label": "reject",
								"offset": 0,
								"slot": "2",
								"type": "t_uint256"
							},
							{
								"astId": 86,
								"contract": "contracts/ProposalContract.sol:ProposalContract",
								"label": "pass",
								"offset": 0,
								"slot": "3",
								"type": "t_uint256"
							},
							{
								"astId": 88,
								"contract": "contracts/ProposalContract.sol:ProposalContract",
								"label": "total_vote_to_end",
								"offset": 0,
								"slot": "4",
								"type": "t_uint256"
							},
							{
								"astId": 90,
								"contract": "contracts/ProposalContract.sol:ProposalContract",
								"label": "current_state",
								"offset": 0,
								"slot": "5",
								"type": "t_bool"
							},
							{
								"astId": 92,
								"contract": "contracts/ProposalContract.sol:ProposalContract",
								"label": "is_active",
								"offset": 1,
								"slot": "5",
								"type": "t_bool"
							}
						],
						"numberOfBytes": "192"
					},
					"t_uint256": {
						"encoding": "inplace",
						"label": "uint256",
						"numberOfBytes": "32"
					}
				}
			},
			"userdoc": {
				"kind": "user",
				"methods": {},
				"version": 1
			}
		}
	}
}